:020000040800F2
:100000000028002041100008890E00088F0E00080B
:10001000950E00089B0E0008A10E000800000000CD
:10002000000000000000000000000000A70E000813
:10003000B30E000800000000BF0E0008CB0E000841
:10004000891000088910000889100008891000082C
:10005000891000088910000889100008891000081C
:10006000891000088910000889100008891000080C
:1000700089100008891000088910000889100008FC
:1000800089100008891000088910000889100008EC
:1000900089100008891000088910000889100008DC
:1000A00089100008891000088910000889100008CC
:1000B000D90E00088910000800000000891000080F
:1000C00089100008000000000000000089100008EE
:1000D00000000000891000088910000800000000DE
:1000E000891000088910000889100008000000002D
:1000F0000000000000000000000000000000000000
:0C01000000000000000000005FF808F1A3
:10010C0010B5054C237833B9044B13B10448AFF345
:10011C0000800123237010BD74000020000000003B
:10012C00F828000808B5034B1BB103490348AFF38B
:10013C00008008BD0000000078000020F8280008AE
:10014C0080B483B000AF7860044A7B681A607B6827
:10015C0018460C37BD4680BC704700BF44290008C8
:10016C0080B584B000AFF860B9607A603B60FB6822
:10017C001846FFF7E5FF0B4AFB681A60FB68BA6884
:10018C005A60FB687A689A60FB683A68DA60FB68C8
:10019C00BA691A61FB68FA695A61FB68184610372C
:1001AC00BD4680BD3829000880B483B000AF7860AC
:1001BC00396000BF0C37BD4680BC704780B584B039
:1001CC0000AFF860B9607A60BB681B68013B042B18
:1001DC0000F2F38001A252F823F000BFFD010008E9
:1001EC004B020008AB0200080B030008690300086F
:1001FC00FB689B68184600F06DFDFB68DB681846D1
:10020C0000F075FDFB681B69184600F070FDFB687B
:10021C005B69184600F06BFDFB689A687B681B688D
:10022C001946104600F0BEFBBB6803221A60FB683F
:10023C005B684FF4FA71184600F0E4FEC6E0FB6808
:10024C005B68184600F0D3FE0346002B00F0B78025
:10025C00FB689B68184600F03DFDFB68DB681846A0
:10026C0000F045FDFB681B69184600F040FDFB687B
:10027C005B69184600F03BFDFB689A687B681B685D
:10028C001946104600F08EFBBB6803221A60FB680F
:10029C005B684FF4FA71184600F0B4FE8FE0FB680F
:1002AC005B68184600F0A3FE0346002B00F0898023
:1002BC00FB689B68184600F01AFDFB68DB68184663
:1002CC0000F008FDFB681B69184600F010FDFB6888
:1002DC005B69184600F00BFDFB68DA687B685B68AD
:1002EC001946104600F05EFBBB6804221A60FB68DE
:1002FC005B684FF4FA71184600F084FE61E0FB680D
:10030C005B68184600F073FE0346002B5BD0FB685D
:10031C00DB68184600F0EBFCFB689B68184600F0A5
:10032C00E6FCFB681B69184600F0D4FCFB685B69B3
:10033C00184600F0DCFCFB681A697B689B68194660
:10034C00104600F02FFBBB6805221A60FB685B6847
:10035C004FF4FA71184600F055FE34E0FB685B6808
:10036C00184600F044FE0346002B2ED0FB689B6819
:10037C00184600F0BCFCFB68DB68184600F0B7FCC4
:10038C00FB681B69184600F0B2FCFB685B691846F9
:10039C0000F0A0FCFB685A697B68DB6819461046C4
:1003AC0000F000FBBB6802221A60FB685B684FF42C
:1003BC00FA71184600F026FE07E000BF06E000BF09
:1003CC0004E000BF02E000BF00E000BF00BF103738
:1003DC00BD4680BD90B59FB006AF00F051FE00F059
:1003EC003FF9082002F01CF903461C4610228B49E9
:1003FC00204600F063FAFC65082002F011F9034670
:10040C001C4640228549204600F058FABC6508205D
:10041C0002F006F903461C4680228049204600F073
:10042C004DFA7C65082002F0FBF803461C464FF49D
:10043C0080727A49204600F041FA3C65082002F0AF
:10044C00EFF803461C464FF400727449204600F046
:10045C0035FAFC64082002F0E3F803461C4601223E
:10046C006F49204600F02AFABC64082002F0D8F844
:10047C0003461C4602226A49204600F01FFA7C649F
:10048C00082002F0CDF803461C460422644920469D
:10049C0000F014FA3C64082002F0C2F803461C4633
:1004AC0008225F49204600F009FAFC63082002F09C
:1004BC00B7F803461C4610225949204600F0FEF9B5
:1004CC00BC63082002F0ACF803461C4620225449B9
:1004DC00204600F0F3F97C63082002F0A1F80346F3
:1004EC001C4640224E49204600F0E8F93C6300F0DF
:1004FC0059F900F0FBF84B4801F0FEFC202002F00B
:10050C008FF803461C463B6B04937B6B0393BB6BCE
:10051C000293FB6B01933B6C00937B6CBA6CB96DD3
:10052C00204600F01AFAFC62202002F079F803460B
:10053C001C463B6B04937B6B0393BB6B0293FB6B73
:10054C0001933B6C00937B6CBA6C796D204600F088
:10055C0004FABC62202002F063F803461C463B6B95
:10056C0004937B6B0393BB6B0293FB6B01933B6C10
:10057C0000937B6CBA6C396D204600F0EEF97C620E
:10058C00202002F04DF803461C463B6B04937B6B1A
:10059C000393BB6B0293FB6B01933B6C00937B6CE3
:1005AC00BA6CF96C204600F0D8F93C62182002F0C5
:1005BC0037F803461C461C4B19683B6A01937B6A4F
:1005CC000093BB6AFA6A2046FFF7CAFDFC610C2057
:1005DC0002F026F803461C46144B1B68FA6D1946AC
:1005EC00204600F091FBBC6101237B6101233B6140
:1005FC000F4B3C460FCB84E80F003A4607F114032F
:10060C001946F869FFF7DAFDBB691B681B6807F12F
:10061C0010021146B8699847EFE700BF0008014087
:10062C00000C014090000020D8000020DC000020CD
:10063C001029000880B582B000AF7860064B1B68AB
:10064C00184600F0BBFC054B1B68184600F0B6FCC6
:10065C0000BF0837BD4680BDD8000020DC0000205C
:10066C0080B590B000AF07F118032822002118467E
:10067C0002F03EF83B1D00221A605A609A60DA6064
:10068C001A610223BB610123BB621023FB620023AE
:10069C007B6307F11803184600F0F6FF0346002BA6
:1006AC0014BF01230023DBB2002B01D000F0CEF8E5
:1006BC000F237B600023BB600023FB6000233B61A6
:1006CC0000237B613B1D0021184601F05FFA0346B5
:1006DC00002B14BF01230023DBB2002B01D000F050
:1006EC00B5F800BF4037BD4680BD000080B586B070
:1006FC0000AF07F1080300221A605A609A60DA60B2
:10070C003B4600221A605A60254B4FF080421A601B
:10071C00234B41F63F725A60214B00229A60204BCA
:10072C000922DA601E4B00221A611D4B00229A61CD
:10073C001B4801F091FB0346002B14BF012300233F
:10074C00DBB2002B01D000F081F84FF48053BB607A
:10075C0007F108031946124801F022FD0346002B4D
:10076C0014BF01230023DBB2002B01D000F06EF884
:10077C0000233B6000237B603B461946084801F090
:10078C00E5FE0346002B14BF01230023DBB2002B34
:10079C0001D000F05BF800BF1837BD4680BD00BF2C
:1007AC009000002080B586B000AF07F1080300224E
:1007BC001A605A609A60DA60214B9B69204A43F0B8
:1007CC00040393611E4B9B6903F004037B607B68FD
:1007DC001B4B9B691A4A43F008039361184B9B69A6
:1007EC0003F008033B603B6800224FF47C71154812
:1007FC0000F032FF00227F21134800F02DFF4FF450
:10080C007C73BB600123FB6000233B6102237B6193
:10081C0007F1080319460B4800F0A2FD7F23BB60CB
:10082C000123FB6000233B6102237B6107F108037A
:10083C001946054800F094FD00BF1837BD4680BD31
:10084C000010024000080140000C014080B400AFD1
:10085C0072B600BFFEE7000090B583B000AF7860C1
:10086C0039607B68012B18D13B684FF6FF729342BD
:10087C0013D1082001F0D4FE03461C46204600F09C
:10088C008DFB084B1C60082001F0CAFE03461C4679
:10089C00204600F083FB044B1C6000BF0C37BD46A8
:1008AC0090BD00BFD8000020DC00002080B500AF58
:1008BC004FF6FF710120FFF7CFFF80BD80B485B0EC
:1008CC0000AFF860B9601346FB80FB68FA889A8029
:1008DC00FB68BA681A60FB6800229A71FB681846BC
:1008EC001437BD4680BC704780B582B000AF7860CD
:1008FC007B681B68002B0AD07B6818687B689B8818
:10090C000022194600F0A8FE7B6801229A7100BFF4
:10091C000837BD4680BD80B582B000AF78607B687B
:10092C001B68002B0AD07B6818687B689B880122A7
:10093C00194600F091FE7B6800229A7100BF0837BF
:10094C00BD4680BD80B483B000AF78607B689B7976
:10095C0018460C37BD4680BC704780B485B000AFDC
:10096C00F860B9607A603B60FB68BA681A60FB6833
:10097C007A685A60FB683A689A60FB68BA69DA6010
:10098C00FB68FA691A61FB683A6A5A61FB687A6A11
:10099C009A61FB68BA6ADA61FB6818461437BD467F
:1009AC0080BC704780B582B000AF786039607B68DE
:1009BC001B681846FFF7C6FF0346002B00F0858125
:1009CC003B68092B00F2808101A252F823F000BF92
:1009DC00050A00084D0A0008950A0008DD0A0008FF
:1009EC00250B00086D0B0008B50B0008FD0B00086B
:1009FC00450C00088D0C00087B685B681846FFF7F7
:100A0C0073FF7B689B681846FFF76EFF7B68DB689B
:100A1C001846FFF769FF7B681B691846FFF764FFF0
:100A2C007B685B691846FFF75FFF7B689B6918461C
:100A3C00FFF75AFF7B68DB691846FFF76CFF44E150
:100A4C007B685B681846FFF766FF7B689B681846F7
:100A5C00FFF74AFF7B68DB681846FFF745FF7B68AA
:100A6C001B691846FFF757FF7B685B691846FFF751
:100A7C0052FF7B689B691846FFF74DFF7B68DB696B
:100A8C001846FFF748FF20E17B685B681846FFF7C4
:100A9C002BFF7B689B681846FFF726FF7B68DB689B
:100AAC001846FFF738FF7B681B691846FFF71CFFD9
:100ABC007B685B691846FFF717FF7B689B691846D4
:100ACC00FFF729FF7B68DB691846FFF70DFFFCE099
:100ADC007B685B681846FFF707FF7B689B681846C6
:100AEC00FFF702FF7B68DB681846FFF7FDFE7B68AB
:100AFC001B691846FFF7F8FE7B685B691846FFF721
:100B0C000AFF7B689B691846FFF705FF7B68DB696A
:100B1C001846FFF7E9FED8E07B685B681846FFF7DC
:100B2C00FAFE7B689B681846FFF7DEFE7B68DB6885
:100B3C001846FFF7D9FE7B681B691846FFF7EBFEDA
:100B4C007B685B691846FFF7E6FE7B689B69184675
:100B5C00FFF7CAFE7B68DB691846FFF7C5FEB4E0F9
:100B6C007B685B681846FFF7BFFE7B689B6818467E
:100B7C00FFF7D1FE7B68DB681846FFF7B5FE7B6894
:100B8C001B691846FFF7B0FE7B685B691846FFF7D8
:100B9C00C2FE7B689B691846FFF7A6FE7B68DB6983
:100BAC001846FFF7A1FE90E07B685B681846FFF7DC
:100BBC009BFE7B689B681846FFF7ADFE7B68DB6885
:100BCC001846FFF791FE7B681B691846FFF78CFEF1
:100BDC007B685B691846FFF787FE7B689B69184644
:100BEC00FFF782FE7B68DB691846FFF77DFE6CE041
:100BFC007B685B681846FFF777FE7B689B68184636
:100C0C00FFF772FE7B68DB681846FFF76DFE7B68AA
:100C1C001B691846FFF77FFE7B685B691846FFF778
:100C2C007AFE7B689B691846FFF775FE7B68DB696B
:100C3C001846FFF770FE48E07B685B681846FFF7C4
:100C4C0053FE7B689B681846FFF74EFE7B68DB689B
:100C5C001846FFF749FE7B681B691846FFF744FEF0
:100C6C007B685B691846FFF73FFE7B689B691846FB
:100C7C00FFF73AFE7B68DB691846FFF735FE24E088
:100C8C007B685B681846FFF72FFE7B689B681846ED
:100C9C00FFF72AFE7B68DB681846FFF725FE7B68AA
:100CAC001B691846FFF720FE7B685B691846FFF747
:100CBC0032FE7B689B691846FFF716FE7B68DB6982
:100CCC001846FFF711FE00E000BF00BF0837BD4615
:100CDC0080BD00BF80B582B000AF78607B681B68B8
:100CEC001846FFF701FE00BF0837BD4680BD80B532
:100CFC0082B000AF78607B681B681846FFF70BFE6C
:100D0C0000BF0837BD4680BD80B584B000AFF86029
:100D1C00B9607A60FB681846FFF712FA064AFB685E
:100D2C001A60FB68BA685A60FB687A689A60FB685C
:100D3C0018461037BD4680BD5029000880B582B0DA
:100D4C0000AF786039603B681B68032B2ED0032BF7
:100D5C0044DC012B02D0022B10D03FE07B689B6857
:100D6C001846FFF7C1FD7B685B684FF47A71184633
:100D7C0000F048F93B6803221A6034E07B685B683A
:100D8C00184600F034F90346002B29D07B689B6889
:100D9C001846FFF7A9FD3B6803221A607B685B6865
:100DAC004FF47A71184600F02DF919E07B685B68F6
:100DBC00184600F01CF90346002B13D07B689B6887
:100DCC001846FFF7A8FD3B6802221A607B685B6837
:100DDC004FF47A71184600F015F903E000BF02E0F9
:100DEC0000BF00E000BF00BF0837BD4680BD00005B
:100DFC0080B483B000AF0E4B9B690D4A43F00103E6
:100E0C0093610B4B9B6903F001037B607B68084B80
:100E1C00DB69074A43F08053D361054BDB6903F070
:100E2C0080533B603B6800BF0C37BD4680BC7047AD
:100E3C000010024080B584B000AF78607B681B68FE
:100E4C00B3F1804F13D10C4BDB690B4A43F0010318
:100E5C00D361094BDB6903F00103FB60FB680022E3
:100E6C0000211C2000F045FA1C2000F05EFA00BFA7
:100E7C001037BD4680BD00BF0010024080B400AFEB
:100E8C00FEE780B400AFFEE780B400AFFEE780B4AD
:100E9C0000AFFEE780B400AFFEE780B400AF00BF48
:100EAC00BD4680BC704780B400AF00BFBD4680BC5F
:100EBC00704780B400AF00BFBD4680BC704780B5A2
:100ECC0000AF00F023F900BF80BD000080B500AF7B
:100EDC00024801F05DF800BF80BD00BF900000200B
:100EEC0080B400AF01231846BD4680BC704780B566
:100EFC0082B000AF7860396001F0C8FB034616225F
:100F0C001A604FF0FF3318460837BD4680BD80B5D8
:100F1C0082B000AF78604FF0FF317868FFF7E7FFE1
:100F2C00FEE7000080B586B000AF7860144A154B20
:100F3C00D31A7B617B693B61134B1B68002B02D17D
:100F4C00114B124A1A60104B1A687B6813443A69A9
:100F5C009A4207D201F09AFB03460C221A604FF01A
:100F6C00FF3309E0084B1B68FB60074B1A687B6872
:100F7C001344054A1360FB6818461837BD4680BDFC
:100F8C000028002000040000E000002000010020E8
:100F9C0080B400AF00BFBD4680BC704780B483B046
:100FAC0000AF78607B6800221A607B6800221A719F
:100FBC007B6818460C37BD4680BC704780B483B044
:100FCC0000AF78607B681B68002B0BDD7B681B68AF
:100FDC005A1E7B681A607B681B68002B02D17B68E9
:100FEC0001221A7100BF0C37BD4680BC704780B41B
:100FFC0083B000AF78607B681B7918460C37BD4610
:10100C0080BC704780B483B000AF786039607B6877
:10101C0000221A713B68064A82FB03129210DB17FE
:10102C00D21A7B681A6000BF0C37BD4680BC704773
:10103C00676666660C480D490D4A002302E0D458D9
:10104C00C4500433C4188C42F9D30A4A0A4C002306
:10105C0001E013600432A242FBD3FFF799FF01F0C9
:10106C001BFBFFF7B7F9704700000020740000204D
:10107C007029000874000020FC000020FEE700002E
:10108C0080B500AF084B1B68074A43F01003136090
:10109C00032000F023F90F2000F008F8FFF7A8FE5A
:1010AC000023184680BD00BF0020024080B582B0EE
:1010BC0000AF7860124B1A68124B1B7819464FF42C
:1010CC007A73B3FBF1F3B2FBF3F3184600F03BF980
:1010DC000346002B01D001230EE07B680F2B0AD8AE
:1010EC00002279684FF0FF3000F003F9064A7B6864
:1010FC001360002300E0012318460837BD4680BD6D
:10110C0000000020080000200400002080B400AF84
:10111C00054B1B781A46054B1B681344034A136096
:10112C0000BFBD4680BC704708000020E4000020D2
:10113C0080B400AF024B1B681846BD4680BC70479C
:10114C00E400002080B485B000AF78607B6803F0C9
:10115C000703FB600C4BDB68BB60BA684FF6FF0300
:10116C001340BB60FB681A02BB68134343F0BF63B8
:10117C0043F40033BB60044ABB68D36000BF143730
:10118C00BD4680BC704700BF00ED00E080B400AFEE
:10119C00044BDB681B0A03F007031846BD4680BCF2
:1011AC00704700BF00ED00E080B483B000AF034691
:1011BC00FB7197F90730002B0BDBFB7903F01F0257
:1011CC00064997F907305B09012000FA02F241F851
:1011DC00232000BF0C37BD4680BC704700E100E007
:1011EC0080B483B000AF03463960FB7197F90730C8
:1011FC00002B0ADB3B68DAB20C4997F90730120175
:10120C00D2B20B4483F800230AE03B68DAB20849F7
:10121C00FB7903F00F03043B1201D2B20B441A7694
:10122C0000BF0C37BD4680BC704700BF00E100E03A
:10123C0000ED00E080B489B000AFF860B9607A606E
:10124C00FB6803F00703FB61FB69C3F10703042B85
:10125C0028BF0423BB61FB690433062B02D9FB694D
:10126C00033B00E000237B614FF0FF32BB6902FAC5
:10127C0003F3DA43BB681A407B699A404FF0FF31A5
:10128C007B6901FA03F3D9437B680B40134318467F
:10129C002437BD4680BC704780B582B000AF786003
:1012AC007B68013BB3F1807F01D301230FE00A4A35
:1012BC007B68013B53600F214FF0FF30FFF790FF2D
:1012CC00054B00229A60044B07221A600023184633
:1012DC000837BD4680BD00BF10E000E080B582B08D
:1012EC0000AF78607868FFF72DFF00BF0837BD4668
:1012FC0080BD80B586B000AF0346B9607A60FB73E1
:10130C0000237B61FFF742FF78617A68B9687869DE
:10131C00FFF790FF024697F90F3011461846FFF77A
:10132C005FFF00BF1837BD4680BD80B582B000AFEF
:10133C000346FB7197F907301846FFF735FF00BFDE
:10134C000837BD4680BD80B582B000AF7860786844
:10135C00FFF7A2FF034618460837BD4680BD0000C4
:10136C0080B48BB000AF7860396000237B620023BF
:10137C003B6261E101227B6A02FA03F3FB613B6889
:10138C001B68FA691340BB61BA69FB699A4240F069
:10139C0050813B685B68974A93425ED0954A934272
:1013AC0075D8954A934258D0934A93426FD8934A32
:1013BC00934252D0914A934269D8914A93424CD06D
:1013CC008F4A934263D88F4A934246D08D4A9342B8
:1013DC005DD8122B2AD8122B59D801A252F823F01F
:1013EC0067140008411400085314000895140008F1
:1013FC009B1400089B1400089B1400089B14000805
:10140C009B1400089B1400089B1400089B140008F4
:10141C009B1400089B1400089B1400089B140008E4
:10142C009B140008491400085D140008764A934286
:10143C0013D02CE03B68DB683B6229E03B68DB683F
:10144C0004333B6224E03B68DB6808333B621FE0FB
:10145C003B68DB680C333B621AE03B689B68002BF3
:10146C0002D104233B6213E03B689B68012B05D13E
:10147C0008233B627B68FA691A6109E008233B6226
:10148C007B68FA695A6103E000233B6200E000BF0D
:10149C00BB69FF2B01D87B6801E07B6804337B615F
:1014AC00BB69FF2B02D87B6A9B0002E07B6A083B7E
:1014BC009B003B617B691A680F213B6901FA03F3BE
:1014CC00DB431A40396A3B6901FA03F31A437B691F
:1014DC001A603B685B6803F08053002B00F0A98016
:1014EC004A4B9B69494A43F001039361474B9B6903
:1014FC0003F00103BB60BB68454A7B6A9B0802335F
:10150C0052F82330FB607B6A03F003039B000F222D
:10151C0002FA03F3DB43FA681340FB607B683D4A35
:10152C0093420DD07B683C4A934207D07B683B4A80
:10153C00934201D1022304E0032302E0012300E0E3
:10154C0000237A6A02F0030292009340FA68134374
:10155C00FB602F497B6A9B080233FA6841F8232011
:10156C003B685B6803F48033002B06D02C4B1A6865
:10157C002B49BB6913430B6006E0294B1A68BB6906
:10158C00DB43274913400B603B685B6803F4003373
:10159C00002B06D0224B5A682149BB6913434B6080
:1015AC0006E01F4B5A68BB69DB431D4913404B6077
:1015BC003B685B6803F48013002B06D0184B9A68C9
:1015CC001749BB6913438B6006E0154B9A68BB69DE
:1015DC00DB43134913408B603B685B6803F40013D7
:1015EC00002B1FD00E4BDA680D49BB691343CB603F
:1015FC001FE000BF0000321000003110000022106C
:10160C000000211000001210000011100010024008
:10161C000000014000080140000C01400010014096
:10162C00000401400B4BDA68BB69DB4309491340EA
:10163C00CB607B6A01337B623B681A687B6A22FA57
:10164C0003F3002B7FF496AE00BF00BF2C37BD46D2
:10165C0080BC70470004014080B483B000AF786058
:10166C000B467B8013467B707B78002B03D07A88EB
:10167C007B681A6103E07B881A047B681A6100BFDF
:10168C000C37BD4680BC704780B586B000AF786023
:10169C007B68002B01D1012372E27B681B6803F08D
:1016AC000103002B00F08780924B5B6803F00C0366
:1016BC00042B0CD08F4B5B6803F00C03082B12D15E
:1016CC008C4B5B6803F48033B3F5803F0BD1894BB3
:1016DC001B6803F40033002B6CD07B685B68002B19
:1016EC0068D101234CE27B685B68B3F5803F06D17F
:1016FC00804B1B687F4A43F4803313602EE07B6879
:10170C005B68002B0CD17B4B1B687A4A23F480332B
:10171C001360784B1B68774A23F4802313601DE019
:10172C007B685B68B3F5A02F0CD1724B1B68714AB8
:10173C0043F4802313606F4B1B686E4A43F4803371
:10174C0013600BE06B4B1B686A4A23F48033136005
:10175C00684B1B68674A23F4802313607B685B68C3
:10176C00002B13D0FFF7E4FC386108E0FFF7E0FC36
:10177C0002463B69D31A642B01D9032300E25D4B6B
:10178C001B6803F40033002BF0D014E0FFF7D0FCFF
:10179C00386108E0FFF7CCFC02463B69D31A642B96
:1017AC0001D90323ECE1534B1B6803F40033002BEA
:1017BC00F0D100E000BF7B681B6803F00203002B34
:1017CC0063D04C4B5B6803F00C03002B0BD0494BE4
:1017DC005B6803F00C03082B1CD1464B5B6803F4CD
:1017EC008033002B16D1434B1B6803F00203002BF4
:1017FC0005D07B681B69012B01D00123C0E13D4B57
:10180C001B6823F0F8027B685B69DB0039491343E2
:10181C000B603AE07B681B69002B20D0364B012211
:10182C001A60FFF785FC386108E0FFF781FC02467F
:10183C003B69D31A022B01D90323A1E12D4B1B6861
:10184C0003F00203002BF0D02A4B1B6823F0F802A4
:10185C007B685B69DB00274913430B6015E0264B63
:10186C0000221A60FFF764FC386108E0FFF760FCA7
:10187C0002463B69D31A022B01D9032380E11D4B8D
:10188C001B6803F00203002BF0D17B681B6803F08C
:10189C000803002B3AD07B689B69002B19D0174B9F
:1018AC0001221A60FFF744FC386108E0FFF740FCA6
:1018BC0002463B69D31A022B01D9032360E10D4B7D
:1018CC005B6A03F00203002BF0D0012000F0A6FAB3
:1018DC001CE00A4B00221A60FFF72AFC38610FE06B
:1018EC00FFF726FC02463B69D31A022B08D90323C7
:1018FC0046E100BF00100240000042428004424218
:10190C00924B5B6A03F00203002BE9D17B681B68E6
:10191C0003F00403002B00F0A6800023FB758B4B17
:10192C00DB6903F08053002B0DD1884BDB69874AB0
:10193C0043F08053D361854BDB6903F08053BB606C
:10194C00BB680123FB75824B1B6803F48073002B6F
:10195C0018D17F4B1B687E4A43F480731360FFF7EA
:10196C00E7FB386108E0FFF7E3FB02463B69D31A5B
:10197C00642B01D9032303E1754B1B6803F48073BB
:10198C00002BF0D07B68DB68012B06D16F4B1B6AF8
:10199C006E4A43F0010313622DE07B68DB68002B79
:1019AC000CD16A4B1B6A694A23F001031362674B23
:1019BC001B6A664A23F0040313621CE07B68DB6835
:1019CC00052B0CD1614B1B6A604A43F00403136274
:1019DC005E4B1B6A5D4A43F0010313620BE05B4BE9
:1019EC001B6A5A4A23F001031362584B1B6A574A6D
:1019FC0023F0040313627B68DB68002B15D0FFF720
:101A0C0097FB38610AE0FFF793FB02463B69D31A58
:101A1C0041F28832934201D90323B1E04B4B1B6A4C
:101A2C0003F00203002BEED014E0FFF781FB3861CA
:101A3C000AE0FFF77DFB02463B69D31A41F288327C
:101A4C00934201D903239BE0404B1B6A03F0020332
:101A5C00002BEED1FB7D012B05D13C4BDB693B4AC6
:101A6C0023F08053D3617B68DB69002B00F0878007
:101A7C00364B5B6803F00C03082B61D07B68DB6989
:101A8C00022B46D1334B00221A60FFF751FB386111
:101A9C0008E0FFF74DFB02463B69D31A022B01D934
:101AAC0003236DE0294B1B6803F00073002BF0D16E
:101ABC007B681B6AB3F5803F08D1244B5B6823F429
:101ACC0000327B689B68214913434B601F4B5B685A
:101ADC0023F474127B68196A7B685B6A0B431B499D
:101AEC0013434B601B4B01221A60FFF721FB38613B
:101AFC0008E0FFF71DFB02463B69D31A022B01D904
:101B0C0003233DE0114B1B6803F00073002BF0D056
:101B1C0035E0104B00221A60FFF70AFB386108E031
:101B2C00FFF706FB02463B69D31A022B01D90323AC
:101B3C0026E0064B1B6803F00073002BF0D11EE06F
:101B4C007B68DB69012B07D1012319E000100240EF
:101B5C0000700040600042420B4B5B68FB60FB680E
:101B6C0003F480327B681B6A9A4206D1FB6803F44B
:101B7C0070127B685B6A9A4201D0012300E000235B
:101B8C0018461837BD4680BD0010024080B584B0A1
:101B9C0000AF786039607B68002B01D10123D0E065
:101BAC006A4B1B6803F007033A689A4210D9674BDB
:101BBC001B6823F0070265493B6813430B60634BBA
:101BCC001B6803F007033A689A4201D00123B8E07E
:101BDC007B681B6803F00203002B20D07B681B681A
:101BEC0003F00403002B05D0594B5B68584A43F4AF
:101BFC00E06353607B681B6803F00803002B05D07F
:101C0C00534B5B68524A43F460535360504B5B68D0
:101C1C0023F0F0027B689B684D4913434B607B6853
:101C2C001B6803F00103002B40D07B685B68012B21
:101C3C0007D1474B1B6803F40033002B15D101234C
:101C4C007FE07B685B68022B07D1414B1B6803F07C
:101C5C000073002B09D1012373E03D4B1B6803F08B
:101C6C000203002B01D101236BE0394B5B6823F09D
:101C7C0003027B685B68364913434B60FFF758FAE5
:101C8C00F8600AE0FFF754FA0246FB68D31A41F2F7
:101C9C008832934201D9032353E02D4B5B6803F048
:101CAC000C027B685B689B009A42EBD1274B1B684C
:101CBC0003F007033A689A4210D2244B1B6823F0B6
:101CCC00070222493B6813430B60204B1B6803F04F
:101CDC0007033A689A4201D0012332E07B681B6803
:101CEC0003F00403002B08D0194B5B6823F4E0626B
:101CFC007B68DB68164913434B607B681B6803F0F9
:101D0C000803002B09D0124B5B6823F460527B68EC
:101D1C001B69DB000E4913434B6000F021F80246AF
:101D2C000B4B5B681B0903F00F030A49CB5C22FACF
:101D3C0003F3094A1360094B1B681846FFF7B6F901
:101D4C00002318461037BD4680BD00BF002002405E
:101D5C00001002405429000800000020040000205C
:101D6C0090B48AB000AF294B3C1D0FCB84E80F0018
:101D7C0040F201233B800023FB610023BB61002365
:101D8C007B6200237B6100233B62214B5B68FB6120
:101D9C00FB6903F00C03042B02D0082B03D02BE0BF
:101DAC001C4B3B622BE0FB699B0C03F00F032833AD
:101DBC003B4413F8243C7B61FB6903F48033002B18
:101DCC0012D0134B5B685B0C03F0010328333B44CC
:101DDC0013F8283CBB617B690E4A03FB02F2BB691A
:101DEC00B2FBF3F37B6204E07B690B4A02FB03F367
:101DFC007B627B6A3B6202E0064B3B6200BF3B6A44
:101E0C0018462837BD4690BC704700BF20290008F3
:101E1C000010024000127A0000093D0080B485B029
:101E2C0000AF78600A4B1B680A4AA2FB03235B0ACB
:101E3C007A6802FB03F3FB6000BFFB685A1EFA6072
:101E4C00002BF9D100BF00BF1437BD4680BC7047D2
:101E5C0000000020D34D621080B582B000AF7860D6
:101E6C007B68002B01D1012341E07B6893F83D3066
:101E7C00DBB2002B06D17B68002283F83C2078680B
:101E8C00FEF7D8FF7B68022283F83D207B681A6836
:101E9C007B6804331946104600F06AFA7B6801220D
:101EAC0083F846207B68012283F83E207B68012260
:101EBC0083F83F207B68012283F840207B68012255
:101ECC0083F841207B68012283F842207B68012241
:101EDC0083F843207B68012283F844207B6801222D
:101EEC0083F845207B68012283F83D2000231846A7
:101EFC000837BD4680BD000080B485B000AF786067
:101F0C007B6893F83D30DBB2012B01D0012335E027
:101F1C007B68022283F83D207B681B68DA687B684B
:101F2C001B6842F00102DA607B681B68164A934218
:101F3C0009D07B681B68B3F1804F04D07B681B68A9
:101F4C00124A934211D17B681B689B6803F007030C
:101F5C00FB60FB68062B10D07B681B681A687B68DB
:101F6C001B6842F001021A6007E07B681B681A6864
:101F7C007B681B6842F001021A6000231846143774
:101F8C00BD4680BC704700BF002C014000040040DF
:101F9C0080B582B000AF78607B681B681B6903F06A
:101FAC000203022B22D17B681B68DB6803F002035F
:101FBC00022B1BD17B681B686FF002021A617B68D5
:101FCC0001221A777B681B689B6903F00303002BC3
:101FDC0003D0786800F0B1F905E0786800F0A4F956
:101FEC00786800F0B3F97B6800221A777B681B686D
:101FFC001B6903F00403042B22D17B681B68DB688C
:10200C0003F00403042B1BD17B681B686FF00402E4
:10201C001A617B6802221A777B681B689B6903F440
:10202C004073002B03D0786800F087F905E07868DE
:10203C0000F07AF9786800F089F97B6800221A7749
:10204C007B681B681B6903F00803082B22D17B6893
:10205C001B68DB6803F00803082B1BD17B681B682B
:10206C006FF008021A617B6804221A777B681B6880
:10207C00DB6903F00303002B03D0786800F05DF9F3
:10208C0005E0786800F050F9786800F05FF97B683B
:10209C0000221A777B681B681B6903F01003102B56
:1020AC0022D17B681B68DB6803F01003102B1BD15B
:1020BC007B681B686FF010021A617B6808221A7724
:1020CC007B681B68DB6903F44073002B03D07868D2
:1020DC0000F033F905E0786800F026F9786800F034
:1020EC0035F97B6800221A777B681B681B6903F043
:1020FC000103012B0ED17B681B68DB6803F0010325
:10210C00012B07D17B681B686FF001021A6178689C
:10211C00FEF790FA7B681B681B6903F08003802B29
:10212C000ED17B681B68DB6803F08003802B07D122
:10213C007B681B686FF080021A61786800F067FAA0
:10214C007B681B681B6903F04003402B0ED17B6836
:10215C001B68DB6803F04003402B07D17B681B68CE
:10216C006FF040021A61786800F0F9F87B681B6820
:10217C001B6903F02003202B0ED17B681B68DB68E6
:10218C0003F02003202B07D17B681B686FF0200223
:10219C001A61786800F032FA00BF0837BD4680BD7E
:1021AC0080B584B000AF786039607B6893F83C30C0
:1021BC00012B01D10223B3E07B68012283F83C2080
:1021CC007B68022283F83D207B681B689B68FB6060
:1021DC00FB6823F07703FB60FB6823F47F43FB6011
:1021EC007B681B68FA689A603B681B68B3F5005FF4
:1021FC003ED0B3F5005F00F28780B3F5805F00F04E
:10220C008580B3F5805F7FD8702B1AD0702B7BD86C
:10221C00602B50D0602B77D8502B3CD0502B73D8E0
:10222C00402B58D0402B6FD8302B64D0302B6BD830
:10223C00202B60D0202B67D8002B5CD0102B5AD0D1
:10224C0062E07B6818683B6899683B685A683B6831
:10225C00DB6800F05CF97B681B689B68FB60FB68C3
:10226C0043F07703FB607B681B68FA689A604EE06A
:10227C007B6818683B6899683B685A683B68DB6800
:10228C0000F045F97B681B689A687B681B6842F410
:10229C0080429A603BE07B6818683B6859683B68F1
:1022AC00DB681A4600F0BCF87B681B6850211846A6
:1022BC0000F013F92BE07B6818683B6859683B68A1
:1022CC00DB681A4600F0DAF87B681B686021184658
:1022DC0000F003F91BE07B6818683B6859683B68A1
:1022EC00DB681A4600F09CF87B681B684021184696
:1022FC0000F0F3F80BE07B681A683B681B68194622
:10230C00104600F0EAF802E000BF00E000BF7B6876
:10231C00012283F83D207B68002283F83C200023B7
:10232C0018461037BD4680BD80B483B000AF7860CE
:10233C0000BF0C37BD4680BC704780B483B000AF83
:10234C00786000BF0C37BD4680BC704780B483B04A
:10235C0000AF786000BF0C37BD4680BC704780B4BE
:10236C0083B000AF786000BF0C37BD4680BC7047AF
:10237C0080B485B000AF786039607B681B68FB6007
:10238C007B68254A934207D07B68B3F1804F03D01A
:10239C007B68224A934208D1FB6823F07003FB60F0
:1023AC003B685B68FA681343FB607B681A4A93428C
:1023BC0007D07B68B3F1804F03D07B68174A9342F8
:1023CC0008D1FB6823F44073FB603B68DB68FA6858
:1023DC001343FB60FB6823F080023B685B6913438B
:1023EC00FB607B68FA681A603B689A687B68DA6203
:1023FC003B681A687B689A627B68074A934203D1F0
:10240C003B681A697B681A637B6801225A6100BFBA
:10241C001437BD4680BC7047002C014000040040BE
:10242C0080B487B000AFF860B9607A60FB681B6A53
:10243C007B61FB681B6A23F00102FB681A62FB6874
:10244C009B693B613B6923F0F0033B617B681B019B
:10245C003A6913433B617B6923F00A037B617A6918
:10246C00BB6813437B61FB683A699A61FB687A69C4
:10247C001A6200BF1C37BD4680BC704780B487B061
:10248C0000AFF860B9607A60FB681B6A23F0100239
:10249C00FB681A62FB689B697B61FB681B6A3B618A
:1024AC007B6923F470437B617B681B037A6913435C
:1024BC007B613B6923F0A0033B61BB681B013A695C
:1024CC0013433B61FB687A699A61FB683A691A624B
:1024DC0000BF1C37BD4680BC704780B485B000AFD0
:1024EC00786039607B689B68FB60FB6823F0700345
:1024FC00FB603A68FB68134343F00703FB607B689F
:10250C00FA689A6000BF1437BD4680BC704780B42F
:10251C0087B000AFF860B9607A603B60FB689B687D
:10252C007B617B6923F47F437B613B681A027B6888
:10253C001A43BB6813437A6913437B61FB687A695E
:10254C009A6000BF1C37BD4680BC704780B485B014
:10255C0000AF786039607B6893F83C30012B01D177
:10256C00022341E07B68012283F83C207B68022235
:10257C0083F83D207B681B685B68FB607B681B688D
:10258C009B68BB60FB6823F07003FB603B681B68B7
:10259C00FA681343FB607B681B68FA685A607B68B7
:1025AC001B68144A934209D07B681B68B3F1804FB7
:1025BC0004D07B681B68104A93420CD1BB6823F093
:1025CC008003BB603B685B68BA681343BB607B6885
:1025DC001B68BA689A607B68012283F83D207B688F
:1025EC00002283F83C20002318461437BD4680BCDB
:1025FC00704700BF002C01400004004080B483B041
:10260C0000AF786000BF0C37BD4680BC704780B40B
:10261C0083B000AF786000BF0C37BD4680BC7047FC
:10262C00012838BF012010B50446204600F058F8A8
:10263C0030B900F01BF808B900F020F88047F4E737
:10264C0010BD08B500F00CF808B5804700F016F87E
:10265C00024B1868BFF35B8F704700BF0C00002063
:10266C0008B5FFF7F5FFFFF7EFFF0000024B186806
:10267C00BFF35B8F704700BFE8000020062008B551
:10268C0000F00AF90120FEF742FC0000014B18682B
:10269C00704700BF1000002070B500260C4D0D4C8B
:1026AC00641BA410A64209D100F020F900260A4DA3
:1026BC000A4C641BA410A64205D170BD55F8043B0E
:1026CC0098470136EEE755F8043B98470136F2E798
:1026DC006429000864290008642900086C29000892
:1026EC00024B0146186800F02BB800BF1000002008
:1026FC0003460244934200D1704703F8011BF9E7EB
:10270C0070B50E4E0C463168054611B900F08CF8C8
:10271C0030602146284600F087F8431C0AD0C41CC0
:10272C0024F00304A04207D0211A284600F07CF8BC
:10273C00013001D14FF0FF34204670BDF000002075
:10274C002DE9F041CD1C25F0030508350C2D38BFC3
:10275C000C25002D074601DBA94205D90C230026C8
:10276C003B603046BDE8F0812E4E00F0B1F8336886
:10277C001C4634BB29463846FFF7C2FF431C0446AF
:10278C004DD134682646002E40D123683146384658
:10279C0004EB030800F048F880453AD12168033572
:1027AC006D1A25F0030508350C2D38BF0C2538465D
:1027BC002946FFF7A5FF01302BD023682B4423605B
:1027CC000EE02268521B1ED40B2A16D96119A342A3
:1027DC00256018BF5960636808BF316062514B6057
:1027EC00384604F10B0600F079F826F00706231D95
:1027FC00F21AB6D09B1BA350B3E76268A3420CBF7E
:10280C0032605A60ECE723466468B2E73446766877
:10281C00B9E70C2338463B6000F060F8A1E725606F
:10282C00DEE700BFEC00002038B50023054D044660
:10283C0008462B60FEF776FB431C02D12B6803B1D4
:10284C00236038BDF40000201F2938B504460D461E
:10285C0004D9162303604FF0FF3038BD426C12B11F
:10286C0052F821304BB9204600F030F82A46014688
:10287C002046BDE8384000F017B8012B0AD0591C8F
:10288C0003D1162303600120E7E70024284642F811
:10289C00254098470020E0E7024B01461868FFF7F7
:1028AC00D3BF00BF1000002038B50023064D0446EE
:1028BC00084611462B60FEF71AFB431C02D12B680D
:1028CC0003B1236038BD00BFF4000020FEF708BB45
:1028DC00014800F009B800BFF8000020014800F0E2
:1028EC0004B800BFF800002070477047F8B500BF6F
:1028FC00F8BC08BC9E467047F8B500BFF8BC08BCD5
:04290C009E4670472C
:1029100001000000020000000300000004000000AD
:1029200002030405060708090A0B0C0D0E0F101010
:102930000000000000000000B501000800000000D9
:10294000000000004F26000800000000000000000A
:10295000490D00080000000000000000010203040F
:042960000607080955
:0829640031010008B908000868
:04296C000D01000851
:102970000024F40010000000010000008926000877
:102980001400002000000000000000000000000013
:102990000000000000000000000000000000000037
:1029A0000000000000000000000000000000000027
:1029B0000000000000000000000000000000000017
:1029C0000000000000000000000000000000000007
:1029D00000000000000000000000000000000000F7
:0429E00000000000F3
:04000005080010419E
:00000001FF
