:020000040800F2
:100000000028002011120008090900080F09000843
:10001000150900081B09000821090008000000005C
:100020000000000000000000000000002709000898
:1000300033090008000000003F0900084B090008D0
:1000400059120008591200085912000859120008E4
:1000500059120008591200085912000859120008D4
:1000600059120008591200085912000859120008C4
:1000700059120008591200085912000859120008B4
:1000800059120008591200085912000859120008A4
:100090005912000859120008591200085912000894
:1000A0005912000859120008591200085912000884
:1000B00059090008591200080000000059120008F0
:1000C000591200080000000000000000591200084A
:1000D00000000000591200086D090008000000002F
:1000E00059120008591200085912000800000000B7
:1000F0000000000000000000000000000000000000
:0C01000000000000000000005FF808F1A3
:10010C0010B5054C237833B9044B13B10448AFF345
:10011C0000800123237010BD880000200000000027
:10012C00E049000808B5034B1BB103490348AFF382
:10013C00008008BD000000008C000020E049000891
:10014C00034613F8012B002AFBD1181A013870470B
:10015C0080B483B000AF7860044A7B681A607B6817
:10016C0018460C37BD4680BC704700BF444A000897
:10017C0080B582B000AF786039607B681846FFF7B5
:10018C00E7FF084A7B681A607B6800225A607B682C
:10019C0000221A727B683A685A607B6818460837E6
:1001AC00BD4680BD344A000880B582B000AF78608F
:1001BC007B685B68184600F00CFD0346002B04D0EE
:1001CC007B685B68184600F022FD7B6801221A727E
:1001DC0000BF0837BD4680BD80B582B000AF7860E7
:1001EC007B685B68184600F0F4FC034683F001035F
:1001FC00DBB2002B04D07B685B68184600F0F4FC83
:10020C007B6800221A7200BF0837BD4680BD000013
:10021C0080B483B000AF7860044A7B681A607B6856
:10022C0018460C37BD4680BC704700BF544A0008C6
:10023C0090B585B000AF78607B681846FFF7E8FF93
:10024C00144A7B681A607B6803F1240407F10C03E1
:10025C00184603F0C6FC07F10C031A460E4920465B
:10026C0003F054FE07F10C03184603F0BBFC7B684B
:10027C000022DA637B68002283F840207B6800222E
:10028C0083F841207B6800225A647B681846143737
:10029C00BD4690BD784A0008F849000880B582B088
:1002AC0000AF7860064A7B681A607B682433184676
:1002BC0003F03AFD7B6818460837BD4680BD00BF89
:1002CC00784A000880B582B000AF786039607B68EE
:1002DC00012B25D13B684FF6FF72934220D1184871
:1002EC0000F0D4FB174800F0D1FB174800F0CEFB10
:1002FC00164800F0B3FB164A1649174800F0ADFC3F
:10030C001649174800F031FC20221649164800F017
:10031C004BFC15491548FFF72BFF1548FFF788FFD5
:10032C007B68002B07D13B684FF6FF72934202D1DA
:10033C000F48FFF7B3FF00BF0837BD4680BD00BFB5
:10034C0064010020700100207C0100208801002045
:10035C00004400401C010020AC040020A40000203C
:10036C00B404002000080140B8040020C0040020A0
:10037C00CC04002080B500AF4FF6FF710120FFF7D1
:10038C00A1FF80BD80B500AF4FF6FF710020FFF7D5
:10039C0099FF80BD80B500AF00F05AFF00F070F8F7
:1003AC0000F0A0F900F014F900F06EF900F0C8F8B4
:1003BC000A4802F047FB0A4801F084F80122094977
:1003CC00094800F080FC094800F02CFE084800F0B9
:1003DC008FFE084800F0A2FCF5E700BFD400002017
:1003EC00A400002060010020AC04002000000020CC
:1003FC0008000020CC04002080B582B000AF7860EB
:10040C00064800F097FB064800F094FB054800F006
:10041C0091FB00BF0837BD4680BD00BF64010020C2
:10042C00700100207C01002090B583B000AF786093
:10043C007B681C680F4800F028FC03469C420CBFEC
:10044C0001230023DBB2002B10D00B4B1B78194679
:10045C000A4800F03BFD322301220749054800F011
:10046C001FFC01220449034800F02DFC00BF0C378F
:10047C00BD4690BDAC04002060010020CC040020DF
:10048C0080B594B000AF07F128032822002118464C
:10049C0003F010FE07F1140300221A605A609A60F0
:1004AC00DA601A613B1D00221A605A609A60DA60A9
:1004BC000223BB620123BB631023FB6300237B6419
:1004CC0007F12803184601F09DFD0346002B14BFCD
:1004DC0001230023DBB2002B01D000F035F90F23F0
:1004EC007B610023BB610023FB6100233B62002383
:1004FC007B6207F114030021184602F005F803464D
:10050C00002B14BF01230023DBB2002B01D000F021
:10051C001BF902237B600023FB603B1D184602F095
:10052C008BF90346002B14BF01230023DBB2002BF5
:10053C0001D000F009F900BF5037BD4680BD000066
:10054C0080B584B000AF3B1D00221A605A609A60DF
:10055C001D4B1E4A1A601C4B00229A601A4B01223A
:10056C001A73194B00221A75174B4FF46022DA617B
:10057C00154B00225A60144B01221A61124800F0EC
:10058C00C9FE0346002B14BF01230023DBB2002B52
:10059C0001D000F0D9F800237B600123BB6000235D
:1005AC00FB603B1D1946084801F046F80346002B3A
:1005BC0014BF01230023DBB2002B01D000F0C4F8E0
:1005CC0000BF1037BD4680BDA400002000240140B0
:1005DC0080B586B000AF07F1080300221A605A609C
:1005EC009A60DA603B4600221A605A60254B4FF045
:1005FC0080421A60234B41F63F725A60214B002215
:10060C009A60204B0922DA601E4B00221A611D4BA6
:10061C0000229A611B4802F0C5F90346002B14BF57
:10062C0001230023DBB2002B01D000F08DF84FF436
:10063C008053BB6007F108031946124802F056FBC1
:10064C000346002B14BF01230023DBB2002B01D087
:10065C0000F07AF800233B6000237B603B46194690
:10066C00084802F019FD0346002B14BF0123002398
:10067C00DBB2002B01D000F067F800BF1837BD4685
:10068C0080BD00BFD400002080B500AF134B144ACE
:10069C001A60124B4FF416525A60104B00229A609B
:1006AC000E4B0022DA600D4B00221A610B4B0C2210
:1006BC005A610A4B00229A61084B0022DA61074802
:1006CC0002F054FD0346002B14BF01230023DBB2C0
:1006DC00002B01D000F038F800BF80BD1C010020B9
:1006EC000044004080B586B000AF07F1080300223B
:1006FC001A605A609A60DA60114B9B69104A43F099
:10070C00040393610E4B9B6903F004037B607B68CD
:10071C00002220210B4801F05DFC2023BB6001234B
:10072C00FB6000233B6102237B6107F10803194640
:10073C00044801F0D3FA00BF1837BD4680BD00BF96
:10074C00001002400008014080B400AF72B600BF38
:10075C00FEE7000080B483B000AF0E4B9B690D4ADE
:10076C0043F0010393610B4B9B6903F001037B6026
:10077C007B68084BDB69074A43F08053D361054B18
:10078C00DB6903F080533B603B6800BF0C37BD4610
:10079C0080BC70470010024080B588B000AF786014
:1007AC0007F1100300221A605A609A60DA607B68C5
:1007BC001B68144A934221D1134B9B69124A43F490
:1007CC0000739361104B9B6903F40073FB60FB682F
:1007DC000D4B9B690C4A43F0040393610A4B9B69D4
:1007EC0003F00403BB60BB6801233B6103237B6103
:1007FC0007F110031946054801F070FA00BF2037C5
:10080C00BD4680BD0024014000100240000801409C
:10081C0080B584B000AF78607B681B68B3F1804F03
:10082C0013D10C4BDB690B4A43F00103D361094B29
:10083C00DB6903F00103FB60FB68002200211C2034
:10084C0001F065F91C2001F07EF900BF1037BD46A0
:10085C0080BD00BF0010024080B588B000AF78604A
:10086C0007F1100300221A605A609A60DA607B6804
:10087C001B681F4A934237D11E4BDB691D4A43F458
:10088C000033D3611B4BDB6903F40033FB60FB6863
:10089C00184B9B69174A43F004039361154B9B69F2
:1008AC0003F00403BB60BB6804233B6102237B6140
:1008BC000323FB6107F1100319460F4801F00EFAF0
:1008CC0008233B6100237B610023BB6107F110030C
:1008DC001946094801F002FA00220021262001F0F5
:1008EC0016F9262001F02FF900BF2037BD4680BD38
:1008FC0000440040001002400008014080B400AFEA
:10090C00FEE780B400AFFEE780B400AFFEE780B432
:10091C0000AFFEE780B400AFFEE780B400AF00BFCD
:10092C00BD4680BC704780B400AF00BFBD4680BCE4
:10093C00704780B400AF00BFBD4680BC704780B527
:10094C0000AF00F0CBFC00BF80BD000080B500AF55
:10095C00024802F0C3F800BF80BD00BFD4000020E5
:10096C0080B500AF024802F011FD00BF80BD00BF92
:10097C001C01002080B400AF01231846BD4680BC8A
:10098C00704780B582B000AF7860396003F012FB1D
:10099C00034616221A604FF0FF3318460837BD463F
:1009AC0080BD80B582B000AF78604FF0FF317868C1
:1009BC00FFF7E7FFFEE7000080B586B000AF786078
:1009CC00144A154BD31A7B617B693B61134B1B6833
:1009DC00002B02D1114B124A1A60104B1A687B681B
:1009EC0013443A699A4207D203F0E4FA03460C2204
:1009FC001A604FF0FF3309E0084B1B68FB60074B94
:100A0C001A687B681344054A1360FB68184618374C
:100A1C00BD4680BD00280020000400001405002005
:100A2C003005002080B400AF00BFBD4680BC7047CD
:100A3C0080B483B000AF78607B6800221A607B685A
:100A4C0000225A607B6800229A607B6800221A732D
:100A5C007B6818460C37BD4680BC7047B0B582B079
:100A6C0000AF78607B6827241D46002C05DB2846E8
:100A7C00FFF7DEFF1435013CF7E77B680022C3F873
:100A8C0020237B6818460837BD46B0BD80B483B0C0
:100A9C0000AF78607B6800221A707B6800225A6075
:100AAC007B6800229A607B6818460C37BD4680BC78
:100ABC00704780B483B000AF78607B681B78002BE4
:100ACC0004D07B6800221A70012300E00023184632
:100ADC000C37BD4680BC704780B483B000AF7860E3
:100AEC007B685A687B689A6000BF0C37BD4680BC37
:100AFC00704780B582B000AF78607868FFF7ECFF84
:100B0C0000BF0837BD4680BD80B483B000AF7860AD
:100B1C0039603B68064A82FB03129210DB17D21A2B
:100B2C007B685A6000BF0C37BD4680BC704700BF65
:100B3C006766666680B582B000AF78607B689B683C
:100B4C00002B0EDD7B689B685A1E7B689A607B6865
:100B5C009B68002B05D17B6801221A707868FFF71F
:100B6C00BBFF00BF0837BD4680BD80B483B000AF6B
:100B7C00786039607B6800221A607B683A681A607A
:100B8C007B6818460C37BD4680BC704780B582B078
:100B9C0000AF78607B681B68184600F041FD034687
:100BAC0018460837BD4680BD80B584B000AFF860EC
:100BBC00B9601346FB80FB68FA88B968184600F0E8
:100BCC0039F8FB6800229A71FB6818461037BD464D
:100BDC0080BD80B483B000AF78607B689B79184689
:100BEC000C37BD4680BC704780B582B000AF7860D2
:100BFC007B6818687B689B880122194601F0EAF92A
:100C0C007B6801229A7100BF0837BD4680BD80B554
:100C1C0082B000AF78607B6818687B689B88002284
:100C2C00194601F0D7F97B6800229A7100BF08378A
:100C3C00BD4680BD80B485B000AFF860B960134686
:100C4C00FB80FB68BA681A60FB68FA889A80FB68BC
:100C5C0018461437BD4680BC704780B485B000AFD1
:100C6C00F860B9607A60FB6800221A60FB680022A9
:100C7C005A60FB68BA681A60FB687A685A60FB684D
:100C8C0018461437BD4680BC704780B483B000AFA3
:100C9C0078607B685B6818460C37BD4680BC704733
:100CAC0080B584B000AFF860B9603B601346FB8040
:100CBC00FB681868FA883B68B96802F0A4FA00BFB0
:100CCC001037BD4680BD80B584B000AFF860B96008
:100CDC001346FB80FB681B68FA88B968184602F05B
:100CEC0024FB00BF1037BD4680BD80B483B000AF7D
:100CFC0078607B685B6C18460C37BD4680BC7047CF
:100D0C0080B483B000AF786039607B683A685A640D
:100D1C0000BF0C37BD4680BC7047000080B582B068
:100D2C0000AF78607868FFF7E0FF0346042B00F211
:100D3C00B98001A252F823F0590D0008630D000888
:100D4C00870D0008430E0008B10D000801217868DA
:100D5C00FFF7D6FFAFE07B6893F84130002B00F033
:100D6C00A3805748FFF7B8FE04217868FFF7C8FF47
:100D7C007B68002283F8412096E07B6893F8413031
:100D8C00002B00F093804E48FFF7A6FE4D4B00223F
:100D9C001A7003217868FFF7B3FF7B68002283F891
:100DAC00412083E0786800F0EDF80346002B0ED06C
:100DBC00444B01221A7002217868FFF7A1FF786872
:100DCC0000F0D0F87B68002283F8412073E078684B
:100DDC0000F0EAF80346002B0ED03A4B00221A70B2
:100DEC0001217868FFF78CFF786800F0BBF87B680E
:100DFC00002283F841205EE07B6893F84130002BA1
:100E0C0007D03148FFF775FE7B68002283F841203C
:100E1C0051E02D48FFF74DFE0346002B48D0012131
:100E2C007868FFF76DFF786800F09CF87B6800220B
:100E3C0083F841203CE0786800F0B6F80346002BBC
:100E4C000ED0204B00221A7001217868FFF758FF52
:100E5C00786800F087F87B68002283F841202AE04C
:100E6C007B6893F84130002B07D01748FFF741FE01
:100E7C007B68002283F841201DE01348FFF719FE20
:100E8C000346002B16D00F4B01221A7002217868F2
:100E9C00FFF736FF786800F065F87B68002283F86E
:100EAC00412007E000BF06E000BF04E000BF02E005
:100EBC0000BF00E000BF00BF0837BD4680BD00BFCB
:100ECC007C010020610100206401002080B582B00B
:100EDC0000AF78600B46FB70FB780A2B04D17B6863
:100EEC00012283F8412038E07B68DB6B1E2B0DD18F
:100EFC007B6803F124027B6893F840301946104656
:100F0C0002F018FF0246FB7813700BE07B68DB6B7A
:100F1C005A1C7B68DA637B682433FA7811461846CE
:100F2C0002F028FF7B6893F840300133DAB27B681B
:100F3C0083F840207B6893F840301E2B09D17B68E6
:100F4C00002283F840207B6824330549184602F0C0
:100F5C00A2FF7B68012283F841200837BD4680BD83
:100F6C00FC49000880B582B000AF78607B68243300
:100F7C000349184602F08FFF00BF0837BD4680BDFD
:100F8C00FC49000880B582B000AF78607B682433E0
:100F9C000449184600F01AF8034618460837BD46AF
:100FAC0080BD00BF004A000880B582B000AF7860F9
:100FBC007B6824330449184600F008F803461846A9
:100FCC000837BD4680BD00BF084A000880B582B016
:100FDC0000AF786039603968786802F060FF0346CA
:100FEC00002B0CBF01230023DBB218460837BD468B
:100FFC0080BD80B483B000AF78607B685B681846B6
:10100C000C37BD4680BC704780B483B000AF7860AD
:10101C0039607B683A685A6000BF0C37BD4680BCAB
:10102C007047000080B582B000AF78607868FFF739
:10103C00E0FF0346022B24D0022B33DC002B02D022
:10104C00012B0DD02EE04FF47A711B48FFF75CFD9D
:10105C001948FFF741FD01217868FFF7D5FF26E01D
:10106C001648FFF7A1F81448FFF723FD0346002BA1
:10107C001AD01148FFF73DFD02217868FFF7C4FF35
:10108C0012E00E48FFF7A8F80B48FFF712FD0346D5
:10109C00002B0BD00848FFF72CFD01217868FFF7D7
:1010AC00B3FF03E000BF02E000BF00E000BF00BFE1
:1010BC000837BD4680BD00BF64010020C00400207D
:1010CC0080B483B000AF78607B685B6818460C37DF
:1010DC00BD4680BC704780B483B000AF7860396087
:1010EC007B683A685A6000BF0C37BD4680BC7047BD
:1010FC0080B582B000AF78607868FFF7E1FF0346F7
:10110C00022B25D0022B49DC002B02D0012B28D03E
:10111C0044E04FF4FA712648FFF7F6FC2448FFF739
:10112C00DBFC7B6800229A60224B1B7883F0010366
:10113C00DBB2002B04D002217868FFF7CCFF32E041
:10114C00786800F039F801217868FFF7C4FF2AE0CD
:10115C00184B1B78002B23D000217868FFF7BBFFBE
:10116C001EE0144B1B7883F00103DBB2002B04D080
:10117C0002217868FFF7AFFF15E00D48FFF799FCE7
:10118C000346002B0ED0786800F016F80848FFF7DD
:10119C00B0FC01217868FFF79EFF03E000BF02E07E
:1011AC0000BF00E000BF00BF0837BD4680BD00BFD8
:1011BC00700100206101002080B584B000AF786020
:1011CC003023FB600C48FFF7E1FC02467B689A6019
:1011DC007B689B681A460949F86803F0A3F8B86065
:1011EC00BB689AB24FF47A73F9680548FFF758FD5B
:1011FC0000BF1037BD4680BDB4040020104A000863
:10120C00AC0400200C480D490D4A002302E0D458D0
:10121C00C4500433C4188C42F9D30A4A0A4C002334
:10122C0001E013600432A242FBD3FFF7FBFB02F098
:10123C00C7FEFFF7AFF870470000002088000020C1
:10124C00344B00088800002030050020FEE7000029
:10125C0080B500AF084B1B68074A43F010031360BE
:10126C00032000F049FC0F2000F008F8FFF772FA99
:10127C000023184680BD00BF0020024080B582B01C
:10128C0000AF7860124B1A68124B1B7819464FF45A
:10129C007A73B3FBF1F3B2FBF3F3184600F061FC85
:1012AC000346002B01D001230EE07B680F2B0AD8DC
:1012BC00002279684FF0FF3000F029FC064A7B6869
:1012CC001360002300E0012318460837BD4680BD9B
:1012DC00140000201C0000201800002080B400AF77
:1012EC00054B1B781A46054B1B681344034A1360C5
:1012FC0000BFBD4680BC70471C00002018050020B4
:10130C0080B400AF024B1B681846BD4680BC7047CA
:10131C001805002080B586B000AF78600023FB75FF
:10132C0000233B610023BB600023FB607B68002B28
:10133C0001D10123BEE07B689B68002B7B689B6A14
:10134C00002B09D17B680022DA627B68002283F8CB
:10135C0024207868FFF720FA786800F0BFFA03467B
:10136C00FB757B689B6A03F01003002B40F099809F
:10137C00FB7D002B40F095807B689B6A23F488539F
:10138C0023F0020343F002027B689A627B685A687E
:10139C007B68DB691A437B681B7B5B001343BA6871
:1013AC001343BB607B689B68B3F5807F03D07B687D
:1013BC009B68012B02D14FF4807300E000233A6943
:1013CC0013433B617B681B7D012B19D17B681B7B15
:1013DC00002B09D17B689B69013B5A033B69134382
:1013EC0043F400633B610BE07B689B6A43F0200293
:1013FC007B689A627B68DB6A43F001027B68DA6285
:10140C007B681B685B6823F469417B681B683A69DD
:10141C000A435A607B681B689A68284B13407A68A9
:10142C001268B9680B4393607B689B68B3F5807F47
:10143C0003D07B689B68012B04D17B681B69013B43
:10144C001B05FB607B681B68DB6A23F470017B68FF
:10145C001B68FA680A43DA627B681B689A68184B47
:10146C001340BA689A420BD17B680022DA627B681F
:10147C009B6A23F0030343F001027B689A6218E035
:10148C007B689B6A23F0120343F010027B689A621C
:10149C007B68DB6A43F001027B68DA620123FB752F
:1014AC0007E07B689B6A43F010027B689A62012319
:1014BC00FB75FB7D18461837BD4680BDFDF7E1FF77
:1014CC00FE0E1FFF80B584B000AF78600023FB7365
:1014DC007B6893F82430012B01D1022398E07B68C0
:1014EC00012283F82420786800F09EF90346FB73F0
:1014FC00FB7B002B40F087807B689B6A23F4407356
:10150C0023F0010343F480727B689A627B681B684A
:10151C00414A934205D1414B5B6803F47023002B85
:10152C0015D17B689B6A23F480127B689A627B6876
:10153C001B685B6803F48063002B26D07B689B6A76
:10154C0023F4405343F480527B689A621DE07B681D
:10155C009B6A43F480127B689A627B681B682F4AF3
:10156C00934204D07B681B682B4A93420DD12B4BC2
:10157C005B6803F48063002B07D07B689B6A23F4C1
:10158C00405343F480527B689A627B689B6A03F4F5
:10159C008053002B06D07B68DB6A23F006027B6845
:1015AC00DA6202E07B680022DA627B68002283F850
:1015BC0024207B681B686FF002021A607B681B6832
:1015CC009B6803F46023B3F5602F13D17B681B6811
:1015DC00114A934205D1114B5B6803F47023002B25
:1015EC0008D17B681B689A687B681B6842F4A00270
:1015FC009A600CE07B681B689A687B681B6842F4F5
:10160C0080129A6003E07B68002283F82420FB7B25
:10161C0018461037BD4680BD00280140002401400B
:10162C0080B483B000AF78607B681B68DB6C1846B5
:10163C000C37BD4680BC704780B485B000AF786075
:10164C0039600023FB730023BB607B6893F8243064
:10165C00012B01D10223DCE07B68012283F82420DA
:10166C003B685B68062B1CD87B681B68596B3B6816
:10167C005A6813469B001344053B1F2202FA03F3DE
:10168C00DB4319403B6818683B685A6813469B005B
:10169C001344053B00FA03F27B681B680A435A6348
:1016AC003CE03B685B680C2B1CD87B681B68196B97
:1016BC003B685A6813469B001344233B1F2202FAD3
:1016CC0003F3DB4319403B6818683B685A681346C0
:1016DC009B001344233B00FA03F27B681B680A430C
:1016EC001A631BE07B681B68D96A3B685A6813460F
:1016FC009B001344413B1F2202FA03F3DB431940C6
:10170C003B6818683B685A6813469B001344413B7E
:10171C0000FA03F27B681B680A43DA623B681B68B9
:10172C00092B1CD97B681B68D9683B681A6813465F
:10173C005B0013441E3B072202FA03F3DB43194000
:10174C003B6898683B681A6813465B0013441E3B61
:10175C0000FA03F27B681B680A43DA6019E07B68C5
:10176C001B6819693B681A6813465B00134407220F
:10177C0002FA03F3DB4319403B6898683B681A682C
:10178C0013465B00134400FA03F27B681B680A43A0
:10179C001A613B681B68102B03D03B681B68112B2C
:1017AC0032D17B681B681D4A934225D17B681B682C
:1017BC009B6803F40003002B26D17B681B689A6896
:1017CC007B681B6842F400029A603B681B68102B14
:1017DC001AD1134B1B68134AA2FB03239A0C134612
:1017EC009B0013445B00BB6002E0BB68013BBB6029
:1017FC00BB68002BF9D107E07B689B6A43F02002A1
:10180C007B689A620123FB737B68002283F8242097
:10181C00FB7B18461437BD4680BC70470024014042
:10182C001400002083DE1B4380B584B000AF7860C9
:10183C000023FB600023BB607B681B689B6803F084
:10184C000103012B40D07B681B689A687B681B687E
:10185C0042F001029A601F4B1B681F4AA2FB032334
:10186C009B0CBB6002E0BB68013BBB60BB68002B00
:10187C00F9D1FFF745FDF8601FE0FFF741FD024687
:10188C00FB68D31A022B18D97B681B689B6803F082
:10189C000103012B11D07B689B6A43F010027B681B
:1018AC009A627B68DB6A43F001027B68DA627B68D0
:1018BC00002283F82420012307E07B681B689B68C7
:1018CC0003F00103012BD8D1002318461037BD4675
:1018DC0080BD00BF1400002083DE1B4380B584B0A4
:1018EC0000AF78600023FB607B681B689B6803F08B
:1018FC000103012B2ED17B681B689A687B681B68DF
:10190C0022F001029A60FFF7FBFCF8601BE0FFF786
:10191C00F7FC0246FB68D31A022B14D97B681B68B0
:10192C009B6803F00103012B0DD17B689B6A43F08C
:10193C0010027B689A627B68DB6A43F001027B6869
:10194C00DA62012307E07B681B689B6803F00103E4
:10195C00012BDCD0002318461037BD4680BD00009B
:10196C0080B485B000AF78607B6803F00703FB6040
:10197C000C4BDB68BB60BA684FF6FF031340BB60CF
:10198C00FB681A02BB68134343F0BF6343F4003394
:10199C00BB60044ABB68D36000BF1437BD4680BC33
:1019AC00704700BF00ED00E080B400AF044BDB6873
:1019BC001B0A03F007031846BD4680BC704700BFE6
:1019CC0000ED00E080B483B000AF0346FB7197F9E3
:1019DC000730002B0BDBFB7903F01F02064997F94C
:1019EC0007305B09012000FA02F241F8232000BF06
:1019FC000C37BD4680BC704700E100E080B483B07A
:101A0C0000AF03463960FB7197F90730002B0ADBF6
:101A1C003B68DAB20C4997F907301201D2B20B4489
:101A2C0083F800230AE03B68DAB20849FB7903F03B
:101A3C000F03043B1201D2B20B441A7600BF0C37D1
:101A4C00BD4680BC704700BF00E100E000ED00E047
:101A5C0080B489B000AFF860B9607A60FB6803F0BD
:101A6C000703FB61FB69C3F10703042B28BF0423A5
:101A7C00BB61FB690433062B02D9FB69033B00E015
:101A8C0000237B614FF0FF32BB6902FA03F3DA43A8
:101A9C00BB681A407B699A404FF0FF317B6901FAB1
:101AAC0003F3D9437B680B40134318462437BD46D8
:101ABC0080BC704780B582B000AF78607B68013B1A
:101ACC00B3F1807F01D301230FE00A4A7B68013B0D
:101ADC0053600F214FF0FF30FFF790FF054B0022B2
:101AEC009A60044B07221A60002318460837BD463B
:101AFC0080BD00BF10E000E080B582B000AF786020
:101B0C007868FFF72DFF00BF0837BD4680BD80B554
:101B1C0086B000AF0346B9607A60FB7300237B612B
:101B2C00FFF742FF78617A68B9687869FFF790FF30
:101B3C00024697F90F3011461846FFF75FFF00BFBA
:101B4C001837BD4680BD80B582B000AF0346FB712F
:101B5C0097F907301846FFF735FF00BF0837BD4629
:101B6C0080BD80B582B000AF78607868FFF7A2FFC7
:101B7C00034618460837BD4680BD80B485B000AF1B
:101B8C0078600023FB737B6893F82130022B08D01C
:101B9C007B6804229A637B68002283F8202001234F
:101BAC0020E07B681B681A687B681B6822F00E02B9
:101BBC001A607B681B681A687B681B6822F001023C
:101BCC001A607B681A6C7B68DB6B012101FA02F2EC
:101BDC005A607B68012283F821207B68002283F8FD
:101BEC002020FB7B18461437BD4680BC7047000094
:101BFC0080B584B000AF78600023FB737B6893F8EA
:101C0C002130022B05D07B6804229A630123FB73DD
:101C1C0051E07B681B681A687B681B6822F00E0217
:101C2C001A607B681B681A687B681B6822F00102CB
:101C3C001A607B681B68224A934229D07B681B6818
:101C4C00204A934222D07B681B681F4A93421AD0C9
:101C5C007B681B681D4A934212D07B681B681C4A28
:101C6C0093420AD07B681B681A4A934202D14FF404
:101C7C0080130EE04FF080730BE04FF4803308E0DC
:101C8C004FF4805305E04FF4807302E0102300E022
:101C9C000123114A53607B68012283F821207B6861
:101CAC00002283F820207B685B6B002B03D07B68C1
:101CBC005B6B78689847FB7B18461037BD4680BD38
:101CCC00080002401C000240300002404400024068
:101CDC00580002406C0002400000024080B48BB0FF
:101CEC0000AF7860396000237B6200233B6261E1C6
:101CFC0001227B6A02FA03F3FB613B681B68FA69F9
:101D0C001340BB61BA69FB699A4240F050813B6851
:101D1C005B68974A93425ED0954A934275D8954A30
:101D2C00934258D0934A93426FD8934A934252D0DD
:101D3C00914A934269D8914A93424CD08F4A93422C
:101D4C0063D88F4A934246D08D4A93425DD8122B6A
:101D5C002AD8122B59D801A252F823F0E31D0008FF
:101D6C00BD1D0008CF1D0008111E0008171E00081D
:101D7C00171E0008171E0008171E0008171E000863
:101D8C00171E0008171E0008171E0008171E000853
:101D9C00171E0008171E0008171E0008171E000843
:101DAC00C51D0008D91D0008764A934213D02CE0BB
:101DBC003B68DB683B6229E03B68DB6804333B62D1
:101DCC0024E03B68DB6808333B621FE03B68DB6860
:101DDC000C333B621AE03B689B68002B02D1042356
:101DEC003B6213E03B689B68012B05D108233B62E7
:101DFC007B68FA691A6109E008233B627B68FA691F
:101E0C005A6103E000233B6200E000BFBB69FF2B7B
:101E1C0001D87B6801E07B6804337B61BB69FF2BD5
:101E2C0002D87B6A9B0002E07B6A083B9B003B610B
:101E3C007B691A680F213B6901FA03F3DB431A40F3
:101E4C00396A3B6901FA03F31A437B691A603B68F0
:101E5C005B6803F08053002B00F0A9804A4B9B6910
:101E6C00494A43F001039361474B9B6903F001031B
:101E7C00BB60BB68454A7B6A9B08023352F823302F
:101E8C00FB607B6A03F003039B000F2202FA03F34F
:101E9C00DB43FA681340FB607B683D4A93420DD0EC
:101EAC007B683C4A934207D07B683B4A934201D102
:101EBC00022304E0032302E0012300E000237A6AFA
:101ECC0002F0030292009340FA681343FB602F491F
:101EDC007B6A9B080233FA6841F823203B685B68F5
:101EEC0003F48033002B06D02C4B1A682B49BB69AA
:101EFC0013430B6006E0294B1A68BB69DB43274987
:101F0C0013400B603B685B6803F40033002B06D076
:101F1C00224B5A682149BB6913434B6006E01F4BA7
:101F2C005A68BB69DB431D4913404B603B685B68D7
:101F3C0003F48013002B06D0184B9A681749BB6921
:101F4C0013438B6006E0154B9A68BB69DB4313495E
:101F5C0013408B603B685B6803F40013002B1FD0AD
:101F6C000E4BDA680D49BB691343CB601FE000BF11
:101F7C00000032100000311000002210000021106F
:101F8C00000012100000111000100240000001406F
:101F9C0000080140000C0140001001400004014009
:101FAC000B4BDA68BB69DB4309491340CB607B6A96
:101FBC0001337B623B681A687B6A22FA03F3002BBD
:101FCC007FF496AE00BF00BF2C37BD4680BC704777
:101FDC000004014080B483B000AF78600B467B8076
:101FEC0013467B707B78002B03D07A887B681A6150
:101FFC0003E07B881A047B681A6100BF0C37BD466E
:10200C0080BC704780B586B000AF78607B68002BD1
:10201C0001D1012372E27B681B6803F00103002BE2
:10202C0000F08780924B5B6803F00C03042B0CD000
:10203C008F4B5B6803F00C03082B12D18C4B5B6845
:10204C0003F48033B3F5803F0BD1894B1B6803F449
:10205C000033002B6CD07B685B68002B68D10123AC
:10206C004CE27B685B68B3F5803F06D1804B1B6804
:10207C007F4A43F4803313602EE07B685B68002B4F
:10208C000CD17B4B1B687A4A23F480331360784B5A
:10209C001B68774A23F4802313601DE07B685B6820
:1020AC00B3F5A02F0CD1724B1B68714A43F48023FB
:1020BC0013606F4B1B686E4A43F4803313600BE064
:1020CC006B4B1B686A4A23F480331360684B1B68A4
:1020DC00674A23F4802313607B685B68002B13D062
:1020EC00FFF70EF9386108E0FFF70AF902463B6981
:1020FC00D31A642B01D9032300E25D4B1B6803F454
:10210C000033002BF0D014E0FFF7FAF8386108E048
:10211C00FFF7F6F802463B69D31A642B01D9032367
:10212C00ECE1534B1B6803F40033002BF0D100E0BF
:10213C0000BF7B681B6803F00203002B63D04C4B81
:10214C005B6803F00C03002B0BD0494B5B6803F06E
:10215C000C03082B1CD1464B5B6803F48033002B1B
:10216C0016D1434B1B6803F00203002B05D07B6890
:10217C001B69012B01D00123C0E13D4B1B6823F0EF
:10218C00F8027B685B69DB00394913430B603AE06A
:10219C007B681B69002B20D0364B01221A60FFF79D
:1021AC00AFF8386108E0FFF7ABF802463B69D31A89
:1021BC00022B01D90323A1E12D4B1B6803F0020371
:1021CC00002BF0D02A4B1B6823F0F8027B685B696C
:1021DC00DB00274913430B6015E0264B00221A60E5
:1021EC00FFF78EF8386108E0FFF78AF802463B6982
:1021FC00D31A022B01D9032380E11D4B1B6803F07A
:10220C000203002BF0D17B681B6803F00803002B42
:10221C003AD07B689B69002B19D0174B01221A60AE
:10222C00FFF76EF8386108E0FFF76AF802463B6981
:10223C00D31A022B01D9032360E10D4B5B6A03F027
:10224C000203002BF0D0012000F0D8FA1CE00A4B5E
:10225C0000221A60FFF754F838610FE0FFF750F8CE
:10226C0002463B69D31A022B08D9032346E100BF6F
:10227C00001002400000424280044242924B5B6AD2
:10228C0003F00203002BE9D17B681B6803F0040305
:10229C00002B00F0A6800023FB758B4BDB6903F051
:1022AC008053002B0DD1884BDB69874A43F0805358
:1022BC00D361854BDB6903F08053BB60BB680123A2
:1022CC00FB75824B1B6803F48073002B18D17F4B7A
:1022DC001B687E4A43F480731360FFF711F8386172
:1022EC0008E0FFF70DF802463B69D31A642B01D9BD
:1022FC00032303E1754B1B6803F48073002BF0D0B0
:10230C007B68DB68012B06D16F4B1B6A6E4A43F06E
:10231C00010313622DE07B68DB68002B0CD16A4B48
:10232C001B6A694A23F001031362674B1B6A664AF6
:10233C0023F0040313621CE07B68DB68052B0CD1D3
:10234C00614B1B6A604A43F0040313625E4B1B6AC9
:10235C005D4A43F0010313620BE05B4B1B6A5A4A64
:10236C0023F001031362584B1B6A574A23F00403F2
:10237C0013627B68DB68002B15D0FEF7C1FF386158
:10238C000AE0FEF7BDFF02463B69D31A41F28832E0
:10239C00934201D90323B1E04B4B1B6A03F00203B8
:1023AC00002BEED014E0FEF7ABFF38610AE0FEF72D
:1023BC00A7FF02463B69D31A41F28832934201D9F6
:1023CC0003239BE0404B1B6A03F00203002BEED16E
:1023DC00FB7D012B05D13C4BDB693B4A23F0805341
:1023EC00D3617B68DB69002B00F08780364B5B6820
:1023FC0003F00C03082B61D07B68DB69022B46D100
:10240C00334B00221A60FEF77BFF386108E0FEF7C1
:10241C0077FF02463B69D31A022B01D903236DE0E7
:10242C00294B1B6803F00073002BF0D17B681B6AEF
:10243C00B3F5803F08D1244B5B6823F400327B68F2
:10244C009B68214913434B601F4B5B6823F4741248
:10245C007B68196A7B685B6A0B431B4913434B60AF
:10246C001B4B01221A60FEF74BFF386108E0FEF7A8
:10247C0047FF02463B69D31A022B01D903233DE0E7
:10248C00114B1B6803F00073002BF0D035E0104BA0
:10249C0000221A60FEF734FF386108E0FEF730FFC7
:1024AC0002463B69D31A022B01D9032326E0064BC3
:1024BC001B6803F00073002BF0D11EE07B68DB6916
:1024CC00012B07D1012319E00010024000700040DD
:1024DC00600042420B4B5B68FB60FB6803F480328C
:1024EC007B681B6A9A4206D1FB6803F470127B6806
:1024FC005B6A9A4201D0012300E00023184618378A
:10250C00BD4680BD0010024080B584B000AF78603D
:10251C0039607B68002B01D10123D0E06A4B1B682A
:10252C0003F007033A689A4210D9674B1B6823F0F3
:10253C00070265493B6813430B60634B1B6803F050
:10254C0007033A689A4201D00123B8E07B681B6804
:10255C0003F00203002B20D07B681B6803F00403FC
:10256C00002B05D0594B5B68584A43F4E063536029
:10257C007B681B6803F00803002B05D0534B5B688A
:10258C00524A43F460535360504B5B6823F0F002A3
:10259C007B689B684D4913434B607B681B6803F059
:1025AC000103002B40D07B685B68012B07D1474BA4
:1025BC001B6803F40033002B15D101237FE07B68EB
:1025CC005B68022B07D1414B1B6803F00073002B97
:1025DC0009D1012373E03D4B1B6803F00203002B70
:1025EC0001D101236BE0394B5B6823F003027B685C
:1025FC005B68364913434B60FEF782FEF8600AE0D5
:10260C00FEF77EFE0246FB68D31A41F288329342F3
:10261C0001D9032353E02D4B5B6803F00C027B685C
:10262C005B689B009A42EBD1274B1B6803F00703B6
:10263C003A689A4210D2244B1B6823F007022249B5
:10264C003B6813430B60204B1B6803F007033A688D
:10265C009A4201D0012332E07B681B6803F004032B
:10266C00002B08D0194B5B6823F4E0627B68DB68B5
:10267C00164913434B607B681B6803F00803002B5F
:10268C0009D0124B5B6823F460527B681B69DB003A
:10269C000E4913434B6000F021F802460B4B5B686C
:1026AC001B0903F00F030A49CB5C22FA03F3094A16
:1026BC001360094B1B681846FEF7E0FD0023184613
:1026CC001037BD4680BD00BF002002400010024004
:1026DC00584A0008140000201800002090B48AB05A
:1026EC0000AF294B3C1D0FCB84E80F0040F20123B7
:1026FC003B800023FB610023BB6100237B62002332
:10270C007B6100233B62214B5B68FB61FB6903F03F
:10271C000C03042B02D0082B03D02BE01C4B3B6288
:10272C002BE0FB699B0C03F00F0328333B4413F89D
:10273C00243C7B61FB6903F48033002B12D0134BD8
:10274C005B685B0C03F0010328333B4413F8283C13
:10275C00BB617B690E4A03FB02F2BB69B2FBF3F36C
:10276C007B6204E07B690B4A02FB03F37B627B6AAE
:10277C003B6202E0064B3B6200BF3B6A18462837BF
:10278C00BD4690BC704700BF1C4A000800100240B8
:10279C0000127A0000093D0080B400AF024B1B68A8
:1027AC001846BD4680BC70471400002080B500AFB1
:1027BC00FFF7F2FF0246054B5B681B0A03F00703A9
:1027CC000349CB5C22FA03F3184680BD001002408B
:1027DC00684A000880B500AFFFF7DEFF0246054BE4
:1027EC005B68DB0A03F007030349CB5C22FA03F3B3
:1027FC00184680BD00100240684A000880B485B0BD
:10280C0000AF78600A4B1B680A4AA2FB03235B0AE1
:10281C007A6802FB03F3FB6000BFFB685A1EFA6088
:10282C00002BF9D100BF00BF1437BD4680BC7047E8
:10283C0014000020D34D621080B586B000AF7860D4
:10284C0000233B610023FB607B681B6803F00103E2
:10285C00002B7DD00023FB754F4BDB6903F08053BD
:10286C00002B0DD14C4BDB694B4A43F08053D361A9
:10287C00494BDB6903F08053BB60BB680123FB75DC
:10288C00464B1B6803F48073002B18D1434B1B6819
:10289C00424A43F480731360FEF732FD386108E05E
:1028AC00FEF72EFD02463B69D31A642B01D9032394
:1028BC006DE03A4B1B6803F48073002BF0D0364B61
:1028CC001B6A03F44073FB60FB68002B2ED07B6803
:1028DC005B6803F44073FA689A4227D02E4B1B6A4C
:1028EC0023F44073FB602E4B01221A602C4B002208
:1028FC001A60294AFB681362FB6803F00103002B82
:10290C0014D0FEF7FDFC38610AE0FEF7F9FC024634
:10291C003B69D31A41F28832934201D9032336E042
:10292C001D4B1B6A03F00203002BEED01A4B1B6AE3
:10293C0023F440727B685B68174913430B62FB7D81
:10294C00012B05D1144BDB69134A23F08053D3615F
:10295C007B681B6803F00203002B08D00E4B5B68EE
:10296C0023F440427B689B680B4913434B607B68A4
:10297C001B6803F01003002B08D0074B5B6823F493
:10298C0080027B68DB68044913434B6000231846C4
:10299C001837BD4680BD00BF0010024000700040DB
:1029AC004004424280B582B000AF78607B68002B57
:1029BC0001D1012341E07B6893F83D30DBB2002B61
:1029CC0006D17B68002283F83C207868FDF720FF55
:1029DC007B68022283F83D207B681A687B6804338D
:1029EC001946104600F06AFA7B68012283F84620EB
:1029FC007B68012283F83E207B68012283F83F200C
:102A0C007B68012283F840207B68012283F84120F7
:102A1C007B68012283F842207B68012283F84320E3
:102A2C007B68012283F844207B68012283F84520CF
:102A3C007B68012283F83D20002318460837BD46E9
:102A4C0080BD000080B485B000AF78607B6893F8DF
:102A5C003D30DBB2012B01D0012335E07B68022233
:102A6C0083F83D207B681B68DA687B681B6842F042
:102A7C000102DA607B681B68164A934209D07B68B6
:102A8C001B68B3F1804F04D07B681B68124A9342D9
:102A9C0011D17B681B689B6803F00703FB60FB6824
:102AAC00062B10D07B681B681A687B681B6842F089
:102ABC0001021A6007E07B681B681A687B681B6858
:102ACC0042F001021A60002318461437BD4680BC40
:102ADC00704700BF002C01400004004080B582B05C
:102AEC0000AF78607B681B681B6903F00203022B44
:102AFC0022D17B681B68DB6803F00203022B1BD11D
:102B0C007B681B686FF002021A617B6801221A77DE
:102B1C007B681B689B6903F00303002B03D0786868
:102B2C0000F0B1F905E0786800F0A4F9786800F0DD
:102B3C00B3F97B6800221A777B681B681B6903F06A
:102B4C000403042B22D17B681B68DB6803F00403AD
:102B5C00042B1BD17B681B686FF004021A617B6825
:102B6C0002221A777B681B689B6903F44073002B65
:102B7C0003D0786800F087F905E0786800F07AF9FE
:102B8C00786800F089F97B6800221A777B681B68EB
:102B9C001B6903F00803082B22D17B681B68DB68D8
:102BAC0003F00803082B1BD17B681B686FF008022D
:102BBC001A617B6804221A777B681B68DB6903F057
:102BCC000303002B03D0786800F05DF905E078680A
:102BDC0000F050F9786800F05FF97B6800221A77F2
:102BEC007B681B681B6903F01003102B22D17B68D8
:102BFC001B68DB6803F01003102B1BD17B681B6870
:102C0C006FF010021A617B6808221A777B681B68C8
:102C1C00DB6903F44073002B03D0786800F033F9C0
:102C2C0005E0786800F026F9786800F035F97B68E3
:102C3C0000221A777B681B681B6903F00103012BC8
:102C4C000ED17B681B68DB6803F00103012B07D1F5
:102C5C007B681B686FF001021A617868FDF7CCFB8A
:102C6C007B681B681B6903F08003802B0ED17B688B
:102C7C001B68DB6803F08003802B07D17B681B6823
:102C8C006FF080021A61786800F067FA7B681B6845
:102C9C001B6903F04003402B0ED17B681B68DB687B
:102CAC0003F04003402B07D17B681B686FF0400298
:102CBC001A61786800F0F9F87B681B681B6903F0EF
:102CCC002003202B0ED17B681B68DB6803F02003EC
:102CDC00202B07D17B681B686FF020021A61786883
:102CEC0000F032FA00BF0837BD4680BD80B584B015
:102CFC0000AF786039607B6893F83C30012B01D1D0
:102D0C000223B3E07B68012283F83C207B6802221B
:102D1C0083F83D207B681B689B68FB60FB6823F095
:102D2C007703FB60FB6823F47F43FB607B681B68C5
:102D3C00FA689A603B681B68B3F5005F3ED0B3F548
:102D4C00005F00F28780B3F5805F00F08580B3F5FB
:102D5C00805F7FD8702B1AD0702B7BD8602B50D013
:102D6C00602B77D8502B3CD0502B73D8402B58D09D
:102D7C00402B6FD8302B64D0302B6BD8202B60D0ED
:102D8C00202B67D8002B5CD0102B5AD062E07B68CC
:102D9C0018683B6899683B685A683B68DB6800F0C8
:102DAC005CF97B681B689B68FB60FB6843F07703EE
:102DBC00FB607B681B68FA689A604EE07B68186859
:102DCC003B6899683B685A683B68DB6800F045F9DA
:102DDC007B681B689A687B681B6842F480429A6027
:102DEC003BE07B6818683B6859683B68DB681A46AF
:102DFC0000F0BCF87B681B685021184600F013F9F2
:102E0C002BE07B6818683B6859683B68DB681A469E
:102E1C0000F0DAF87B681B686021184600F003F9B3
:102E2C001BE07B6818683B6859683B68DB681A468E
:102E3C0000F09CF87B681B684021184600F0F3F802
:102E4C000BE07B681A683B681B681946104600F05B
:102E5C00EAF802E000BF00E000BF7B68012283F8C3
:102E6C003D207B68002283F83C2000231846103755
:102E7C00BD4680BD80B483B000AF786000BF0C3716
:102E8C00BD4680BC704780B483B000AF786000BF93
:102E9C000C37BD4680BC704780B483B000AF7860FF
:102EAC0000BF0C37BD4680BC704780B483B000AF08
:102EBC00786000BF0C37BD4680BC704780B485B0CD
:102ECC0000AF786039607B681B68FB607B68254AC3
:102EDC00934207D07B68B3F1804F03D07B68224AC2
:102EEC00934208D1FB6823F07003FB603B685B687E
:102EFC00FA681343FB607B681A4A934207D07B68DD
:102F0C00B3F1804F03D07B68174A934208D1FB681A
:102F1C0023F44073FB603B68DB68FA681343FB6087
:102F2C00FB6823F080023B685B691343FB607B68A2
:102F3C00FA681A603B689A687B68DA623B681A68C0
:102F4C007B689A627B68074A934203D13B681A6993
:102F5C007B681A637B6801225A6100BF1437BD4637
:102F6C0080BC7047002C01400004004080B487B046
:102F7C0000AFF860B9607A60FB681B6A7B61FB6824
:102F8C001B6A23F00102FB681A62FB689B693B61B8
:102F9C003B6923F0F0033B617B681B013A691343E7
:102FAC003B617B6923F00A037B617A69BB6813433D
:102FBC007B61FB683A699A61FB687A691A6200BFA7
:102FCC001C37BD4680BC704780B487B000AFF8603A
:102FDC00B9607A60FB681B6A23F01002FB681A6206
:102FEC00FB689B697B61FB681B6A3B617B6923F413
:102FFC0070437B617B681B037A6913437B613B697C
:10300C0023F0A0033B61BB681B013A6913433B618E
:10301C00FB687A699A61FB683A691A6200BF1C37CF
:10302C00BD4680BC704780B485B000AF7860396015
:10303C007B689B68FB60FB6823F07003FB603A685D
:10304C00FB68134343F00703FB607B68FA689A60E4
:10305C0000BF1437BD4680BC704780B487B000AF4A
:10306C00F860B9607A603B60FB689B687B617B6948
:10307C0023F47F437B613B681A027B681A43BB686D
:10308C0013437A6913437B61FB687A699A6000BFCA
:10309C001C37BD4680BC704780B485B000AF7860EB
:1030AC0039607B6893F83C30012B01D1022341E05D
:1030BC007B68012283F83C207B68022283F83D2048
:1030CC007B681B685B68FB607B681B689B68BB60EC
:1030DC00FB6823F07003FB603B681B68FA681343C2
:1030EC00FB607B681B68FA685A607B681B68144A33
:1030FC00934209D07B681B68B3F1804F04D07B6886
:10310C001B68104A93420CD1BB6823F08003BB6050
:10311C003B685B68BA681343BB607B681B68BA6822
:10312C009A607B68012283F83D207B68002283F83B
:10313C003C20002318461437BD4680BC704700BFA6
:10314C00002C01400004004080B483B000AF7860D4
:10315C0000BF0C37BD4680BC704780B483B000AF55
:10316C00786000BF0C37BD4680BC704780B582B01C
:10317C0000AF78607B68002B01D101233FE07B68B6
:10318C0093F83D30DBB2002B06D17B68002283F82C
:10319C003C207868FDF760FB7B68242283F83D2097
:1031AC007B681B68DA687B681B6822F40052DA6063
:1031BC00786800F085FC7B681B681A697B681B6863
:1031CC0022F490421A617B681B685A697B681B6801
:1031DC0022F02A025A617B681B68DA687B681B68DC
:1031EC0042F40052DA607B6800221A647B68202269
:1031FC0083F83D207B68202283F83E20002318466C
:10320C000837BD4680BD80B58AB002AFF860B960A2
:10321C003B601346FB8000237B61FB6893F83D30D9
:10322C00DBB2202B7CD1BB68002B02D0FB88002B9F
:10323C0001D1012375E0FB6893F83C30012B01D1DF
:10324C0002236EE0FB68012283F83C20FB6800221D
:10325C001A64FB68212283F83D20FEF751F878614F
:10326C00FB68FA889A84FB68FA88DA84FB689B68A6
:10327C00B3F5805F08D1FB681B69002B04D10023D8
:10328C00FB61BB68BB6103E0BB68FB610023BB61F6
:10329C00FB68002283F83C202AE03B6800937B69A2
:1032AC0000228021F86800F038FA0346002B01D088
:1032BC00032336E0FB69002B0BD1BB691B881A4634
:1032CC00FB681B68C2F308025A60BB690233BB611E
:1032DC0007E0FB691A78FB681B685A60FB690133CD
:1032EC00FB61FB68DB8C9BB2013B9AB2FB68DA8416
:1032FC00FB68DB8C9BB2002BCFD13B6800937B69C6
:10330C0000224021F86800F008FA0346002B01D097
:10331C00032306E0FB68202283F83D20002300E015
:10332C00022318462037BD4680BD80B584B000AF5F
:10333C00F860B9601346FB80FB6893F83E30DBB253
:10334C00202B1DD1BB68002B02D0FB88002B01D198
:10335C00012316E0FB6893F83C30012B01D10223CA
:10336C000FE0FB68012283F83C20FB6800221A6303
:10337C00FB881A46B968F86800F019FA034600E0B1
:10338C00022318461037BD4680BD000080B58AB0B8
:10339C0000AF78607B681B681B687B627B681B686E
:1033AC00DB683B627B681B685B69FB610023BB616C
:1033BC0000237B617B6A03F00F03BB61BB69002BAD
:1033CC000DD17B6A03F02003002B08D03B6A03F07D
:1033DC002003002B03D0786800F0C9FA7BE1BB69AD
:1033EC00002B00F0B180FB6903F00103002B05D129
:1033FC003B6A03F49073002B00F0A6807B6A03F009
:10340C000103002B0AD03B6A03F48073002B05D018
:10341C007B681B6C43F001027B681A647B6A03F0C7
:10342C000403002B0AD0FB6903F00103002B05D029
:10343C007B681B6C43F002027B681A647B6A03F0A6
:10344C000203002B0AD0FB6903F00103002B05D00B
:10345C007B681B6C43F004027B681A647B6A03F084
:10346C000803002B0FD03B6A03F02003002B04D180
:10347C00FB6903F00103002B05D07B681B6C43F048
:10348C0008027B681A647B681B6C002B00F01E81A1
:10349C007B6A03F02003002B07D03B6A03F0200368
:1034AC00002B02D0786800F062FA7B681B685B69BD
:1034BC0003F04003002B14BF01230023DBB27B611C
:1034CC007B681B6C03F00803002B02D17B69002B7B
:1034DC0031D0786800F0A4F97B681B685B6903F055
:1034EC004003002B23D07B681B685A697B681B68E0
:1034FC0022F040025A617B689B6B002B13D07B68D7
:10350C009B6B764A5A637B689B6B1846FEF770FB85
:10351C000346002B16D07B689B6B5B6B7A68926BB7
:10352C00104698470EE0786800F0E3F80AE07868F7
:10353C0000F0DFF806E0786800F0DBF87B6800222A
:10354C001A64C3E000BFC1E07B681B6B012B40F029
:10355C00A1807B6A03F01003002B00F09B803B6A78
:10356C0003F01003002B00F095800023FB607B68B8
:10357C001B681B68FB607B681B685B68FB60FB68F7
:10358C007B681B685B6903F04003002B4ED07B68A3
:10359C009B6B1B685B683B823B8A002B00F098801E
:1035AC007B689B8D3A8A9A4280F092807B683A8A3B
:1035BC00DA857B689B6B9B69202B2BD07B681B6807
:1035CC00DA687B681B6822F48072DA607B681B689F
:1035DC005A697B681B6822F001025A617B681B6880
:1035EC005A697B681B6822F040025A617B68202272
:1035FC0083F83E207B6800221A637B681B68DA68BC
:10360C007B681B6822F01002DA607B689B6B1846A3
:10361C00FEF7B3FA7B689A8D7B68DB8D9BB2D31A6D
:10362C009BB21946786800F06DF851E07B689A8D72
:10363C007B68DB8D9BB2D31A7B827B68DB8D9BB264
:10364C00002B47D07B8A002B44D07B681B68DA6840
:10365C007B681B6822F49072DA607B681B685A697D
:10366C007B681B6822F001025A617B68202283F878
:10367C003E207B6800221A637B681B68DA687B68D3
:10368C001B6822F01002DA607B8A1946786800F019
:10369C0039F81FE07B6A03F08003002B08D03B6AEB
:1036AC0003F08003002B03D0786800F0F9F812E0E7
:1036BC007B6A03F04003002B0DD03B6A03F0400300
:1036CC00002B08D0786800F03AF904E000BF02E063
:1036DC0000BF00E000BF2837BD4680BD853800081C
:1036EC0080B483B000AF786000BF0C37BD4680BC9F
:1036FC00704780B483B000AF786000BF0C37BD4614
:10370C0080BC704780B483B000AF78600B467B8080
:10371C0000BF0C37BD4680BC704780B584B000AF8D
:10372C00F860B9603B601346FB712CE0BB69B3F1E8
:10373C00FF3F28D0BB69002B07D0FDF7E1FD024607
:10374C003B68D31ABA699A421DD2FB681B68DA68C7
:10375C00FB681B6822F4D072DA60FB681B685A693C
:10376C00FB681B6822F001025A61FB68202283F877
:10377C003D20FB68202283F83E20FB68002283F862
:10378C003C2003230FE0FB681B681A68BB681340DE
:10379C00BA689A420CBF01230023DBB21A46FB79AC
:1037AC009A42C3D0002318461037BD4680BD80B462
:1037BC0085B000AFF860B9601346FB80FB68BA684F
:1037CC009A62FB68FA889A85FB68FA88DA85FB6846
:1037DC0000221A64FB68222283F83E20FB68002238
:1037EC0083F83C20FB681B68DA68FB681B6842F4B2
:1037FC008072DA60FB681B685A69FB681B6842F0D0
:10380C0001025A61FB681B68DA68FB681B6842F0AE
:10381C002002DA60002318461437BD4680BC70477E
:10382C0080B483B000AF78607B681B68DA687B6813
:10383C001B6822F49072DA607B681B685A697B689B
:10384C001B6822F001025A617B681B6B012B07D1AC
:10385C007B681B68DA687B681B6822F01002DA60F0
:10386C007B68202283F83E207B6800221A6300BF0D
:10387C000C37BD4680BC704780B584B000AF786013
:10388C007B685B6AFB60FB680022DA85FB680022C0
:10389C00DA84F868FFF72DFF00BF1037BD4680BDF6
:1038AC0080B485B000AF78607B6893F83D30DBB2B4
:1038BC00212B3ED17B689B68B3F5805F14D17B686C
:1038CC001B69002B10D17B681B6AFB60FB681B8893
:1038DC001A467B681B68C2F308025A607B681B6A35
:1038EC009A1C7B681A6208E07B681B6A591C7A6810
:1038FC0011621A787B681B685A607B68DB8C9BB200
:10390C00013B9BB27A681946D184002B0FD17B689E
:10391C001B68DA687B681B6822F08002DA607B68BF
:10392C001B68DA687B681B6842F04002DA6000238F
:10393C0000E0022318461437BD4680BC704780B5A2
:10394C0082B000AF78607B681B68DA687B681B68A4
:10395C0022F04002DA607B68202283F83D207868F0
:10396C00FFF7BEFE002318460837BD4680BD80B564
:10397C0086B000AF78607B6893F83E30DBB2222BC8
:10398C0040F099807B689B68B3F5805F17D17B68AA
:10399C001B69002B13D100237B617B689B6A3B6105
:1039AC007B681B685B689BB2C3F308039AB23B69E4
:1039BC001A807B689B6A9A1C7B689A6226E07B68FB
:1039CC009B6A7B6100233B617B689B68B3F5805FDE
:1039DC0007D07B689B68002B0AD17B681B69002B86
:1039EC0006D17B681B685B68DAB27B691A7008E0E9
:1039FC007B681B685B68DBB203F07F03DAB27B6920
:103A0C001A707B689B6A5A1C7B689A627B68DB8D98
:103A1C009BB2013B9BB27A681946D185002B48D1E9
:103A2C007B681B68DA687B681B6822F02002DA600E
:103A3C007B681B68DA687B681B6822F48072DA602A
:103A4C007B681B685A697B681B6822F001025A610B
:103A5C007B68202283F83E207B681B6B012B23D1D3
:103A6C007B6800221A637B681B68DA687B681B68BA
:103A7C0022F01002DA607B681B681B6803F01003ED
:103A8C00102B0AD10023FB607B681B681B68FB6052
:103A9C007B681B685B68FB60FB687B689B8D1946C9
:103AAC007868FFF72FFE02E07868FCF7BDFC002376
:103ABC0002E0002300E0022318461837BD4680BD03
:103ACC0080B584B000AF78607B681B681B6923F4F9
:103ADC0040517B68DA687B681B680A431A617B6813
:103AEC009A687B681B691A437B685B691343BB60EC
:103AFC007B681B68DB6823F4B05323F00C037A68F3
:103B0C001268B9680B43D3607B681B685B6923F44C
:103B1C0040717B689A697B681B680A435A617B68B1
:103B2C001B682C4A934203D1FEF754FEF86002E066
:103B3C00FEF73CFEF860FA6813469B0013449A00AB
:103B4C001A447B685B689B00B2FBF3F3224AA2FB2E
:103B5C0003235B091901FA6813469B0013449A006E
:103B6C001A447B685B689B00B2FBF3F21A4BA3FB15
:103B7C0002035B09642000FB03F3D31A1B013233ED
:103B8C00154AA2FB03235B0903F0F0031944FA68FE
:103B9C0013469B0013449A001A447B685B689B0095
:103BAC00B2FBF3F20C4BA3FB02035B09642000FB9A
:103BBC0003F3D31A1B013233074AA2FB03235B091D
:103BCC0003F00F027B681B680A449A6000BF103731
:103BDC00BD4680BD003801401F85EB5108B500F093
:103BEC00B9F9704770470AB100F03CBA70470AB196
:103BFC0000F028BA1046704708B50B68B3F1804F37
:103C0C0002D30D4800F0C2F993420BD9B3EB420F2B
:103C1C004FEA420006D2B0F1804F2ABF6FF040430A
:103C2C0008600B600868013001D500F0A9F9BDE807
:103C3C00084000F094B900BF944A0008034653F8BA
:103C4C00080B984201D000F076B97047406801F13A
:103C5C0080410139091A914208B502D2184600F088
:103C6C0095F908BD03688B4206D840681844814218
:103C7C0094BF00200120704701207047012A10B426
:103C8C0003D10A7810BC0270704710BCFFF7ABBFB1
:103C9C00012A30B403D10B78037030BC7047002A72
:103CAC00FBD030BC00F0ECB908B5521AFFF7E6FFB8
:103CBC0008BD2DE9F3470A9E1F46436801EB020835
:103CCC00B21A1A44A3EB08090346019253F8082BC5
:103CDC000D469A420CBF0F22826801A90446FFF7D9
:103CEC008BFF82461DB12A462168FFF7C7FF37B10B
:103CFC002EB1324639460AEB0500FFF7BFFFB9F18A
:103D0C00000F07D0216835444A4641440AEB0500B0
:103D1C00FFF7B4FF2046FFF791FF019BC4F800A00A
:103D2C00A36002B0BDE8F08710B50446FFF786FF2C
:103D3C00204610BD0068084470470346F7B553F899
:103D4C00082B46689A420CBF0F238368751C9D4252
:103D5C0004460F4606D901230093002331461A4628
:103D6C00FFF7A7FF002223689F55236865605A550B
:103D7C0003B0F0BD10B50446FFF7DFFF204610BDC1
:103D8C002DE9F74F144680460C9D89462A461F465E
:103D9C002146384BFFF75AFF424652F8086BD8F8C9
:103DAC00043096420CBF0F22D8F80820A5EB040B68
:103DBC0003EB0B0A524551D34E443946A1444046BD
:103DCC00A3EB0909FFF74EFF80B1B9F1000F06D044
:103DDC00AC4204D04A4631197019FFF759FF15B39C
:103DEC002A4639463046FFF749FF1CE035B1AC4254
:103DFC003CD32A4639463046FFF74AFFB9F1000F4B
:103E0C0011D0AC420FD04A4631197019FFF740FF60
:103E1C00AC4208D234447B199C420FD32A46394613
:103E2C003046FFF735FF00224046D8F80030C8F87E
:103E3C0004A003F80A2003B0BDE8F08FBC4203D8FD
:103E4C002A4607EB0B01CDE7E41B224639463046E8
:103E5C00FFF71EFF2A1B71193019C4E73B46224697
:103E6C00494640460095FFF724FFDCE7B9F1000F07
:103E7C00D0D0C8E7AC4A000837B5044608460D4612
:103E8C00FCF75EF92B460090002120466268FFF794
:103E9C0077FF03B030BD08B5FFF7EEFF08BDF8B5EE
:103EAC004768054608460E46FCF74AF98742044621
:103EBC003A46314628BF02462868FFF798FE00B9FB
:103ECC00381BF8BD73B5044616460D4619B912B128
:103EDC000D4800F058F8731B0F2B019307D90022E3
:103EEC00204601A9FFF788FE019B2060A3603246A3
:103EFC0029462068FFF7D8FE0021019B22686360E9
:103F0C00D15402B070BD00BFC54A000838B500F1ED
:103F1C00080304460D46036059B10846FCF710F936
:103F2C002A1820464FF000032946FFF7CBFF204606
:103F3C0038BD0122F5E700F06FB808B5804700F0F6
:103F4C0031F80000024B1868BFF35B8F704700BF5D
:103F5C002000002008B5FFF7F5FFFFF7EEFF012862
:103F6C0038BF012010B50446204600F04DF830B99A
:103F7C0000F010F808B900F015F88047F4E710BD10
:103F8C0008B500F00FF808B500F00CF808B500F013
:103F9C0009F80000024B1868BFF35B8F704700BF35
:103FAC001C050020062008B500F0A0F90120FCF744
:103FBC00F8FC0000014B1868704700BF240000207B
:103FCC0070B500260C4D0D4C641BA410A64209D1F3
:103FDC0000F000FD00260A4D0A4C641BA410A642FA
:103FEC0005D170BD55F8043B98470136EEE755F8FE
:103FFC00043B98470136F2E7244B0008244B000899
:10400C00244B00082C4B0008024B0146186800F0AA
:10401C00C1B800BF24000020024B0146186800F014
:10402C0051B800BF24000020034610B5C9B20244A9
:10403C009342184601D1002003E0047801338C42EE
:10404C00F6D110BD10B501390244904201D10020C7
:10405C0005E0037811F8014FA34201D0181B10BDE5
:10406C000130F2E70A44914200F1FF3300D170476E
:10407C0010B511F8014B914203F8014FF9D110BD65
:10408C00884210B501EB020402D98442234607D8BA
:10409C00431EA14208D011F8012B03F8012FF8E7B9
:1040AC00014602448A4200D110BD13F8014D02F8BA
:1040BC00014DF7E703460244934200D1704703F8E1
:1040CC00011BF9E738B50546002940D051F8043CEE
:1040DC000C1F002BB8BFE41800F044F91C4A1368FD
:1040EC0033B9636014602846BDE8384000F040B92D
:1040FC00A34208D9206821188B4201BF19685B685C
:10410C0009182160EDE71A465B680BB1A342FAD996
:10411C0011685018A0420BD12068014450188342FA
:10412C001160E0D118685B68014411605360DAE7F4
:10413C0002D90C232B60D6E7206821188B4201BFD3
:10414C0019685B680918216063605460CBE738BD5F
:10415C002005002070B50E4E0C463168054611B98D
:10416C0000F08CF830602146284600F087F8431C9C
:10417C000AD0C41C24F00304A04207D0211A2846FC
:10418C0000F07CF8013001D14FF0FF34204670BDB7
:10419C00240500202DE9F041CD1C25F00305083540
:1041AC000C2D38BF0C25002D074601DBA94205D983
:1041BC000C2300263B603046BDE8F0812E4E00F00B
:1041CC00D1F833681C4634BB29463846FFF7C2FF8A
:1041DC00431C04464DD134682646002E40D123683A
:1041EC003146384604EB030800F048F880453AD1D4
:1041FC00216803356D1A25F0030508350C2D38BFE1
:10420C000C2538462946FFF7A5FF01302BD0236833
:10421C002B4423600EE02268521B1ED40B2A16D9A5
:10422C006119A342256018BF5960636808BF3160EB
:10423C0062514B60384604F10B0600F099F826F0F9
:10424C000706231DF21AB6D09B1BA350B3E7626876
:10425C00A3420CBF32605A60ECE723466468B2E7B5
:10426C0034467668B9E70C2338463B6000F080F89A
:10427C00A1E72560DEE700BF2005002038B500234C
:10428C00054D044608462B60FCF796FB431C02D1F7
:10429C002B6803B1236038BD280500201F2938B5D1
:1042AC0004460D4604D9162303604FF0FF3038BD89
:1042BC00426C12B152F821304BB9204600F030F864
:1042CC002A4601462046BDE8384000F017B8012BBD
:1042DC000AD0591C03D1162303600120E7E7002400
:1042EC00284642F8254098470020E0E7024B01465B
:1042FC001868FFF7D3BF00BF2400002038B5002397
:10430C00064D0446084611462B60FCF73AFB431C4D
:10431C0002D12B6803B1236038BD00BF28050020F3
:10432C00FCF728BB0EB46FF0004100B59CB01DAB80
:10433C0002900690079104910848094953F8042B00
:10434C000591006802A9019300F074F80022029B09
:10435C001A701CB05DF804EB03B070472400002009
:10436C000802FFFF014800F0FBBA00BF2C0500203B
:10437C00014800F0F6BA00BF2C0500202DE9F047EB
:10438C008E6882469E420C4690461F4638D88A89D3
:10439C0012F4906F32D0256809690133A5EB01093D
:1043AC0065694B4405EB450505EBD5756D109D42D4
:1043BC0038BF1D46530531D52946FFF7EBFE06469F
:1043CC0050B90C234FF0FF30CAF80030A38943F0EA
:1043DC004003A381BDE8F0874A462169FFF742FEFE
:1043EC00A38923F4906343F08003A38126614E4498
:1043FC0026603E466561A5EB0905A560BE4200D965
:10440C003E46324641462068FFF73AFEA36800203C
:10441C009B1BA360236833442360DBE72A4600F030
:10442C00A1FA06460028E1D150462169FFF74AFE61
:10443C00C7E700002DE9F04F98468B8907461B060D
:10444C000D4614469DB00ED50B6963B94021FFF79C
:10445C00A1FE2860286120B90C233B604FF0FF308F
:10446C00D1E040236B610023099320238DF8293080
:10447C0030234FF00109CDF80C80DFF8A4818DF8C2
:10448C002A3023469A4613F8012B0AB1252AF9D172
:10449C00BAEB040B0BD05B46224629463846FFF795
:1044AC006DFF013000F0AA80099A5A4409929AF8DB
:1044BC000030002B00F0A28000234FF0FF32CDE93A
:1044CC0005230AF1010A049307938DF853301A93CC
:1044DC005446052214F8011B5148FFF7A5FD049A18
:1044EC00D8B9D00644BF20238DF85330110744BFF0
:1044FC002B238DF853309AF800302A2B15D05446C4
:10450C0000204FF00A0C079A214611F8013B303B72
:10451C00092B4ED9B0B1079214E0A0EB080309FAAD
:10452C0003F31343A2460493D2E7039B191D1B68A4
:10453C000391002BBBBF5B4242F00202079307932F
:10454C00B8BF049223782E2B0CD163782A2B35D14B
:10455C00039B02341A1D1B680392002BB8BF4FF04B
:10456C00FF330593DFF8BCA0032250462178FFF7F8
:10457C005BFD40B14023A0EB0A0003FA00F0049B62
:10458C0001340343049314F8011B062226488DF8CA
:10459C002810FFF749FD002838D0244B1BBB039B88
:1045AC00073323F0070308330393099B3344099320
:1045BC0067E70C4601200CFB0232A5E700234FF005
:1045CC000A0C194601340593204610F8012B303A99
:1045DC00092A03D9002BC5D00591C3E70446012352
:1045EC000CFB0121F0E703AB00932A463846104B35
:1045FC0004A9AFF30080421C0646D6D1AB895B06FA
:10460C003FF52CAF09981DB0BDE8F08F03AB0093BC
:10461C002A463846064B04A900F07CF8EBE700BFAD
:10462C00EF4A0008F54A0008F94A000800000000AB
:10463C00894300082DE9F047164699468A680B69AC
:10464C0007469342B8BF1346336091F843200C469B
:10465C00DDF820800AB1013333602368990642BF2C
:10466C00336802333360256815F0060506D104F172
:10467C00190AE36832689B1AAB4228DC94F8432091
:10468C00131E226818BF012392062DD449463846C2
:10469C0004F14302C047013020D02368E56803F0E1
:1046AC000603042B18BF002532684FF00006A368E0
:1046BC0008BFAD1A226908BF25EAE5759342C4BF4D
:1046CC009B1AED181A34B5421AD1002008E00123C8
:1046DC00524649463846C047013003D14FF0FF30AF
:1046EC00BDE8F0870135C4E73020E11881F84300BC
:1046FC005A1C94F845102244023382F84310C5E743
:10470C000123224649463846C0470130E6D00136DF
:10471C00D9E700002DE9FF470F7E9146782F8046A0
:10472C000C469A460C9D01F1430207D8622F0AD819
:10473C00002F00F0D980582F00F0A48004F142051E
:10474C0084F842703AE0A7F16303152BF6D801A167
:10475C0051F823F0B9470008CD4700084947000835
:10476C00494700084947000849470008CD47000859
:10477C0049470008494700084947000849470008CD
:10478C00DB480008FD470008BD4800084947000801
:10479C0049470008FD48000849470008FD47000844
:1047AC004947000849470008C54800082B681A1DEE
:1047BC001B682A6004F1420584F842300123A4E00E
:1047CC0020682968060601F104030AD50E682B60DF
:1047DC00002E03DA2D23764284F843300A235E48F8
:1047EC0019E00E6810F0400F2B6018BF36B2EFE7DF
:1047FC002B682068191D2960010601D51E6802E08E
:10480C004606FBD51E886F2F0CBF08230A2352487F
:10481C00002184F843106568002DA8BF2168A560AD
:10482C00A4BF21F0040121600EB9002D4DD0154616
:10483C00B6FBF3F103FB1167C75D05F8017D374645
:10484C00BB420E46F4D9082B0BD12368DE0708D5E2
:10485C00236961689942DEBF302305F8013C05F1FC
:10486C00FF35521B22614B4621464046CDF800A035
:10487C0003AAFFF7DFFE01304CD14FF0FF3004B03C
:10488C00BDE8F087344881F845702968236851F8F1
:10489C00046B29601D0614D5DF0744BF43F02003C9
:1048AC0023601EB9236823F0200323601023AFE795
:1048BC00236843F0200323607823284884F845308C
:1048CC00E3E7590648BFB6B2E6E71546BBE72B68E7
:1048DC002668181D6169286035061B6801D51960AA
:1048EC0002E07006FBD51980002315462361BAE758
:1048FC002B6800211A1D2A601D6862682846FFF784
:10490C0093FB08B1401B606063682361002384F84B
:10491C004330A8E72A46494640462369D047013030
:10492C00ABD023689B0713D4E068039B9842B8BFB5
:10493C001846A4E70123324649464046D047013089
:10494C009BD00135E36803995B1AAB42F2DCEBE7D1
:10495C00002504F11906F5E7004B0008114B00087F
:10496C00704770472DE9F041804614460E4621B938
:10497C001146BDE8F041FFF70DBC2AB9FFF7A2FBC9
:10498C0025462846BDE8F08100F01BF88442074616
:10499C0002D8B4EB500F12D821464046FFF7FAFB71
:1049AC0005460028EDD0BC422246314628BF3A4687
:1049BC00FFF758FB31464046FFF784FBE1E73546ED
:1049CC00DFE751F8043C181F002BBCBF0B58C01874
:1049DC0070470000F8B500BFF8BC08BC9E46704795
:0C49EC00F8B500BFF8BC08BC9E46704740
:1049F8000000000000000000215253542300000072
:104A0800214F4B2300000000214144433D256C64A5
:104A1800230D0A0002030405060708090A0B0C0DFA
:104A28000E0F10100000000000000000B501000883
:104A3800E50100080000000000000000E93B000854
:104A4800E93B00080000000000000000E93B000806
:104A58000000000000000000010203040607080926
:104A68000000000001020304000000000000000034
:104A7800290D0008000000000000000031100008A7
:104A88000000000000000000FD100008626173696A
:104A9800635F737472696E673A3A5F4D5F637265FC
:104AA8006174650062617369635F737472696E67CC
:104AB8003A3A5F4D5F7265706C616365006261735D
:104AC80069635F737472696E673A3A5F4D5F636FCB
:104AD8006E737472756374206E756C6C206E6F746F
:104AE8002076616C696400232D302B2000686C4CA3
:104AF800006566674546470030313233343536370E
:104B08003839414243444546003031323334353632
:0C4B180037383961626364656600000094
:084B24003101000881030008C3
:084B2C000D01000891030008CF
:104B3400844A000800000000904A000802000000B7
:104B4400000000000024F400100000000100000038
:104B5400B13F000828000020000000000000000011
:104B64000000000000000000000000000000000041
:104B74000000000000000000000000000000000031
:104B84000000000000000000000000000000000021
:104B94000000000000000000000000000000000011
:104BA4000000000000000000000000000000000001
:084BB4000000000000000000F9
:0400000508001211CC
:00000001FF
