:020000040800F2
:1000000000280020C5030008690300086F030008EA
:10001000750300087B03000881030008000000004E
:10002000000000000000000000000000870300083E
:1000300093030008000000009F030008AB030008C2
:100040000D0400080D0400080D0400080D0400084C
:100050000D0400080D0400080D0400080D0400083C
:100060000D0400080D0400080D0400080D0400082C
:100070000D0400080D0400080D0400080D0400081C
:100080000D0400080D0400080D0400080D0400080C
:100090000D0400080D0400080D0400080D040008FC
:1000A0000D0400080D0400080D0400080D040008EC
:1000B0000D0400080D040008000000000D040008F5
:1000C0000D04000800000000000000000D040008FE
:1000D000000000000D0400080D04000800000000EE
:1000E0000D0400080D0400080D04000800000000C5
:1000F0000000000000000000000000000000000000
:0C01000000000000000000005FF808F1A3
:10010C0010B5054C237833B9044B13B10448AFF345
:10011C0000800123237010BD0C00002000000000A3
:10012C00540A000808B5034B1BB103490348AFF34D
:10013C00008008BD0000000010000020540A0008D8
:10014C0080B582B000AF0346FB71FB79002B04D164
:10015C0000222021074800F03BFCFB79012B04D145
:10016C0001222021034800F033FC00BF0837BD46B4
:10017C0080BD00BF0008014080B582B000AF0346CF
:10018C00FB71FB79002B04D100224021074800F0C1
:10019C001FFCFB79012B04D101224021034800F004
:1001AC0017FC00BF0837BD4680BD00BF00080140EA
:1001BC0080B582B000AF0346FB71FB79002B04D1F4
:1001CC0000228021074800F003FCFB79012B04D1AD
:1001DC0001228021034800F0FBFB00BF0837BD461D
:1001EC0080BD00BF0008014080B584B000AF00F0B6
:1001FC0009F900F05FF80123FB730023BB730023A4
:10020C00BB60BB68002B49D1FB7B002B0ED10123BB
:10021C00FB710023BB730223BB600120FFF790FF2F
:10022C000020FFF7A9FF0120FFF7C2FFFB7B022B89
:10023C000ED10123FB710223BB730223BB6001208F
:10024C00FFF7B6FF0020FFF797FF0120FFF778FFBD
:10025C00FB7B012B1FD1BB7B002B0CD10223FB7131
:10026C000323BB600120FFF787FF0020FFF7A0FFEF
:10027C000120FFF765FFBB7B022B0CD10023FB7128
:10028C000523BB600120FFF777FF0020FFF758FF25
:10029C000120FFF78DFFFB79FB7309E0BB68002B96
:1002AC0002DDBB68013BBB604FF47A7000F00CF9C7
:1002BC00A7E7000080B586B000AF07F10803002265
:1002CC001A605A609A60DA60114B9B69104A43F0CD
:1002DC00040393610E4B9B6903F004037B607B6802
:1002EC000022E0210B4800F073FBE023BB600123EC
:1002FC00FB6000233B6102237B6107F10803194675
:10030C00044800F0E9F900BF1837BD4680BD00BFB6
:10031C00001002400008014080B483B000AF0E4BC7
:10032C009B690D4A43F0010393610B4B9B6903F0EE
:10033C0001037B607B68084BDB69074A43F0805301
:10034C00D361054BDB6903F080533B603B6800BF16
:10035C000C37BD4680BC70470010024080B400AF23
:10036C00FEE780B400AFFEE780B400AFFEE780B4D8
:10037C0000AFFEE780B400AFFEE780B400AF00BF73
:10038C00BD4680BC704780B400AF00BFBD4680BC8A
:10039C00704780B400AF00BFBD4680BC704780B5CD
:1003AC0000AF00F075F800BF80BD80B400AF00BF97
:1003BC00BD4680BC704700000C480D490D4A002317
:1003CC0002E0D458C4500433C4188C42F9D30A4AFE
:1003DC000A4C002301E013600432A242FBD3FFF766
:1003EC00E4FF00F00DFBFFF7FFFE7047000000205C
:1003FC000C000020740A00080C0000202C000020C7
:10040C00FEE7000080B500AF084B1B68074A43F0BD
:10041C0010031360032000F02BF90F2000F008F8F4
:10042C00FFF77AFF0023184680BD00BF0020024072
:10043C0080B582B000AF7860124B1A68124B1B78F3
:10044C0019464FF47A73B3FBF1F3B2FBF3F318468E
:10045C0000F035F90346002B01D001230EE07B6838
:10046C000F2B0AD8002279684FF0FF3000F00BF9FF
:10047C00064A7B681360002300E001231846083706
:10048C00BD4680BD000000200800002004000020B4
:10049C0080B400AF054B1B781A46054B1B68134400
:1004AC00034A136000BFBD4680BC704708000020A3
:1004BC002800002080B400AF024B1B681846BD46D4
:1004CC0080BC70472800002080B584B000AF7860F5
:1004DC00FFF7F0FFB8607B68FB60FB68B3F1FF3F90
:1004EC0005D00A4B1B781A46FB681344FB6000BF0F
:1004FC00FFF7E0FF0246BB68D31AFA689A42F7D8B6
:10050C0000BF00BF1037BD4680BD00BF08000020F3
:10051C0080B485B000AF78607B6803F00703FB60A4
:10052C000C4BDB68BB60BA684FF6FF031340BB6033
:10053C00FB681A02BB68134343F0BF6343F40033F8
:10054C00BB60044ABB68D36000BF1437BD4680BC97
:10055C00704700BF00ED00E080B400AF044BDB68D7
:10056C001B0A03F007031846BD4680BC704700BF4A
:10057C0000ED00E080B483B000AF03463960FB713E
:10058C0097F90730002B0ADB3B68DAB20C4997F974
:10059C0007301201D2B20B4483F800230AE03B6807
:1005AC00DAB20849FB7903F00F03043B1201D2B213
:1005BC000B441A7600BF0C37BD4680BC704700BF99
:1005CC0000E100E000ED00E080B489B000AFF8601D
:1005DC00B9607A60FB6803F00703FB61FB69C3F148
:1005EC000703042B28BF0423BB61FB690433062BD0
:1005FC0002D9FB69033B00E000237B614FF0FF3223
:10060C00BB6902FA03F3DA43BB681A407B699A4070
:10061C004FF0FF317B6901FA03F3D9437B680B4040
:10062C00134318462437BD4680BC704780B582B052
:10063C0000AF78607B68013BB3F1807F01D301236D
:10064C000FE00A4A7B68013B53600F214FF0FF30EB
:10065C00FFF790FF054B00229A60044B07221A60AB
:10066C00002318460837BD4680BD00BF10E000E0EF
:10067C0080B582B000AF78607868FFF749FF00BFA3
:10068C000837BD4680BD80B586B000AF0346B96063
:10069C007A60FB7300237B61FFF75EFF78617A68F9
:1006AC00B9687869FFF790FF024697F90F30114649
:1006BC001846FFF75FFF00BF1837BD4680BD80B5F9
:1006CC0082B000AF78607868FFF7B0FF0346184639
:1006DC000837BD4680BD000080B48BB000AF786099
:1006EC00396000237B6200233B6261E101227B6A5B
:1006FC0002FA03F3FB613B681B68FA691340BB61A8
:10070C00BA69FB699A4240F050813B685B68974A32
:10071C0093425ED0954A934275D8954A934258D0ED
:10072C00934A93426FD8934A934252D0914A934240
:10073C0069D8914A93424CD08F4A934263D88F4ADE
:10074C00934246D08D4A93425DD8122B2AD8122B55
:10075C0059D801A252F823F0DF070008B9070008A6
:10076C00CB0700080D080008130800081308000840
:10077C0013080008130800081308000813080008E1
:10078C0013080008130800081308000813080008D1
:10079C00130800081308000813080008C107000814
:1007AC00D5070008764A934213D02CE03B68DB68EF
:1007BC003B6229E03B68DB6804333B6224E03B6826
:1007CC00DB6808333B621FE03B68DB680C333B6241
:1007DC001AE03B689B68002B02D104233B6213E0B8
:1007EC003B689B68012B05D108233B627B68FA6947
:1007FC001A6109E008233B627B68FA695A6103E0DD
:10080C0000233B6200E000BFBB69FF2B01D87B6873
:10081C0001E07B6804337B61BB69FF2B02D87B6AE8
:10082C009B0002E07B6A083B9B003B617B691A687A
:10083C000F213B6901FA03F3DB431A40396A3B6928
:10084C0001FA03F31A437B691A603B685B6803F097
:10085C008053002B00F0A9804A4B9B69494A43F016
:10086C0001039361474B9B6903F00103BB60BB68B9
:10087C00454A7B6A9B08023352F82330FB607B6A43
:10088C0003F003039B000F2202FA03F3DB43FA6825
:10089C001340FB607B683D4A93420DD07B683C4A19
:1008AC00934207D07B683B4A934201D1022304E078
:1008BC00032302E0012300E000237A6A02F0030222
:1008CC0092009340FA681343FB602F497B6A9B08A4
:1008DC000233FA6841F823203B685B6803F48033E9
:1008EC00002B06D02C4B1A682B49BB6913430B60A9
:1008FC0006E0294B1A68BB69DB43274913400B60A0
:10090C003B685B6803F40033002B06D0224B5A681B
:10091C002149BB6913434B6006E01F4B5A68BB6906
:10092C00DB431D4913404B603B685B6803F4801349
:10093C00002B06D0184B9A681749BB6913438B6080
:10094C0006E0154B9A68BB69DB43134913408B6077
:10095C003B685B6803F40013002B1FD00E4BDA6866
:10096C000D49BB691343CB601FE000BF0000321080
:10097C0000003110000022100000211000001210A5
:10098C00000011100010024000000140000801405E
:10099C00000C014000100140000401400B4BDA68D0
:1009AC00BB69DB4309491340CB607B6A01337B6233
:1009BC003B681A687B6A22FA03F3002B7FF496AE2D
:1009CC0000BF00BF2C37BD4680BC704700040140FF
:1009DC0080B483B000AF78600B467B8013467B708D
:1009EC007B78002B03D07A887B681A6103E07B88C4
:1009FC001A047B681A6100BF0C37BD4680BC704777
:100A0C0070B500260C4D0D4C641BA410A64209D1E8
:100A1C0000F01AF800260A4D0A4C641BA410A642DA
:100A2C0005D170BD55F8043B98470136EEE755F8F3
:100A3C00043B98470136F2E76C0A00086C0A000880
:100A4C006C0A0008700A0008F8B500BFF8BC08BCB6
:100A5C009E467047F8B500BFF8BC08BC9E46704770
:040A6C00310100084C
:040A70000D0100086C
:0C0A74000024F40010000000010000004D
:04000005080003C527
:00000001FF
