:020000040800F2
:1000000000280020C1130008AD0D0008B30D000842
:10001000B90D0008BF0D0008C50D00080000000064
:10002000000000000000000000000000CB0D0008F0
:10003000D70D000800000000E30D0008EF0D0008D8
:10004000091400080914000809140008091400081C
:10005000091400080914000809140008091400080C
:1000600009140008091400080914000809140008FC
:1000700009140008091400080914000809140008EC
:1000800009140008091400080914000809140008DC
:1000900009140008091400080914000809140008CC
:1000A00009140008091400080914000809140008BC
:1000B000FD0D0008091400080000000009140008E4
:1000C00009140008000000000000000009140008E6
:1000D00000000000091400080914000800000000D6
:1000E00009140008091400080914000800000000A1
:1000F0000000000000000000000000000000000000
:0C01000000000000000000005FF808F1A3
:10010C0010B5054C237833B9044B13B10448AFF345
:10011C0000800123237010BDA0000020000000000F
:10012C00002B000808B5034B1BB103490348AFF380
:10013C00008008BD00000000A4000020002B000877
:10014C0080B483B000AF7860044A7B681A607B6827
:10015C0018460C37BD4680BC704700BF502B0008BA
:10016C0080B582B000AF786039607B681846FFF7C5
:10017C00E7FF084A7B681A607B6800225A607B683C
:10018C0000221A727B683A685A607B6818460837F6
:10019C00BD4680BD402B000880B582B000AF7860B2
:1001AC007B685B68184600F000FF0346002B04D008
:1001BC007B685B68184600F016FF7B6801221A7298
:1001CC0000BF0837BD4680BD80B582B000AF7860F7
:1001DC007B685B68184600F0E8FE034683F0010379
:1001EC00DBB2002B04D07B685B68184600F0E8FE9D
:1001FC007B6800221A7200BF0837BD4680BD000024
:10020C0080B586B000AFF860B9607A60FB681846BC
:10021C00FFF796FF114AFB681A60FB6800225A60D0
:10022C00FB6800225A6200237B617B69062B0DDC84
:10023C007B699B00BA6813441968FB687A690232BF
:10024C0043F822107B6901337B61EEE7FB687A6827
:10025C005A60FB6818461837BD4680BD602B0008F5
:10026C0080B582B000AF78607B685B68184600F0A0
:10027C00A7FE00BF0837BD4680BD80B582B000AF79
:10028C0078607B685B68184600F0ADFE00BF0837ED
:10029C00BD4680BD80B584B000AF78607B685B687C
:1002AC00184600F082FE034683F00103DBB2002BFC
:1002BC0017D00023FB60FB68062B12DC7B68FA6806
:1002CC00023253F822107B68FA68023253F822305B
:1002DC001B6804331B6808469847FB680133FB60B6
:1002EC00E9E700BF1037BD4680BD000080B582B085
:1002FC0000AF786039607B685B68184600F055FE8B
:10030C00034683F00103DBB2002B00F067823B68ED
:10031C00092B00F2628201A252F823F0510300086B
:10032C00C503000841040008B70400082D050008A7
:10033C00A50500081B0600088F0600080107000829
:10034C00730700087B689A687B689B681B681B684E
:10035C00104698477B68DA687B68DB681B681B680B
:10036C00104698477B681A697B681B691B681B6879
:10037C00104698477B685A697B685B691B681B68E9
:10038C00104698477B689A697B689B691B681B6859
:10039C00104698477B68DA697B68DB691B681B68C9
:1003AC00104698477B681A6A7B681B6A1B68043383
:1003BC001B681046984711E27B689A687B689B68BB
:1003CC001B6804331B68104698477B68DA687B68A7
:1003DC00DB681B681B68104698477B681A697B684A
:1003EC001B691B681B68104698477B685A697B68B9
:1003FC005B691B6804331B68104698477B689A69D5
:10040C007B689B691B6804331B68104698477B68A4
:10041C00DA697B68DB691B6804331B6810469847F4
:10042C007B681A6A7B681B6A1B6804331B6810465E
:10043C009847D3E17B689A687B689B681B681B684C
:10044C00104698477B68DA687B68DB681B681B681A
:10045C00104698477B681A697B681B691B680433D4
:10046C001B68104698477B685A697B685B691B68F8
:10047C001B68104698477B689A697B689B691B6868
:10048C001B68104698477B68DA697B68DB691B68D8
:10049C0004331B68104698477B681A6A7B681B6A92
:1004AC001B681B681046984798E17B689A687B68C4
:1004BC009B681B681B68104698477B68DA687B68EA
:1004CC00DB681B681B68104698477B681A697B6859
:1004DC001B691B681B68104698477B685A697B68C8
:1004EC005B691B681B68104698477B689A697B6838
:1004FC009B691B6804331B68104698477B68DA6954
:10050C007B68DB691B6804331B68104698477B6863
:10051C001A6A7B681B6A1B681B68104698475DE16A
:10052C007B689A687B689B681B6804331B68104661
:10053C0098477B68DA687B68DB681B681B68104629
:10054C0098477B681A697B681B691B681B68104697
:10055C0098477B685A697B685B691B6804331B6826
:10056C00104698477B689A697B689B691B680433C3
:10057C001B68104698477B68DA697B68DB691B68E7
:10058C001B68104698477B681A6A7B681B6A1B6855
:10059C001B681046984721E17B689A687B689B68CA
:1005AC001B681B68104698477B68DA687B68DB68B9
:1005BC001B6804331B68104698477B681A697B6874
:1005CC001B691B681B68104698477B685A697B68D7
:1005DC005B691B681B68104698477B689A697B6847
:1005EC009B691B6804331B68104698477B68DA6963
:1005FC007B68DB691B681B68104698477B681A6A26
:10060C007B681B6A1B681B6810469847E6E07B6892
:10061C009A687B689B681B681B68104698477B68C8
:10062C00DA687B68DB681B6804331B6810469847E4
:10063C007B681A697B681B691B681B6810469847A6
:10064C007B685A697B685B691B681B681046984716
:10065C007B689A697B689B691B681B681046984786
:10066C007B68DA697B68DB691B681B6810469847F6
:10067C007B681A6A7B681B6A1B681B681046984764
:10068C00ACE07B689A687B689B681B681B681046AB
:10069C0098477B68DA687B68DB681B681B681046C8
:1006AC0098477B681A697B681B691B681B68104636
:1006BC0098477B685A697B685B691B681B681046A6
:1006CC0098477B689A697B689B691B681B68104616
:1006DC0098477B68DA697B68DB691B681B68104686
:1006EC0098477B681A6A7B681B6A1B681B681046F4
:1006FC00984773E07B689A687B689B681B681B68EB
:10070C00104698477B68DA687B68DB681B681B6857
:10071C00104698477B681A697B681B691B681B68C5
:10072C00104698477B685A697B685B691B681B6835
:10073C00104698477B689A697B689B691B681B68A5
:10074C00104698477B68DA697B68DB691B681B6815
:10075C00104698477B681A6A7B681B6A1B681B6883
:10076C00104698473AE07B689A687B689B681B68E0
:10077C001B68104698477B68DA687B68DB681B68E7
:10078C001B68104698477B681A697B681B691B6855
:10079C001B68104698477B685A697B685B691B68C5
:1007AC001B68104698477B689A697B689B691B6835
:1007BC0004331B68104698477B68DA697B68DB69F1
:1007CC001B681B68104698477B681A6A7B681B6A13
:1007DC001B681B681046984700E000BF00BF083735
:1007EC00BD4680BD90B482B000AF786039607B6844
:1007FC000D4A1C4613460FCB84E80F007B68002281
:10080C001A747B6800225A747B6800225A617B68D8
:10081C0040F6B8329A617B683A685A617B68184630
:10082C000837BD4690BC7047182B000880B582B0C5
:10083C0000AF78607B685A687B689A607B681A683E
:10084C007B685A607B685B69184600F088FB03463E
:10085C001A467B681A607B681A687B685B689A42E8
:10086C002FD17B685A687B689B689A4229D17B6838
:10087C009A687B68DB689A4213D07B689A687B68BD
:10088C00DA607B68DB68002B07D17B684FF49672CB
:10089C009A617B6801221A7413E07B6800225A74F7
:1008AC000FE07B68DB68002B0BD17B689B695A1EC1
:1008BC007B689A617B689B69002B02D17B68012263
:1008CC005A7400BF0837BD4680BD80B483B000AFFA
:1008DC0078607B681B7C002B04D07B6800221A7428
:1008EC00012300E0002318460C37BD4680BC70473E
:1008FC0080B483B000AF78607B685B7C18460C37A3
:10090C00BD4680BC7047000080B582B000AF7860F7
:10091C0039607B68012B7FD13B684FF6FF729342A5
:10092C007AD102223E493F4800F02AFB20223C4962
:10093C003D4800F025FB402239493C4800F020FBA3
:10094C00802237493A4800F01BFB4FF4807234493F
:10095C00384800F015FB4FF400723149364800F06E
:10096C000FFB4FF480622E49344800F009FB4FF422
:10097C0000622B49324800F003FB4FF480522849A7
:10098C00304800F0FDFA042225492F4800F0D1FA36
:10099C00082223492D4800F0CCFA102220492C487B
:1009AC0000F0C7FA1F492B48FFF7DAFB1F492A480A
:1009BC00FFF7D6FB1E492948FFF7D2FB1D492848F3
:1009CC00FFF7CEFB1C492748FFF7CAFB1B492648FB
:1009DC00FFF7C6FB1A492548FFF7C2FB1949244803
:1009EC00FFF7BEFB104A23492348FFF709FC1649C1
:1009FC002248FFF7F7FE15492148FFF7F3FE14498B
:100A0C002048FFF7EFFE204800F023FA1F4800F0C3
:100A1C0020FA1F4800F01DFA00BF0837BD4680BD04
:100A2C0000080140BC000020C4000020CC000020C5
:100A3C00D4000020DC000020E4000020EC000020AA
:100A4C00F4000020FC000020040100200C01002018
:100A5C00140100201C01002028010020340100207A
:100A6C00400100204C0100205801002064010020AE
:100A7C0070010020000000207C010020A401002057
:100A8C00C0010020DC010020F8010020040200203D
:100A9C001002002080B500AF4FF6FF710120FFF768
:100AAC0033FF80BD80B500AF00F0AAFC00F03AF82F
:100ABC0000F07EF800F0D8F8044801F0F5FB04488B
:100ACC0000F02AFC034800F0D7FAF8E71C020020DB
:100ADC00240000201C00002080B582B000AF78609C
:100AEC000A48FFF7A3FE0A48FFF7A0FE0948FFF7E4
:100AFC009DFE094800F002FA084800F0FFF908488A
:100B0C0000F0FCF900BF0837BD4680BDA4010020F1
:100B1C00C0010020DC010020F801002004020020AC
:100B2C001002002080B590B000AF07F11803282206
:100B3C000021184601F092FF3B1D00221A605A60FA
:100B4C009A60DA601A610223BB610123BB62102335
:100B5C00FB6200237B6307F11803184600F06CFF5F
:100B6C000346002B14BF01230023DBB2002B01D062
:100B7C0000F0BAF80F237B600023BB600023FB60FE
:100B8C0000233B6100237B613B1D0021184601F0D3
:100B9C00D5F90346002B14BF01230023DBB2002B35
:100BAC0001D000F0A1F800BF4037BD4680BD000069
:100BBC0080B586B000AF07F1080300221A605A60B6
:100BCC009A60DA603B4600221A605A60254B4FF05F
:100BDC0080421A60234B41F63F725A60214B00222F
:100BEC009A60204B0922DA601E4B00221A611D4BC1
:100BFC0000229A611B4801F007FB0346002B14BF2F
:100C0C0001230023DBB2002B01D000F06DF84FF470
:100C1C008053BB6007F108031946124801F098FC99
:100C2C000346002B14BF01230023DBB2002B01D0A1
:100C3C0000F05AF800233B6000237B603B461946CA
:100C4C00084801F05BFE0346002B14BF0123002370
:100C5C00DBB2002B01D000F047F800BF1837BD46BF
:100C6C0080BD00BF1C02002080B586B000AF07F12C
:100C7C00080300221A605A609A60DA60184B9B696C
:100C8C00174A43F004039361154B9B6903F004036B
:100C9C007B607B68002241F6E271124800F0B3FEE3
:100CAC0041F6E273BB600123FB6000233B6102232E
:100CBC007B6107F1080319460A4800F011FD1C235B
:100CCC00BB600023FB6000233B6107F1080319465E
:100CDC00044800F005FD00BF1837BD4680BD00BFBD
:100CEC00001002400008014080B400AF72B600BF93
:100CFC00FEE7000080B485B000AF154B9B69144A29
:100D0C0043F001039361124B9B6903F00103BB6039
:100D1C00BB680F4BDB690E4A43F08053D3610C4B1D
:100D2C00DB6903F080537B607B680A4B5B68FB607C
:100D3C00FB6823F0E063FB60FB6843F00073FB602F
:100D4C00044AFB68536000BF1437BD4680BC704733
:100D5C00001002400000014080B584B000AF786004
:100D6C007B681B68B3F1804F13D10C4BDB690B4ACA
:100D7C0043F00103D361094BDB6903F00103FB6012
:100D8C00FB68002200211C2000F073FC1C2000F0EA
:100D9C008CFC00BF1037BD4680BD00BF0010024068
:100DAC0080B400AFFEE780B400AFFEE780B400AFC4
:100DBC00FEE780B400AFFEE780B400AFFEE780B47E
:100DCC0000AF00BFBD4680BC704780B400AF00BF11
:100DDC00BD4680BC704780B400AF00BFBD4680BC30
:100DEC00704780B500AF00F051FB00BF80BD000024
:100DFC0080B500AF024801F0A3FA00BF80BD00BF70
:100E0C001C02002080B400AF01231846BD4680BCF4
:100E1C00704780B582B000AF7860396001F0F4FDA6
:100E2C00034616221A604FF0FF3318460837BD46AA
:100E3C0080BD80B582B000AF78604FF0FF3178682C
:100E4C00FFF7E7FFFEE780B400AF00BFBD4680BCF4
:100E5C00704780B483B000AF78607B6800221A7052
:100E6C007B6800225A607B6800229A607B68184677
:100E7C000C37BD4680BC704780B483B000AF78603F
:100E8C007B681B78002B04D07B6800221A7001232E
:100E9C0000E0002318460C37BD4680BC704780B478
:100EAC0083B000AF78607B685A687B689A6000BF3B
:100EBC000C37BD4680BC704780B582B000AF7860FF
:100ECC007868FFF7ECFF00BF0837BD4680BD000017
:100EDC0080B483B000AF786039603B68064A82FB0F
:100EEC0003129210DB17D21A7B685A6000BF0C37C2
:100EFC00BD4680BC704700BF6766666680B582B031
:100F0C0000AF78607B689B68002B0EDD7B689B686C
:100F1C005A1E7B689A607B689B68002B05D17B68A6
:100F2C0001221A707868FFF7BAFF00BF0837BD4678
:100F3C0080BD80B584B000AFF860B9601346FB800B
:100F4C00FB68184600F062F8FB68BA681A60FB6828
:100F5C00FA889A80FB6818461037BD4680BD80B56C
:100F6C0082B000AF78607B681A687B689B881946F2
:100F7C00104600F031FD034618460837BD4680BDCB
:100F8C0080B584B000AFF860B9601346FB80FB6895
:100F9C00FA88B968184600F043F8FB6800229A7189
:100FAC00FB6818461037BD4680BD80B483B000AFD7
:100FBC0078607B689B7918460C37BD4680BC7047BF
:100FCC0080B582B000AF78607B6818687B689B88BE
:100FDC000122194600F017FD7B6801229A7100BFAF
:100FEC000837BD4680BD80B582B000AF78607B68A5
:100FFC0018687B689B880022194600F004FD7B680A
:10100C0000229A7100BF0837BD4680BD80B483B002
:10101C0000AF78607B6818460C37BD4680BC7047C3
:10102C0080B485B000AFF860B9601346FB80FB68F4
:10103C00BA681A60FB68FA889A80FB6818461437FD
:10104C00BD4680BC704780B483B000AF78607B68CD
:10105C005B6818460C37BD4680BC704780B483B0C3
:10106C0000AF786039607B683A685A6000BF0C3713
:10107C00BD4680BC7047000080B582B000AF786080
:10108C007868FFF7E0FF0346052B00F2148101A2FC
:10109C0052F823F0B9100008F51000086712000888
:1010AC0077120008A1120008DF110008864B0022FD
:1010BC001A604FF47A718548FFF70AFF8348FFF7EF
:1010CC00EEFE42F210718248FFF702FF8048FFF7F4
:1010DC00E6FE8048FFF7D1F87E48FFF7DBF80121E8
:1010EC007868FFF7BBFFEBE0774B1B681946794834
:1010FC00FFF7FCF87648FFF7BFFE0346002B0AD03B
:10110C00714B1B68002B06DD7048FFF7D5FE0521DF
:10111C007868FFF7A3FF7048FFF7EAFB0346002B44
:10112C0007D06A48FFF7A8FE0346002B01D0012325
:10113C0000E00023002B09D06448FFF7BDFE644893
:10114C00FFF7BAFE03217868FFF788FF6348FFF7C3
:10115C00CFFB0346002B07D05C48FFF78DFE034600
:10116C00002B01D0012300E00023002B09D05748AD
:10117C00FFF7A2FE5648FFF79FFE04217868FFF7A1
:10118C006DFF5748FFF7A1FB0346002B06D05048D4
:10119C00FFF792FE02217868FFF760FF4E48FFF7D9
:1011AC0094FB0346002B06D04948FFF785FE03212C
:1011BC007868FFF753FF4948FFF787FB0346002B7E
:1011CC007BD04348FFF778FE04217868FFF746FF91
:1011DC0073E03D4B1B6819463E48FFF787F83B48C8
:1011EC00FFF74AFE0346002B0FD0374B1B68002B32
:1011FC0004DD354B1B68013B334A13603348FFF762
:10120C005BFE05217868FFF729FF3548FFF75DFB8A
:10121C000346002B06D02E48FFF74EFE02217868BD
:10122C00FFF71CFF2C48FFF750FB0346002B06D0A2
:10123C002748FFF741FE03217868FFF70FFF274887
:10124C00FFF743FB0346002B39D02148FFF734FE50
:10125C0004217868FFF702FF31E01B4B00221A6073
:10126C0001217868FFF7FAFE2AE0174B1B68591C1E
:10127C001C4B83FB01239A10CB17D21A13469B00ED
:10128C0013445B00CA1A104B1A6001217868FFF7EF
:10129C00E5FE15E00C4B1B68013B0B4A13600A4B37
:1012AC001B68002B02DA084B09221A6001217868AE
:1012BC00FFF7D4FE04E000BF02E000BF00E000BF77
:1012CC0000BF0837BD4680BD64020020F801002035
:1012DC00100200207C010020C0010020DC01002055
:1012EC00A40100206766666680B483B000AF7860A6
:1012FC007B685B6818460C37BD4680BC704780B471
:10130C0083B000AF786039607B683A685A6000BF80
:10131C000C37BD4680BC704780B582B000AF78609A
:10132C007868FFF7E1FF0346022B24D0022B33DC55
:10133C00002B02D0012B0DD02EE04FF47A711B48FC
:10134C00FFF7C6FD1948FFF7AAFD01217868FFF7E2
:10135C00D6FF26E01648FEF71FFF1448FFF78CFD5A
:10136C000346002B1AD01148FFF799FD022178682B
:10137C00FFF7C5FF12E00E48FEF726FF0B48FFF7FC
:10138C007BFD0346002B0BD00848FFF788FD01219D
:10139C007868FFF7B4FF03E000BF02E000BF00E095
:1013AC0000BF00BF0837BD4680BD00BF040200204F
:1013BC001C0100200C480D490D4A002302E0D458B2
:1013CC00C4500433C4188C42F9D30A4A0A4C002383
:1013DC0001E013600432A242FBD3FFF734FD01F0AD
:1013EC0019FBFFF75FFB704700000020A0000020F6
:1013FC009C2B0008A000002070020020FEE70000DB
:10140C0080B500AF084B1B68074A43F0100313600C
:10141C00032000F023F90F2000F008F8FFF76AFC16
:10142C000023184680BD00BF0020024080B582B06A
:10143C0000AF7860124B1A68124B1B7819464FF4A8
:10144C007A73B3FBF1F3B2FBF3F3184600F03BF9FC
:10145C000346002B01D001230EE07B680F2B0AD82A
:10146C00002279684FF0FF3000F003F9064A7B68E0
:10147C001360002300E0012318460837BD4680BDE9
:10148C002C000020340000203000002080B400AF7D
:10149C00054B1B781A46054B1B681344034A136013
:1014AC0000BFBD4680BC704734000020680200209D
:1014BC0080B400AF024B1B681846BD4680BC704719
:1014CC006802002080B485B000AF78607B6803F0C0
:1014DC000703FB600C4BDB68BB60BA684FF6FF037D
:1014EC001340BB60FB681A02BB68134343F0BF6335
:1014FC0043F40033BB60044ABB68D36000BF1437AD
:10150C00BD4680BC704700BF00ED00E080B400AF6A
:10151C00044BDB681B0A03F007031846BD4680BC6E
:10152C00704700BF00ED00E080B483B000AF03460D
:10153C00FB7197F90730002B0BDBFB7903F01F02D3
:10154C00064997F907305B09012000FA02F241F8CD
:10155C00232000BF0C37BD4680BC704700E100E083
:10156C0080B483B000AF03463960FB7197F9073044
:10157C00002B0ADB3B68DAB20C4997F907301201F1
:10158C00D2B20B4483F800230AE03B68DAB2084974
:10159C00FB7903F00F03043B1201D2B20B441A7611
:1015AC0000BF0C37BD4680BC704700BF00E100E0B7
:1015BC0000ED00E080B489B000AFF860B9607A60EB
:1015CC00FB6803F00703FB61FB69C3F10703042B02
:1015DC0028BF0423BB61FB690433062B02D9FB69CA
:1015EC00033B00E000237B614FF0FF32BB6902FA42
:1015FC0003F3DA43BB681A407B699A404FF0FF3122
:10160C007B6901FA03F3D9437B680B4013431846FB
:10161C002437BD4680BC704780B582B000AF78607F
:10162C007B68013BB3F1807F01D301230FE00A4AB1
:10163C007B68013B53600F214FF0FF30FFF790FFA9
:10164C00054B00229A60044B07221A6000231846AF
:10165C000837BD4680BD00BF10E000E080B582B009
:10166C0000AF78607868FFF72DFF00BF0837BD46E4
:10167C0080BD80B586B000AF0346B9607A60FB735D
:10168C0000237B61FFF742FF78617A68B96878695B
:10169C00FFF790FF024697F90F3011461846FFF7F7
:1016AC005FFF00BF1837BD4680BD80B582B000AF6C
:1016BC000346FB7197F907301846FFF735FF00BF5B
:1016CC000837BD4680BD80B582B000AF78607868C1
:1016DC00FFF7A2FF034618460837BD4680BD000041
:1016EC0080B48BB000AF7860396000237B6200233C
:1016FC003B6261E101227B6A02FA03F3FB613B6806
:10170C001B68FA691340BB61BA69FB699A4240F0E5
:10171C0050813B685B68974A93425ED0954A9342EE
:10172C0075D8954A934258D0934A93426FD8934AAE
:10173C00934252D0914A934269D8914A93424CD0E9
:10174C008F4A934263D88F4A934246D08D4A934234
:10175C005DD8122B2AD8122B59D801A252F823F09B
:10176C00E7170008C1170008D31700081518000860
:10177C001B1800081B1800081B1800081B18000871
:10178C001B1800081B1800081B1800081B18000861
:10179C001B1800081B1800081B1800081B18000851
:1017AC001B180008C9170008DD170008764A934279
:1017BC0013D02CE03B68DB683B6229E03B68DB68BC
:1017CC0004333B6224E03B68DB6808333B621FE078
:1017DC003B68DB680C333B621AE03B689B68002B70
:1017EC0002D104233B6213E03B689B68012B05D1BB
:1017FC0008233B627B68FA691A6109E008233B62A3
:10180C007B68FA695A6103E000233B6200E000BF89
:10181C00BB69FF2B01D87B6801E07B6804337B61DB
:10182C00BB69FF2B02D87B6A9B0002E07B6A083BFA
:10183C009B003B617B691A680F213B6901FA03F33A
:10184C00DB431A40396A3B6901FA03F31A437B699B
:10185C001A603B685B6803F08053002B00F0A98092
:10186C004A4B9B69494A43F001039361474B9B697F
:10187C0003F00103BB60BB68454A7B6A9B080233DB
:10188C0052F82330FB607B6A03F003039B000F22AA
:10189C0002FA03F3DB43FA681340FB607B683D4AB2
:1018AC0093420DD07B683C4A934207D07B683B4AFD
:1018BC00934201D1022304E0032302E0012300E060
:1018CC0000237A6A02F0030292009340FA681343F1
:1018DC00FB602F497B6A9B080233FA6841F823208E
:1018EC003B685B6803F48033002B06D02C4B1A68E2
:1018FC002B49BB6913430B6006E0294B1A68BB6983
:10190C00DB43274913400B603B685B6803F40033EF
:10191C00002B06D0224B5A682149BB6913434B60FC
:10192C0006E01F4B5A68BB69DB431D4913404B60F3
:10193C003B685B6803F48013002B06D0184B9A6845
:10194C001749BB6913438B6006E0154B9A68BB695A
:10195C00DB43134913408B603B685B6803F4001353
:10196C00002B1FD00E4BDA680D49BB691343CB60BB
:10197C001FE000BF000032100000311000002210E8
:10198C000000211000001210000011100010024085
:10199C000000014000080140000C01400010014013
:1019AC00000401400B4BDA68BB69DB430949134067
:1019BC00CB607B6A01337B623B681A687B6A22FAD4
:1019CC0003F3002B7FF496AE00BF00BF2C37BD464F
:1019DC0080BC70470004014080B485B000AF7860D3
:1019EC000B467B807B689A687B881340002B02D067
:1019FC000123FB7301E00023FB73FB7B18461437B8
:101A0C00BD4680BC704780B483B000AF78600B4695
:101A1C007B8013467B707B78002B03D07A887B68A5
:101A2C001A6103E07B881A047B681A6100BF0C37CB
:101A3C00BD4680BC7047000080B586B000AF7860B2
:101A4C007B68002B01D1012372E27B681B6803F0D9
:101A5C000103002B00F08780924B5B6803F00C03B2
:101A6C00042B0CD08F4B5B6803F00C03082B12D1AA
:101A7C008C4B5B6803F48033B3F5803F0BD1894BFF
:101A8C001B6803F40033002B6CD07B685B68002B65
:101A9C0068D101234CE27B685B68B3F5803F06D1CB
:101AAC00804B1B687F4A43F4803313602EE07B68C5
:101ABC005B68002B0CD17B4B1B687A4A23F4803378
:101ACC001360784B1B68774A23F4802313601DE066
:101ADC007B685B68B3F5A02F0CD1724B1B68714A05
:101AEC0043F4802313606F4B1B686E4A43F48033BE
:101AFC0013600BE06B4B1B686A4A23F48033136052
:101B0C00684B1B68674A23F4802313607B685B680F
:101B1C00002B13D0FFF7CCFC386108E0FFF7C8FCB2
:101B2C0002463B69D31A642B01D9032300E25D4BB7
:101B3C001B6803F40033002BF0D014E0FFF7B8FC63
:101B4C00386108E0FFF7B4FC02463B69D31A642BFA
:101B5C0001D90323ECE1534B1B6803F40033002B36
:101B6C00F0D100E000BF7B681B6803F00203002B80
:101B7C0063D04C4B5B6803F00C03002B0BD0494B30
:101B8C005B6803F00C03082B1CD1464B5B6803F419
:101B9C008033002B16D1434B1B6803F00203002B40
:101BAC0005D07B681B69012B01D00123C0E13D4BA3
:101BBC001B6823F0F8027B685B69DB00394913432F
:101BCC000B603AE07B681B69002B20D0364B01225E
:101BDC001A60FFF76DFC386108E0FFF769FC0246FC
:101BEC003B69D31A022B01D90323A1E12D4B1B68AE
:101BFC0003F00203002BF0D02A4B1B6823F0F802F1
:101C0C007B685B69DB00274913430B6015E0264BAF
:101C1C0000221A60FFF74CFC386108E0FFF748FC23
:101C2C0002463B69D31A022B01D9032380E11D4BD9
:101C3C001B6803F00203002BF0D17B681B6803F0D8
:101C4C000803002B3AD07B689B69002B19D0174BEB
:101C5C0001221A60FFF72CFC386108E0FFF728FC22
:101C6C0002463B69D31A022B01D9032360E10D4BC9
:101C7C005B6A03F00203002BF0D0012000F0A6FAFF
:101C8C001CE00A4B00221A60FFF712FC38610FE0CF
:101C9C00FFF70EFC02463B69D31A022B08D903232B
:101CAC0046E100BF00100240000042428004424264
:101CBC00924B5B6A03F00203002BE9D17B681B6833
:101CCC0003F00403002B00F0A6800023FB758B4B64
:101CDC00DB6903F08053002B0DD1884BDB69874AFD
:101CEC0043F08053D361854BDB6903F08053BB60B9
:101CFC00BB680123FB75824B1B6803F48073002BBC
:101D0C0018D17F4B1B687E4A43F480731360FFF736
:101D1C00CFFB386108E0FFF7CBFB02463B69D31AD7
:101D2C00642B01D9032303E1754B1B6803F4807307
:101D3C00002BF0D07B68DB68012B06D16F4B1B6A44
:101D4C006E4A43F0010313622DE07B68DB68002BC5
:101D5C000CD16A4B1B6A694A23F001031362674B6F
:101D6C001B6A664A23F0040313621CE07B68DB6881
:101D7C00052B0CD1614B1B6A604A43F004031362C0
:101D8C005E4B1B6A5D4A43F0010313620BE05B4B35
:101D9C001B6A5A4A23F001031362584B1B6A574AB9
:101DAC0023F0040313627B68DB68002B15D0FFF76C
:101DBC007FFB38610AE0FFF77BFB02463B69D31AD5
:101DCC0041F28832934201D90323B1E04B4B1B6A99
:101DDC0003F00203002BEED014E0FFF769FB38612F
:101DEC000AE0FFF765FB02463B69D31A41F28832E1
:101DFC00934201D903239BE0404B1B6A03F002037F
:101E0C00002BEED1FB7D012B05D13C4BDB693B4A12
:101E1C0023F08053D3617B68DB69002B00F0878053
:101E2C00364B5B6803F00C03082B61D07B68DB69D5
:101E3C00022B46D1334B00221A60FFF739FB386175
:101E4C0008E0FFF735FB02463B69D31A022B01D998
:101E5C0003236DE0294B1B6803F00073002BF0D1BA
:101E6C007B681B6AB3F5803F08D1244B5B6823F475
:101E7C0000327B689B68214913434B601F4B5B68A6
:101E8C0023F474127B68196A7B685B6A0B431B49E9
:101E9C0013434B601B4B01221A60FFF709FB38619F
:101EAC0008E0FFF705FB02463B69D31A022B01D968
:101EBC0003233DE0114B1B6803F00073002BF0D0A3
:101ECC0035E0104B00221A60FFF7F2FA386108E097
:101EDC00FFF7EEFA02463B69D31A022B01D9032312
:101EEC0026E0064B1B6803F00073002BF0D11EE0BC
:101EFC007B68DB69012B07D1012319E0001002403C
:101F0C0000700040600042420B4B5B68FB60FB685A
:101F1C0003F480327B681B6A9A4206D1FB6803F497
:101F2C0070127B685B6A9A4201D0012300E00023A7
:101F3C0018461837BD4680BD0010024080B584B0ED
:101F4C0000AF786039607B68002B01D10123D0E0B1
:101F5C006A4B1B6803F007033A689A4210D9674B27
:101F6C001B6823F0070265493B6813430B60634B06
:101F7C001B6803F007033A689A4201D00123B8E0CA
:101F8C007B681B6803F00203002B20D07B681B6866
:101F9C0003F00403002B05D0594B5B68584A43F4FB
:101FAC00E06353607B681B6803F00803002B05D0CB
:101FBC00534B5B68524A43F460535360504B5B681D
:101FCC0023F0F0027B689B684D4913434B607B68A0
:101FDC001B6803F00103002B40D07B685B68012B6E
:101FEC0007D1474B1B6803F40033002B15D1012399
:101FFC007FE07B685B68022B07D1414B1B6803F0C9
:10200C000073002B09D1012373E03D4B1B6803F0D7
:10201C000203002B01D101236BE0394B5B6823F0E9
:10202C0003027B685B68364913434B60FFF740FA49
:10203C00F8600AE0FFF73CFA0246FB68D31A41F25B
:10204C008832934201D9032353E02D4B5B6803F094
:10205C000C027B685B689B009A42EBD1274B1B6898
:10206C0003F007033A689A4210D2244B1B6823F002
:10207C00070222493B6813430B60204B1B6803F09B
:10208C0007033A689A4201D0012332E07B681B684F
:10209C0003F00403002B08D0194B5B6823F4E062B7
:1020AC007B68DB68164913434B607B681B6803F045
:1020BC000803002B09D0124B5B6823F460527B6839
:1020CC001B69DB000E4913434B6000F021F80246FC
:1020DC000B4B5B681B0903F00F030A49CB5C22FA1C
:1020EC0003F3094A1360094B1B681846FFF79EF966
:1020FC00002318461037BD4680BD00BF00200240AB
:10210C0000100240682B00082C000020300000203A
:10211C0090B48AB000AF294B3C1D0FCB84E80F0064
:10212C0040F201233B800023FB610023BB610023B1
:10213C007B6200237B6100233B62214B5B68FB616C
:10214C00FB6903F00C03042B02D0082B03D02BE00B
:10215C001C4B3B622BE0FB699B0C03F00F032833F9
:10216C003B4413F8243C7B61FB6903F48033002B64
:10217C0012D0134B5B685B0C03F0010328333B4418
:10218C0013F8283CBB617B690E4A03FB02F2BB6966
:10219C00B2FBF3F37B6204E07B690B4A02FB03F3B3
:1021AC007B627B6A3B6202E0064B3B6200BF3B6A90
:1021BC0018462837BD4690BC704700BF282B000836
:1021CC000010024000127A0000093D0080B485B076
:1021DC0000AF78600A4B1B680A4AA2FB03235B0A18
:1021EC007A6802FB03F3FB6000BFFB685A1EFA60BF
:1021FC00002BF9D100BF00BF1437BD4680BC70471F
:10220C002C000020D34D621080B582B000AF7860F6
:10221C007B68002B01D1012341E07B6893F83D30B2
:10222C00DBB2002B06D17B68002283F83C20786857
:10223C00FEF792FD7B68022283F83D207B681A68CA
:10224C007B6804331946104600F06AFA7B68012259
:10225C0083F846207B68012283F83E207B680122AC
:10226C0083F83F207B68012283F840207B680122A1
:10227C0083F841207B68012283F842207B6801228D
:10228C0083F843207B68012283F844207B68012279
:10229C0083F845207B68012283F83D2000231846F3
:1022AC000837BD4680BD000080B485B000AF7860B3
:1022BC007B6893F83D30DBB2012B01D0012335E074
:1022CC007B68022283F83D207B681B68DA687B6898
:1022DC001B6842F00102DA607B681B68164A934265
:1022EC0009D07B681B68B3F1804F04D07B681B68F6
:1022FC00124A934211D17B681B689B6803F0070359
:10230C00FB60FB68062B10D07B681B681A687B6827
:10231C001B6842F001021A6007E07B681B681A68B0
:10232C007B681B6842F001021A60002318461437C0
:10233C00BD4680BC704700BF002C0140000400402B
:10234C0080B582B000AF78607B681B681B6903F0B6
:10235C000203022B22D17B681B68DB6803F00203AB
:10236C00022B1BD17B681B686FF002021A617B6821
:10237C0001221A777B681B689B6903F00303002B0F
:10238C0003D0786800F0B1F905E0786800F0A4F9A2
:10239C00786800F0B3F97B6800221A777B681B68B9
:1023AC001B6903F00403042B22D17B681B68DB68D8
:1023BC0003F00403042B1BD17B681B686FF0040231
:1023CC001A617B6802221A777B681B689B6903F48D
:1023DC004073002B03D0786800F087F905E078682B
:1023EC0000F07AF9786800F089F97B6800221A7796
:1023FC007B681B681B6903F00803082B22D17B68E0
:10240C001B68DB6803F00803082B1BD17B681B6877
:10241C006FF008021A617B6804221A777B681B68CC
:10242C00DB6903F00303002B03D0786800F05DF93F
:10243C0005E0786800F050F9786800F05FF97B6887
:10244C0000221A777B681B681B6903F01003102BA2
:10245C0022D17B681B68DB6803F01003102B1BD1A7
:10246C007B681B686FF010021A617B6808221A7770
:10247C007B681B68DB6903F44073002B03D078681E
:10248C0000F033F905E0786800F026F9786800F080
:10249C0035F97B6800221A777B681B681B6903F08F
:1024AC000103012B0ED17B681B68DB6803F0010371
:1024BC00012B07D17B681B686FF001021A617868E9
:1024CC00FEF70AFB7B681B681B6903F08003802BFB
:1024DC000ED17B681B68DB6803F08003802B07D16F
:1024EC007B681B686FF080021A61786800F067FAED
:1024FC007B681B681B6903F04003402B0ED17B6883
:10250C001B68DB6803F04003402B07D17B681B681A
:10251C006FF040021A61786800F0F9F87B681B686C
:10252C001B6903F02003202B0ED17B681B68DB6832
:10253C0003F02003202B07D17B681B686FF020026F
:10254C001A61786800F032FA00BF0837BD4680BDCA
:10255C0080B584B000AF786039607B6893F83C300C
:10256C00012B01D10223B3E07B68012283F83C20CC
:10257C007B68022283F83D207B681B689B68FB60AC
:10258C00FB6823F07703FB60FB6823F47F43FB605D
:10259C007B681B68FA689A603B681B68B3F5005F40
:1025AC003ED0B3F5005F00F28780B3F5805F00F09A
:1025BC008580B3F5805F7FD8702B1AD0702B7BD8B9
:1025CC00602B50D0602B77D8502B3CD0502B73D82D
:1025DC00402B58D0402B6FD8302B64D0302B6BD87D
:1025EC00202B60D0202B67D8002B5CD0102B5AD01E
:1025FC0062E07B6818683B6899683B685A683B687E
:10260C00DB6800F05CF97B681B689B68FB60FB680F
:10261C0043F07703FB607B681B68FA689A604EE0B6
:10262C007B6818683B6899683B685A683B68DB684C
:10263C0000F045F97B681B689A687B681B6842F45C
:10264C0080429A603BE07B6818683B6859683B683D
:10265C00DB681A4600F0BCF87B681B6850211846F2
:10266C0000F013F92BE07B6818683B6859683B68ED
:10267C00DB681A4600F0DAF87B681B6860211846A4
:10268C0000F003F91BE07B6818683B6859683B68ED
:10269C00DB681A4600F09CF87B681B6840211846E2
:1026AC0000F0F3F80BE07B681A683B681B6819466E
:1026BC00104600F0EAF802E000BF00E000BF7B68C3
:1026CC00012283F83D207B68002283F83C20002304
:1026DC0018461037BD4680BD80B483B000AF78601B
:1026EC0000BF0C37BD4680BC704780B483B000AFD0
:1026FC00786000BF0C37BD4680BC704780B483B097
:10270C0000AF786000BF0C37BD4680BC704780B40A
:10271C0083B000AF786000BF0C37BD4680BC7047FB
:10272C0080B485B000AF786039607B681B68FB6053
:10273C007B68254A934207D07B68B3F1804F03D066
:10274C007B68224A934208D1FB6823F07003FB603C
:10275C003B685B68FA681343FB607B681A4A9342D8
:10276C0007D07B68B3F1804F03D07B68174A934244
:10277C0008D1FB6823F44073FB603B68DB68FA68A4
:10278C001343FB60FB6823F080023B685B691343D7
:10279C00FB607B68FA681A603B689A687B68DA624F
:1027AC003B681A687B689A627B68074A934203D13C
:1027BC003B681A697B681A637B6801225A6100BF07
:1027CC001437BD4680BC7047002C0140000400400B
:1027DC0080B487B000AFF860B9607A60FB681B6AA0
:1027EC007B61FB681B6A23F00102FB681A62FB68C1
:1027FC009B693B613B6923F0F0033B617B681B01E8
:10280C003A6913433B617B6923F00A037B617A6964
:10281C00BB6813437B61FB683A699A61FB687A6910
:10282C001A6200BF1C37BD4680BC704780B487B0AD
:10283C0000AFF860B9607A60FB681B6A23F0100285
:10284C00FB681A62FB689B697B61FB681B6A3B61D6
:10285C007B6923F470437B617B681B037A691343A8
:10286C007B613B6923F0A0033B61BB681B013A69A8
:10287C0013433B61FB687A699A61FB683A691A6297
:10288C0000BF1C37BD4680BC704780B485B000AF1C
:10289C00786039607B689B68FB60FB6823F0700391
:1028AC00FB603A68FB68134343F00703FB607B68EB
:1028BC00FA689A6000BF1437BD4680BC704780B47C
:1028CC0087B000AFF860B9607A603B60FB689B68CA
:1028DC007B617B6923F47F437B613B681A027B68D5
:1028EC001A43BB6813437A6913437B61FB687A69AB
:1028FC009A6000BF1C37BD4680BC704780B485B061
:10290C0000AF786039607B6893F83C30012B01D1C3
:10291C00022341E07B68012283F83C207B68022281
:10292C0083F83D207B681B685B68FB607B681B68D9
:10293C009B68BB60FB6823F07003FB603B681B6803
:10294C00FA681343FB607B681B68FA685A607B6803
:10295C001B68144A934209D07B681B68B3F1804F03
:10296C0004D07B681B68104A93420CD1BB6823F0DF
:10297C008003BB603B685B68BA681343BB607B68D1
:10298C001B68BA689A607B68012283F83D207B68DB
:10299C00002283F83C20002318461437BD4680BC27
:1029AC00704700BF002C01400004004080B483B08D
:1029BC0000AF786000BF0C37BD4680BC704780B458
:1029CC0083B000AF786000BF0C37BD4680BC704749
:1029DC0008B500F00DF808B5804700F00EF80000BF
:1029EC00024B1868BFF35B8F704700BF38000020A4
:1029FC0008B5FFF7F5FFFFF7EEFF062008B500F06E
:102A0C005DF80120FEF715FA014B1868704700BFFE
:102A1C003C00002070B500260C4D0D4C641BA4101E
:102A2C00A64209D100F066F800260A4D0A4C641B38
:102A3C00A410A64205D170BD55F8043B9847013649
:102A4C00EEE755F8043B98470136F2E7902B000867
:102A5C00902B0008902B0008982B0008034602448A
:102A6C00934200D1704703F8011BF9E71F2938B5D1
:102A7C0004460D4604D9162303604FF0FF3038BDD1
:102A8C00426C12B152F821304BB9204600F030F8AC
:102A9C002A4601462046BDE8384000F017B8012B05
:102AAC000AD0591C03D1162303600120E7E7002448
:102ABC00284642F8254098470020E0E7024B0146A3
:102ACC001868FFF7D3BF00BF3C00002038B50023C7
:102ADC00064D0446084611462B60FEF79AF9431C36
:102AEC0002D12B6803B1236038BD00BF6C020020FB
:102AFC00FEF788B9F8B500BFF8BC08BC9E46704715
:0C2B0C00F8B500BFF8BC08BC9E4670473E
:102B180001000000010000000100000001000000A9
:102B280002030405060708090A0B0C0D0E0F101006
:102B38000000000000000000A5010008D501000801
:102B48000000000000000000DD290008DD29000861
:102B58000000000000000000870200086D02000865
:102B68000000000000000000010203040607080935
:102B780000000000000000008510000800000000B0
:082B8800000000002513000805
:082B900031010008A10A000850
:042B98000D01000823
:102B9C002801002034010020400100204C010020BD
:102BAC00580100206401002070010020802B0008D7
:102BBC00000000008C2B0008000000000024F40032
:102BCC001000000001000000072A0008400000204F
:102BDC0000000000000000000000000000000000E9
:102BEC0000000000000000000000000000000000D9
:102BFC0000000000000000000000000000000000C9
:102C0C0000000000000000000000000000000000B8
:102C1C0000000000000000000000000000000000A8
:102C2C000000000000000000000000000000000098
:04000005080013C11B
:00000001FF
