:020000040800F2
:1000000000280020151A0008B10E0008B70E0008DD
:10001000BD0E0008C30E0008C90E00080000000055
:10002000000000000000000000000000CF0E0008EB
:10003000DB0E000800000000E70E0008F30E0008C9
:100040005D1A00085D1A00085D1A00085D1A0008B4
:100050005D1A00085D1A00085D1A00085D1A0008A4
:100060005D1A00085D1A00085D1A00085D1A000894
:100070005D1A00085D1A00085D1A00085D1A000884
:100080005D1A00085D1A00085D1A00085D1A000874
:100090005D1A00085D1A00085D1A00085D1A000864
:1000A0005D1A00085D1A00085D1A00085D1A000854
:1000B000010F00085D1A0008000000005D1A00082A
:1000C0005D1A000800000000000000005D1A000832
:1000D000000000005D1A00085D1A00080000000022
:1000E0005D1A00085D1A00085D1A00080000000093
:1000F0000000000000000000000000000000000000
:0C01000000000000000000005FF808F1A3
:10010C0010B5054C237833B9044B13B10448AFF345
:10011C0000800123237010BDB400002000000000FB
:10012C000433000808B5034B1BB103490348AFF374
:10013C00008008BD00000000B80000200433000857
:10014C0080B483B000AF786039607B6800221A609D
:10015C007B6800221A717B683A681A607B681846C3
:10016C000C37BD4680BC704780B582B000AF78605C
:10017C007B681B68184600F019FE0346002B04D060
:10018C007B681B68184600F0FEFD7B6801221A7123
:10019C0000BF0837BD4680BD80B582B000AF786027
:1001AC007B681B68184600F001FE034683F00103D0
:1001BC00DBB2002B04D07B681B68184600F0D0FD26
:1001CC007B6800221A7100BF0837BD4680BD80B520
:1001DC0082B000AF78607B681B68184600F007FEA1
:1001EC007B681B7983F00103DAB27B681A7100BF5C
:1001FC000837BD4680BD90B585B000AF786008204B
:10020C0002F028FF03461C4679682046FFF798FF4A
:10021C00FC60FB6818461437BD4690BD80B586B0AF
:10022C0000AFF860B9607A60FB6800221A620023A4
:10023C007B617B69062B11DC7B699B00BA681344DC
:10024C001B681846FFF7D7FF0146FA687B699B00CD
:10025C00134459607B6901337B61EAE7FB687A6878
:10026C001A60FB6818461837BD4680BD80B582B051
:10027C0000AF78607B681B68184600F071FD00BF0A
:10028C000837BD4680BD80B582B000AF78607B6812
:10029C001B68184600F077FD00BF0837BD4680BDCF
:1002AC0080B582B000AF786039607B681B681846F7
:1002BC0000F07CFD034683F00103DBB2002B00F061
:1002CC0084813B68092B00F27F8101A252F823F054
:1002DC00050300084D03000895030008DD03000822
:1002EC00250400086D040008B5040008FD0400088E
:1002FC00450500088D0500087B685B681846FFF70C
:10030C0033FF7B689B681846FFF72EFF7B68DB6822
:10031C001846FFF729FF7B681B691846FFF724FF77
:10032C007B685B691846FFF71FFF7B689B69184663
:10033C00FFF71AFF7B68DB691846FFF72DFF44E1D6
:10034C007B685B681846FFF727FF7B689B6818463D
:10035C00FFF70AFF7B68DB681846FFF705FF7B6831
:10036C001B691846FFF718FF7B685B691846FFF797
:10037C0013FF7B689B691846FFF70EFF7B68DB69F0
:10038C001846FFF709FF20E17B685B681846FFF70A
:10039C00EBFE7B689B681846FFF7E6FE7B68DB6824
:1003AC001846FFF7F9FE7B681B691846FFF7DCFE61
:1003BC007B685B691846FFF7D7FE7B689B6918461C
:1003CC00FFF7EAFE7B68DB691846FFF7CDFEFCE021
:1003DC007B685B681846FFF7C7FE7B689B6818460E
:1003EC00FFF7C2FE7B68DB681846FFF7BDFE7B6833
:1003FC001B691846FFF7B8FE7B685B691846FFF768
:10040C00CBFE7B689B691846FFF7C6FE7B68DB69F1
:10041C001846FFF7A9FED8E07B685B681846FFF723
:10042C00BBFE7B689B681846FFF79EFE7B68DB680B
:10043C001846FFF799FE7B681B691846FFF7ACFE60
:10044C007B685B691846FFF7A7FE7B689B691846BB
:10045C00FFF78AFE7B68DB691846FFF785FEB4E080
:10046C007B685B681846FFF77FFE7B689B681846C5
:10047C00FFF792FE7B68DB681846FFF775FE7B681A
:10048C001B691846FFF770FE7B685B691846FFF71F
:10049C0083FE7B689B691846FFF766FE7B68DB6909
:1004AC001846FFF761FE90E07B685B681846FFF723
:1004BC005BFE7B689B681846FFF76EFE7B68DB680B
:1004CC001846FFF751FE7B681B691846FFF74CFE78
:1004DC007B685B691846FFF747FE7B689B6918468B
:1004EC00FFF742FE7B68DB691846FFF73DFE6CE0C8
:1004FC007B685B681846FFF737FE7B689B6818467D
:10050C00FFF732FE7B68DB681846FFF72DFE7B6831
:10051C001B691846FFF728FE7B685B691846FFF7D6
:10052C0023FE7B689B691846FFF71EFE7B68DB6920
:10053C001846FFF719FE48E07B685B681846FFF722
:10054C0013FE7B689B681846FFF70EFE7B68DB6822
:10055C001846FFF709FE7B681B691846FFF704FE77
:10056C007B685B691846FFF7FFFD7B689B69184643
:10057C00FFF7FAFD7B68DB691846FFF7F5FD24E011
:10058C007B685B681846FFF7EFFD7B689B68184635
:10059C00FFF7EAFD7B68DB681846FFF7E5FD7B6833
:1005AC001B691846FFF7E0FD7B685B691846FFF78F
:1005BC00F3FD7B689B691846FFF7D6FD7B68DB690A
:1005CC001846FFF7D1FD00E000BF00BF0837BD465D
:1005DC0080BD00BF90B583B000AF78607B685A686F
:1005EC007B689A607B681A687B685A607B68DB69F9
:1005FC00184600F0E6FB04467B68DB69184600F001
:10060C00EBFB03461946204601F010FD03461A4643
:10061C007B681A607B685A687B681B689A422ED18B
:10062C007B685A687B689B689A4228D17B689A6879
:10063C007B68DB689A4216D07B689A687B68DA60C4
:10064C007B68DB68002B1AD17B684FF4FA725A6115
:10065C007B6801221A747B689B69002B0FD07B6826
:10066C009B6998470BE07B685B695A1E7B685A61F3
:10067C007B685B69002B02D17B680122DA6000BFCA
:10068C000C37BD4690BD80B483B000AF78607B68FA
:10069C001B7C012B04D17B6800221A74012300E01F
:1006AC00002318460C37BD4680BC704780B485B01B
:1006BC0000AFF860B9601346FB80FB68BA681A603B
:1006CC00FB68FA889A80FB6818461437BD4680BCD4
:1006DC00704780B483B000AF786039607B680122CA
:1006EC001A607B6801225A607B6801229A607B68E1
:1006FC000122DA607B6800221A747B684FF4FA726C
:10070C005A617B680022DA617B683A68DA617B683F
:10071C0018460C37BD4680BC704780B483B000AF20
:10072C0078607B6800221A707B6800225A607B68B4
:10073C0000229A607B6818460C37BD4680BC704717
:10074C0080B485B000AFF860B9607A603B60FB683C
:10075C0000221A60FB6800225A60FB6800229A6033
:10076C00FB680022DA60FB6800221A61FB68BA6839
:10077C001A60FB687A685A60FB683A689A60FB6892
:10078C00BA69DA60FB6818461437BD4680BC7047FE
:10079C0080B584B002AF786039607B68012B40F083
:1007AC00F7803B684FF6FF72934240F0F1800222D3
:1007BC0079497A48FFF77AFF042277497848FFF79E
:1007CC0075FF082274497748FFF770FF10227249B1
:1007DC007548FFF76BFF20226F497448FFF766FFDF
:1007EC0040226D497248FFF761FF80226A497148C7
:1007FC00FFF75CFF4FF4807267496F48FFF756FFB5
:10080C004FF4007264496D48FFF750FF4FF480625B
:10081C0061496B48FFF74AFF4FF400625E49694833
:10082C00FFF744FF4FF480525B496748FFF73EFFE8
:10083C004FF4005258496548FFF738FF4FF4804297
:10084C0055496348FFF732FF4FF400425249614863
:10085C00FFF72CFF4FF480725F496048FFF726FFCB
:10086C004FF400725C495E48FFF720FF01225A49A1
:10087C005C48FFF71BFF022257495B48FFF716FF46
:10088C00042255495948FFF711FF0822524958488C
:10089C00FFF70CFF102250495648FFF707FF2022A4
:1008AC004D495548FFF702FF40224B495348FFF78B
:1008BC00FDFE802248495248FFF7F8FE4FF4806253
:1008CC0045495048FFF7F2FE4FF4006242494E484A
:1008DC00FFF7ECFE31494D48FFF732FC30494C48EC
:1008EC00FFF72EFC2F494B48FFF72AFC2E494A48AC
:1008FC00FFF726FC2D494948FFF722FC2C494848B4
:10090C00FFF71EFC2B494748FFF7E3FE2A494648F0
:10091C00FFF7DFFE29494548FFF7DBFE284A44492B
:10092C004448FFF77BFC2F4A43494448FFF776FCC9
:10093C00344A3F494248FFF771FC334A3E4941482B
:10094C00FFF76CFC4048FFF7E8FE4048FFF7E5FE78
:10095C00384B00932F4B2E4A2C493D48FFF7F0FEA5
:10096C00364B00932E4B2D4A2B493A48FFF7E8FEA5
:10097C00334B0093274B264A24493748FFF7E0FEB8
:10098C00304B0093264B254A23493448FFF7D8FEB9
:10099C0000BF0837BD4680BD00080140D0000020D4
:1009AC00D8000020E0000020E8000020F00000202B
:1009BC00F800002000010020080100201001002098
:1009CC001801002020010020280100203001002007
:1009DC003801002040010020000C0140480100209B
:1009EC005001002058010020600100206801002007
:1009FC007001002078010020800100208801002077
:100A0C009001002098010020A0010020A8010020E6
:100A1C00B0010020B8010020C0010020C801002056
:100A2C00D0010020D8010020F8010020180200207D
:100A3C0000000020380200201C0000205C02002076
:100A4C0080020020A4020020C8020020D402002052
:100A5C00E0020020F4020020080300201C03002008
:100A6C0080B500AF4FF6FF710120FFF791FE80BDFE
:100A7C0080B500AF00F0EEFF00F048F800F08CF805
:100A8C0000F0E6F80B4801F051FF0B4B1B681946C0
:100A9C000A4800F097FA094800F0B2FA4FF47A715C
:100AAC00074800F08FFA064800F0AAFA054800F053
:100ABC000BFBFBE7300300203C000020C8020020A9
:100ACC00D40200207803002080B582B000AF78609B
:100ADC00094800F0A2FA094800F09FFA0848FFF70D
:100AEC0079FD0848FFF776FD0748FFF773FD00BF57
:100AFC000837BD4680BD00BFC8020020D4020020CC
:100B0C00D8010020F80100201802002080B590B018
:100B1C0000AF07F1180328220021184602F0EEFA64
:100B2C003B1D00221A605A609A60DA601A61022337
:100B3C00BB610123BB621023FB6200237B6307F1C3
:100B4C001803184601F0BAFA0346002B14BF012310
:100B5C000023DBB2002B01D000F0DEF80F237B600A
:100B6C000023BB600023FB6000233B6100237B61FF
:100B7C003B1D0021184601F023FD0346002B14BF3A
:100B8C0001230023DBB2002B01D000F0C5F800BF1D
:100B9C004037BD4680BD000080B586B000AF07F180
:100BAC00080300221A605A609A60DA603B46002201
:100BBC001A605A60254B4FF080421A60234B41F665
:100BCC003F725A60214B00229A60204B0922DA6056
:100BDC001E4B00221A611D4B00229A611B4801F02A
:100BEC0055FE0346002B14BF01230023DBB2002B60
:100BFC0001D000F091F84FF48053BB6007F108036B
:100C0C001946124801F0E6FF0346002B14BF0123DE
:100C1C000023DBB2002B01D000F07EF800233B60F8
:100C2C0000237B603B461946084802F0A9F90346AD
:100C3C00002B14BF01230023DBB2002B01D000F0EA
:100C4C006BF800BF1837BD4680BD00BF30030020D5
:100C5C0080B586B000AF07F1080300221A605A6015
:100C6C009A60DA60294B9B69284A43F0040393612C
:100C7C00264B9B6903F004037B607B68234B9B69C9
:100C8C00224A43F008039361204B9B6903F008034D
:100C9C003B603B6800224FF67E411D4801F0DDF9B8
:100CAC00002240F6FF711B4801F0D7F94FF67E4346
:100CBC00BB600123FB6000233B6102237B6107F1D6
:100CCC0008031946124801F035F84FF46073BB6005
:100CDC000023FB6000233B6107F1080319460C4815
:100CEC0001F028F840F6FF73BB600123FB60002382
:100CFC003B6102237B6107F108031946054801F0AB
:100D0C0019F800BF1837BD4680BD00BF0010024067
:100D1C0000080140000C014080B400AF72B600BF67
:100D2C00FEE7000080B582B000AF786039607B6868
:100D3C00012B07D13B684FF6FF72934202D1034857
:100D4C0000F0B1F900BF0837BD4680BD7803002024
:100D5C0080B500AF4FF6FF710120FFF7E3FF80BDB8
:100D6C0080B582B000AF78607B6818687B689B8820
:100D7C000122194601F071F97B6801229A7100BFBA
:100D8C000837BD4680BD80B582B000AF78607B6807
:100D9C0018687B689B880022194601F05EF97B6815
:100DAC0000229A7100BF0837BD4680BD80B483B065
:100DBC0000AF78607B689B7918460C37BD4680BCC9
:100DCC00704780B483B000AF78607B681B681846AE
:100DDC000C37BD4680BC704780B483B000AF7860E0
:100DEC007B689B8818460C37BD4680BC704780B525
:100DFC0082B000AF78607B681A687B689B88194664
:100E0C00104601F042F97B689A797B689A7100BFB1
:100E1C000837BD4680BD000080B483B000AF0E4BD8
:100E2C009B690D4A43F0010393610B4B9B6903F0E3
:100E3C0001037B607B68084BDB69074A43F08053F6
:100E4C00D361054BDB6903F080533B603B6800BF0B
:100E5C000C37BD4680BC70470010024080B584B092
:100E6C0000AF78607B681B68B3F1804F13D10C4BDB
:100E7C00DB690B4A43F00103D361094BDB6903F0D7
:100E8C000103FB60FB68002200211C2000F01BFF0B
:100E9C001C2000F034FF00BF1037BD4680BD00BFE2
:100EAC000010024080B400AFFEE780B400AFFEE754
:100EBC0080B400AFFEE780B400AFFEE780B400AFB3
:100ECC00FEE780B400AF00BFBD4680BC704780B465
:100EDC0000AF00BFBD4680BC704780B400AF00BF00
:100EEC00BD4680BC704780B500AF00F0F9FD00BF77
:100EFC0080BD000080B500AF024801F063FD00BF6B
:100F0C0080BD00BF3003002080B400AF0123184621
:100F1C00BD4680BC704780B582B000AF7860396048
:100F2C0002F0BAF8034616221A604FF0FF33184647
:100F3C000837BD4680BD80B582B000AF78604FF0F9
:100F4C00FF317868FFF7E7FFFEE7000080B586B059
:100F5C0000AF7860144A154BD31A7B617B693B61F7
:100F6C00134B1B68002B02D1114B124A1A60104B09
:100F7C001A687B6813443A699A4207D202F08CF8DB
:100F8C0003460C221A604FF0FF3309E0084B1B6834
:100F9C00FB60074B1A687B681344054A1360FB68B7
:100FAC0018461837BD4680BD0028002000040000FC
:100FBC007C030020A003002080B400AF00BFBD461E
:100FCC0080BC704780B582B000AF786039603B68F8
:100FDC000A4A82FB03129210DB17D21A7B685A6002
:100FEC007B689A687B685B689A4202DD786800F0DF
:100FFC0007F800BF0837BD4680BD00BF6766666650
:10100C0080B483B000AF78607B685A687B689A6064
:10101C0000BF0C37BD4680BC704780B582B000AFB6
:10102C0078607B689B68002B0EDD7B689B685A1E82
:10103C007B689A607B689B68002B05D17B680122DA
:10104C001A707868FFF7DCFF00BF0837BD4680BD1B
:10105C0080B483B000AF78607B681B78002B04D021
:10106C007B6800221A70012300E0002318460C371D
:10107C00BD4680BC704780B483B000AF78607B689D
:10108C001B6818460C37BD4680BC704780B483B0D3
:10109C0000AF786039607B683A681A6000BF0C3723
:1010AC00BD4680BC704780B483B000AF78607B686D
:1010BC0000221A607B6800221A607B6818460C3785
:1010CC00BD4680BC7047000080B582B000AF786030
:1010DC007868FFF7D0FF0346062B00F2888301A245
:1010EC0052F823F00D110008F7110008DB1200086C
:1010FC00F1130008BD140008ED160008A115000836
:10110C000021AC4800F0BCFB0121AB4800F0B8FB5F
:10111C00AA4B1B681946AA48FFF754FFA94B1B683A
:10112C00A94A82FB03129211DB17D31A1946A14864
:10113C0000F012FCA34B1B68A34A82FB0312921112
:10114C00DB17D31A1946A14800F006FC9B4B1B6811
:10115C009D4A82FB03129211DB17D31A194696484B
:10116C0000F0FAFB954B1B68974A82FB0312921115
:10117C00DB17D31A1946964800F0EEFB9548FFF79B
:10118C0067FF0346002B0BD08A4800F002FC8F4807
:10119C0000F0FFFB884800F0FCFB8D4800F0F9FBE9
:1011AC008D48FFF770FA0346002B12D002218148BC
:1011BC0000F066FB0221804800F062FB8048FFF7DC
:1011CC001FFF864B1B68864A136006217868FFF761
:1011DC005DFF7B48FFF73CFF0346002B00F0FA82D3
:1011EC0004217868FFF752FFF4E20121714800F006
:1011FC0047FB0021704800F043FB704B1B681946FD
:10120C006F48FFF7DFFE6D4B1B686F4A82FB0312C2
:10121C009211DB17D31A1946664800F09DFB674BF9
:10122C001B68694A82FB03129211DB17D31A194609
:10123C00664800F091FB634B1B68634A82FB031208
:10124C009211DB17D31A19465B4800F085FB5D4BF6
:10125C001B685D4A82FB03129211DB17D31A1946E5
:10126C005B4800F079FB5B48FFF7F2FE0346002B6E
:10127C000BD0504800F08DFB544800F08AFB4E48D0
:10128C0000F087FB524800F084FB5348FFF7FBF952
:10129C000346002B0FD00221464800F0F1FA022140
:1012AC00454800F0EDFA4D4B1B684D4A1360062182
:1012BC007868FFF7EBFE4248FFF7CAFE0346002BA7
:1012CC0000F08A8202217868FFF7E0FE84E20221B6
:1012DC00384800F0D5FA0021374800F0D1FA3F4BDE
:1012EC001B6819463648FFF76DFE3C4B1B68364AA7
:1012FC0082FB03129211DB17D31A19462D4800F00A
:10130C002BFB364B1B68304A82FB03129211DB1706
:10131C00D31A19462D4800F01FFB2A4B1B682A4A8A
:10132C0082FB03129211DB17D31A1946224800F0E4
:10133C0013FB244B1B68244A82FB03129211DB170C
:10134C00D31A1946224800F007FB2248FFF780FE0B
:10135C000346002B0BD0174800F01BFB1B4800F07A
:10136C0018FB154800F015FB194800F012FB1A4841
:10137C00FFF789F90346002B0FD002210D4800F02E
:10138C007FFA02210C4800F07BFA144B1B68144ABC
:10139C00136006217868FFF779FE0948FFF758FEBD
:1013AC000346002B00F01A8203217868FFF76EFECB
:1013BC0014E200BFE0020020F402002038000020FC
:1013CC00C80200203C000020D34D6210080300200E
:1013DC001C030020D4020020D80100204000002073
:1013EC00800300200021AD4800F04AFA0121AC48EE
:1013FC0000F046FAAB4B1B681946AB48FFF7E2FD11
:10140C00AA4B1B68AA4A82FB03129211DB17D31A50
:10141C001946A24800F0A0FAA44B1B68A44A82FB10
:10142C0003129211DB17D31A1946A24800F094FA52
:10143C009C4B1B6819469A4800F08EFA994B1B6816
:10144C0019469D4800F088FA9C48FFF701FE0346B8
:10145C00002B0BD0914800F09CFA964800F099FABA
:10146C008F4800F096FA944800F093FA9448FFF7EE
:10147C000AF90346002B0FD00221884800F000FA2D
:10148C000221874800F0FCF98E4B1B688E4A1360D2
:10149C0006217868FFF7FAFD8348FFF7D9FD03466C
:1014AC00002B00F09D8104217868FFF7EFFD97E198
:1014BC0000217A4800F0E4F90221794800F0E0F9C3
:1014CC00804B1B6819467848FFF77CFD774B1B68EF
:1014DC00774A82FB03129211DB17D31A19466F4815
:1014EC0000F03AFA714B1B68714A82FB031292119D
:1014FC00DB17D31A19466F4800F02EFA714B1B6894
:10150C006B4A82FB03129211DB17D31A19466448FB
:10151C0000F022FA6B4B1B68654A82FB0312921196
:10152C00DB17D31A1946644800F016FA6348FFF724
:10153C008FFD0346002B0BD0584800F02AFA5D486B
:10154C0000F027FA564800F024FA5B4800F021FA24
:10155C005B48FFF798F80346002B0FD002214F4849
:10156C0000F08EF902214E4800F08AF9554B1B68A9
:10157C00554A136006217868FFF788FD4A48FFF743
:10158C0067FD0346002B00F02D8101217868FFF7E1
:10159C007DFD27E1474800F029FA474800F026FA7C
:1015AC00494B1B68424A82FB03129211DB17D31A78
:1015BC0019463A4800F006FA434B1B68434A82FB33
:1015CC0003121213DB17D31A1946354800F0FAF937
:1015DC004FF4FA713448FFF7F5FC3948FFF753F82C
:1015EC000346002B0FD001212C4800F049F90121B2
:1015FC002B4800F045F92B4B1B68354A136005212D
:10160C007868FFF743FD3348FFF73DF80346002B9E
:10161C0026D02D4B1B6803F57A732B4A13602A4B8B
:10162C001B682D4A934203DD274B4FF47A721A60E4
:10163C00274B1B681E4A82FB03129211DB17D31A2D
:10164C001946164800F0BEF9214B1B681F4A82FB55
:10165C0003121213DB17D31A1946114800F0B2F912
:10166C001E48FFF710F80346002B07D0164B1B68DB
:10167C00144A136003217868FFF708FD0A48FFF746
:10168C00E7FC0346002B00F0AF800221034800F07A
:10169C003CF90221024800F038F9A5E0E0020020F4
:1016AC00F402002038000020C80200203C0000207A
:1016BC00D34D6210080300201C030020D40200202C
:1016CC00D80100204000002080030020AD8BDB6897
:1016DC0084030020F8010020B882010018020020C9
:1016EC00454800F083F9454800F080F9444B1B68ED
:1016FC00444A82FB03129211DB17D31A1946424853
:10170C0000F060F93E4B1B68404A82FB0312121337
:10171C00DB17D31A19463E4800F054F94FF4FA710E
:10172C003C48FFF74FFC3C48FEF7ADFF0346002B4F
:10173C0003D003217868FFF7A9FC3848FEF7A3FF14
:10174C000346002B26D02E4B1B6803F57A732C4ACC
:10175C0013602B4B1B68324A934203DD284B4FF42A
:10176C007A721A60264B1B68264A82FB031292116E
:10177C00DB17D31A1946244800F024F9204B1B68B8
:10178C00224A82FB03121213DB17D31A1946204884
:10179C0000F018F92348FEF776FF0346002B0AD019
:1017AC00174B1B68204A13601A48FFF729FC0321CA
:1017BC007868FFF76BFC1748FFF74AFC0346002BD1
:1017CC0014D00121104800F0A0F80121104800F0BD
:1017DC009CF80BE000BF0AE000BF08E000BF06E089
:1017EC0000BF04E000BF02E000BF00E000BF00BF8C
:1017FC000837BD4680BD00BF080300201C03002035
:10180C0084030020D34D6210E0020020AD8BDB6816
:10181C00F4020020C8020020D8010020F8010020AA
:10182C00B8820100180200203800002080B483B078
:10183C0000AF786039607B68012B0CD13B684FF6A8
:10184C00FF72934207D1064B1B68064A1360064B86
:10185C001B68064A136000BF0C37BD4680BC70473E
:10186C00400000208003002038000020840300206A
:10187C0080B500AF4FF6FF710120FFF7D7FF80BD99
:10188C0080B582B000AF78600B46FB70FB78022B02
:10189C0026D0022B34DC002B02D0012B10D02FE0F1
:1018AC007B681B681846FEF75FFC7B685B68184614
:1018BC00FEF772FC7B689B681846FEF76DFC20E017
:1018CC007B681B681846FEF767FC7B685B681846EC
:1018DC00FEF762FC7B689B681846FEF745FC10E03F
:1018EC007B681B681846FEF757FC7B685B681846DC
:1018FC00FEF73AFC7B689B681846FEF74DFC00E04F
:10190C0000BF00BF0837BD4680BD80B582B000AFB8
:10191C0078600B46FB70FB78022B12D0022B16DC86
:10192C00002B02D0012B06D011E07B681B681846F7
:10193C00FEF74DFC0CE07B689B681846FEF747FCF5
:10194C0006E07B685B681846FEF741FC00E000BFD0
:10195C0000BF0837BD4680BD80B582B000AF78604F
:10196C0039607B68DB681846FEF78DFC7B681B6969
:10197C00002B0AD17B683A681A617B68DA687B684D
:10198C001B6919461046FEF78BFC00BF0837BD4695
:10199C0080BD80B582B000AF78607B681B69002B7E
:1019AC000CDD7B681B695A1E7B681A617B68DA68E0
:1019BC007B681B6919461046FEF772FC00BF08379E
:1019CC00BD4680BD80B582B000AF786039607B6861
:1019DC00DB681846FEF757FC7B68DB6839681846ED
:1019EC00FEF75EFC00BF0837BD4680BD80B582B0F7
:1019FC0000AF78607B68DB681846FEF737FC00BFE9
:101A0C000837BD4680BD00000C480D490D4A002327
:101A1C0002E0D458C4500433C4188C42F9D30A4A97
:101A2C000A4C002301E013600432A242FBD3FFF7FF
:101A3C00C3FA01F037FBFFF71BF8704700000020DA
:101A4C00B400002050330008B4000020A003002094
:101A5C00FEE7000080B500AF084B1B68074A43F057
:101A6C0010031360032000F023F90F2000F008F896
:101A7C00FFF7D2F90023184680BD00BF00200240BA
:101A8C0080B582B000AF7860124B1A68124B1B788D
:101A9C0019464FF47A73B3FBF1F3B2FBF3F3184628
:101AAC0000F03BF90346002B01D001230EE07B68CC
:101ABC000F2B0AD8002279684FF0FF3000F003F9A1
:101ACC00064A7B681360002300E0012318460837A0
:101ADC00BD4680BD440000204C0000204800002082
:101AEC0080B400AF054B1B781A46054B1B6813449A
:101AFC00034A136000BFBD4680BC70474C000020F9
:101B0C008803002080B400AF024B1B681846BD460A
:101B1C0080BC70478803002080B485B000AF78602B
:101B2C007B6803F00703FB600C4BDB68BB60BA6897
:101B3C004FF6FF031340BB60FB681A02BB681343EC
:101B4C0043F0BF6343F40033BB60044ABB68D3600B
:101B5C0000BF1437BD4680BC704700BF00ED00E0ED
:101B6C0080B400AF044BDB681B0A03F00703184674
:101B7C00BD4680BC704700BF00ED00E080B483B070
:101B8C0000AF0346FB7197F90730002B0BDBFB7999
:101B9C0003F01F02064997F907305B09012000FA90
:101BAC0002F241F8232000BF0C37BD4680BC7047C1
:101BBC0000E100E080B483B000AF03463960FB71F4
:101BCC0097F90730002B0ADB3B68DAB20C4997F91E
:101BDC0007301201D2B20B4483F800230AE03B68B1
:101BEC00DAB20849FB7903F00F03043B1201D2B2BD
:101BFC000B441A7600BF0C37BD4680BC704700BF43
:101C0C0000E100E000ED00E080B489B000AFF860C6
:101C1C00B9607A60FB6803F00703FB61FB69C3F1F1
:101C2C000703042B28BF0423BB61FB690433062B79
:101C3C0002D9FB69033B00E000237B614FF0FF32CC
:101C4C00BB6902FA03F3DA43BB681A407B699A401A
:101C5C004FF0FF317B6901FA03F3D9437B680B40EA
:101C6C00134318462437BD4680BC704780B582B0FC
:101C7C0000AF78607B68013BB3F1807F01D3012317
:101C8C000FE00A4A7B68013B53600F214FF0FF3095
:101C9C00FFF790FF054B00229A60044B07221A6055
:101CAC00002318460837BD4680BD00BF10E000E099
:101CBC0080B582B000AF78607868FFF72DFF00BF69
:101CCC000837BD4680BD80B586B000AF0346B9600D
:101CDC007A60FB7300237B61FFF742FF78617A68BF
:101CEC00B9687869FFF790FF024697F90F301146F3
:101CFC001846FFF75FFF00BF1837BD4680BD80B5A3
:101D0C0082B000AF0346FB7197F907301846FFF716
:101D1C0035FF00BF0837BD4680BD80B582B000AF2F
:101D2C0078607868FFF7A2FF034618460837BD466F
:101D3C0080BD000080B48BB000AF786039600023A8
:101D4C007B6200233B6261E101227B6A02FA03F3AE
:101D5C00FB613B681B68FA691340BB61BA69FB699C
:101D6C009A4240F050813B685B68974A93425ED040
:101D7C00954A934275D8954A934258D0934A9342C8
:101D8C006FD8934A934252D0914A934269D8914A60
:101D9C0093424CD08F4A934263D88F4A934246D099
:101DAC008D4A93425DD8122B2AD8122B59D801A2F6
:101DBC0052F823F03B1E0008151E0008271E0008D1
:101DCC00691E00086F1E00086F1E00086F1E0008B9
:101DDC006F1E00086F1E00086F1E00086F1E0008A3
:101DEC006F1E00086F1E00086F1E00086F1E000893
:101DFC006F1E00086F1E00081D1E0008311E000813
:101E0C00764A934213D02CE03B68DB683B6229E0B6
:101E1C003B68DB6804333B6224E03B68DB680833D7
:101E2C003B621FE03B68DB680C333B621AE03B68AB
:101E3C009B68002B02D104233B6213E03B689B6838
:101E4C00012B05D108233B627B68FA691A6109E012
:101E5C0008233B627B68FA695A6103E000233B620A
:101E6C0000E000BFBB69FF2B01D87B6801E07B68F9
:101E7C0004337B61BB69FF2B02D87B6A9B0002E0B9
:101E8C007B6A083B9B003B617B691A680F213B69AD
:101E9C0001FA03F3DB431A40396A3B6901FA03F395
:101EAC001A437B691A603B685B6803F08053002B14
:101EBC0000F0A9804A4B9B69494A43F001039361A6
:101ECC00474B9B6903F00103BB60BB68454A7B6AC7
:101EDC009B08023352F82330FB607B6A03F0030348
:101EEC009B000F2202FA03F3DB43FA681340FB60FA
:101EFC007B683D4A93420DD07B683C4A934207D0A5
:101F0C007B683B4A934201D1022304E0032302E0A5
:101F1C00012300E000237A6A02F00302920093404E
:101F2C00FA681343FB602F497B6A9B080233FA68FB
:101F3C0041F823203B685B6803F48033002B06D008
:101F4C002C4B1A682B49BB6913430B6006E0294BD9
:101F5C001A68BB69DB43274913400B603B685B681D
:101F6C0003F40033002B06D0224B5A682149BB697D
:101F7C0013434B6006E01F4B5A68BB69DB431D499A
:101F8C0013404B603B685B6803F48013002B06D056
:101F9C00184B9A681749BB6913438B6006E0154BC5
:101FAC009A68BB69DB43134913408B603B685B68E1
:101FBC0003F40013002B1FD00E4BDA680D49BB69DC
:101FCC001343CB601FE000BF000032100000311043
:101FDC00000022100000211000001210000011104F
:101FEC00001002400000014000080140000C0140BC
:101FFC0000100140000401400B4BDA68BB69DB4365
:10200C0009491340CB607B6A01337B623B681A68D9
:10201C007B6A22FA03F3002B7FF496AE00BF00BF5D
:10202C002C37BD4680BC70470004014080B485B09D
:10203C0000AF78600B467B807B689A687B88134086
:10204C00002B02D00123FB7301E00023FB73FB7B0D
:10205C0018461437BD4680BC704780B483B000AFBF
:10206C0078600B467B8013467B707B78002B03D00B
:10207C007A887B681A6103E07B881A047B681A6192
:10208C0000BF0C37BD4680BC704780B485B000AF34
:10209C0078600B467B807B68DB68FB607A88FB682A
:1020AC0013401A04FB68D9437B880B401A437B68A6
:1020BC001A6100BF1437BD4680BC704780B586B02E
:1020CC0000AF78607B68002B01D1012372E27B6842
:1020DC001B6803F00103002B00F08780924B5B68B8
:1020EC0003F00C03042B0CD08F4B5B6803F00C0338
:1020FC00082B12D18C4B5B6803F48033B3F5803F13
:10210C000BD1894B1B6803F40033002B6CD07B681C
:10211C005B68002B68D101234CE27B685B68B3F5EC
:10212C00803F06D1804B1B687F4A43F48033136099
:10213C002EE07B685B68002B0CD17B4B1B687A4ACA
:10214C0023F480331360784B1B68774A23F4802385
:10215C0013601DE07B685B68B3F5A02F0CD1724B4C
:10216C001B68714A43F4802313606F4B1B686E4AE3
:10217C0043F4803313600BE06B4B1B686A4A23F407
:10218C0080331360684B1B68674A23F48023136009
:10219C007B685B68002B13D0FFF7B4FC386108E058
:1021AC00FFF7B0FC02463B69D31A642B01D9032319
:1021BC0000E25D4B1B6803F40033002BF0D014E0FD
:1021CC00FFF7A0FC386108E0FFF79CFC02463B6976
:1021DC00D31A642B01D90323ECE1534B1B6803F492
:1021EC000033002BF0D100E000BF7B681B6803F0CC
:1021FC000203002B63D04C4B5B6803F00C03002BE9
:10220C000BD0494B5B6803F00C03082B1CD1464BDD
:10221C005B6803F48033002B16D1434B1B6803F02F
:10222C000203002B05D07B681B69012B01D0012315
:10223C00C0E13D4B1B6823F0F8027B685B69DB0057
:10224C00394913430B603AE07B681B69002B20D0A3
:10225C00364B01221A60FFF755FC386108E0FFF796
:10226C0051FC02463B69D31A022B01D90323A1E18D
:10227C002D4B1B6803F00203002BF0D02A4B1B687C
:10228C0023F0F8027B685B69DB00274913430B6082
:10229C0015E0264B00221A60FFF734FC386108E089
:1022AC00FFF730FC02463B69D31A022B01D90323FA
:1022BC0080E11D4B1B6803F00203002BF0D17B68FF
:1022CC001B6803F00803002B3AD07B689B69002B3A
:1022DC0019D0174B01221A60FFF714FC386108E083
:1022EC00FFF710FC02463B69D31A022B01D90323DA
:1022FC0060E10D4B5B6A03F00203002BF0D0012070
:10230C0000F0A6FA1CE00A4B00221A60FFF7FAFB59
:10231C0038610FE0FFF7F6FB02463B69D31A022B3C
:10232C0008D9032346E100BF0010024000004242DE
:10233C0080044242924B5B6A03F00203002BE9D10A
:10234C007B681B6803F00403002B00F0A6800023BD
:10235C00FB758B4BDB6903F08053002B0DD1884B45
:10236C00DB69874A43F08053D361854BDB6903F00B
:10237C008053BB60BB680123FB75824B1B6803F465
:10238C008073002B18D17F4B1B687E4A43F48073FB
:10239C001360FFF7B7FB386108E0FFF7B3FB0246A9
:1023AC003B69D31A642B01D9032303E1754B1B68DA
:1023BC0003F48073002BF0D07B68DB68012B06D113
:1023CC006F4B1B6A6E4A43F0010313622DE07B686E
:1023DC00DB68002B0CD16A4B1B6A694A23F00103A2
:1023EC001362674B1B6A664A23F0040313621CE0FA
:1023FC007B68DB68052B0CD1614B1B6A604A43F090
:10240C00040313625E4B1B6A5D4A43F001031362C3
:10241C000BE05B4B1B6A5A4A23F001031362584BC7
:10242C001B6A574A23F0040313627B68DB68002B9A
:10243C0015D0FFF767FB38610AE0FFF763FB024634
:10244C003B69D31A41F28832934201D90323B1E09C
:10245C004B4B1B6A03F00203002BEED014E0FFF78A
:10246C0051FB38610AE0FFF74DFB02463B69D31A7A
:10247C0041F28832934201D903239BE0404B1B6A03
:10248C0003F00203002BEED1FB7D012B05D13C4B5D
:10249C00DB693B4A23F08053D3617B68DB69002BFB
:1024AC0000F08780364B5B6803F00C03082B61D07F
:1024BC007B68DB69022B46D1334B00221A60FFF795
:1024CC0021FB386108E0FFF71DFB02463B69D31A7C
:1024DC00022B01D903236DE0294B1B6803F0007319
:1024EC00002BF0D17B681B6AB3F5803F08D1244BDD
:1024FC005B6823F400327B689B68214913434B6073
:10250C001F4B5B6823F474127B68196A7B685B6AE7
:10251C000B431B4913434B601B4B01221A60FFF703
:10252C00F1FA386108E0FFF7EDFA02463B69D31A7D
:10253C00022B01D903233DE0114B1B6803F0007300
:10254C00002BF0D035E0104B00221A60FFF7DAFABE
:10255C00386108E0FFF7D6FA02463B69D31A022B22
:10256C0001D9032326E0064B1B6803F00073002BF4
:10257C00F0D11EE07B68DB69012B07D1012319E048
:10258C000010024000700040600042420B4B5B6840
:10259C00FB60FB6803F480327B681B6A9A4206D1AD
:1025AC00FB6803F470127B685B6A9A4201D00123CA
:1025BC0000E0002318461837BD4680BD00100240CD
:1025CC0080B584B000AF786039607B68002B01D196
:1025DC000123D0E06A4B1B6803F007033A689A4268
:1025EC0010D9674B1B6823F0070265493B681343FE
:1025FC000B60634B1B6803F007033A689A4201D0E7
:10260C000123B8E07B681B6803F00203002B20D089
:10261C007B681B6803F00403002B05D0594B5B68E7
:10262C00584A43F4E06353607B681B6803F008036B
:10263C00002B05D0534B5B68524A43F460535360F4
:10264C00504B5B6823F0F0027B689B684D49134349
:10265C004B607B681B6803F00103002B40D07B6848
:10266C005B68012B07D1474B1B6803F40033002B2D
:10267C0015D101237FE07B685B68022B07D1414BAE
:10268C001B6803F00073002B09D1012373E03D4B51
:10269C001B6803F00203002B01D101236BE0394BC3
:1026AC005B6823F003027B685B68364913434B601D
:1026BC00FFF728FAF8600AE0FFF724FA0246FB68F5
:1026CC00D31A41F28832934201D9032353E02D4BA4
:1026DC005B6803F00C027B685B689B009A42EBD151
:1026EC00274B1B6803F007033A689A4210D2244B1D
:1026FC001B6823F0070222493B6813430B60204BF5
:10270C001B6803F007033A689A4201D0012332E0B8
:10271C007B681B6803F00403002B08D0194B5B6823
:10272C0023F4E0627B68DB68164913434B607B68DB
:10273C001B6803F00803002B09D0124B5B6823F4D1
:10274C0060527B681B69DB000E4913434B6000F041
:10275C0021F802460B4B5B681B0903F00F030A4977
:10276C00CB5C22FA03F3094A1360094B1B68184629
:10277C00FFF786F9002318461037BD4680BD00BF11
:10278C0000200240001002402C33000844000020BE
:10279C004800002090B48AB000AF294B3C1D0FCBF1
:1027AC0084E80F0040F201233B800023FB610023EF
:1027BC00BB6100237B6200237B6100233B62214BC6
:1027CC005B68FB61FB6903F00C03042B02D0082B44
:1027DC0003D02BE01C4B3B622BE0FB699B0C03F002
:1027EC000F0328333B4413F8243C7B61FB6903F44F
:1027FC008033002B12D0134B5B685B0C03F001038E
:10280C0028333B4413F8283CBB617B690E4A03FB1D
:10281C0002F2BB69B2FBF3F37B6204E07B690B4A07
:10282C0002FB03F37B627B6A3B6202E0064B3B627A
:10283C0000BF3B6A18462837BD4690BC704700BFA6
:10284C001C3300080010024000127A0000093D0001
:10285C0080B485B000AF78600A4B1B680A4AA2FBB3
:10286C0003235B0A7A6802FB03F3FB6000BFFB687F
:10287C005A1EFA60002BF9D100BF00BF1437BD46B9
:10288C0080BC704744000020D34D621080B582B0EC
:10289C0000AF78607B68002B01D1012341E07B689D
:1028AC0093F83D30DBB2002B06D17B68002283F815
:1028BC003C207868FEF7D2FA7B68022283F83D2030
:1028CC007B681A687B6804331946104600F06AFA74
:1028DC007B68012283F846207B68012283F83E2026
:1028EC007B68012283F83F207B68012283F840201B
:1028FC007B68012283F841207B68012283F8422007
:10290C007B68012283F843207B68012283F84420F2
:10291C007B68012283F845207B68012283F83D20E7
:10292C00002318460837BD4680BD000080B485B032
:10293C0000AF78607B6893F83D30DBB2012B01D09F
:10294C00012335E07B68022283F83D207B681B68FD
:10295C00DA687B681B6842F00102DA607B681B68EE
:10296C00164A934209D07B681B68B3F1804F04D0A0
:10297C007B681B68124A934211D17B681B689B6869
:10298C0003F00703FB60FB68062B10D07B681B6809
:10299C001A687B681B6842F001021A6007E07B68CA
:1029AC001B681A687B681B6842F001021A600023DE
:1029BC0018461437BD4680BC704700BF002C014040
:1029CC000004004080B582B000AF78607B681B6863
:1029DC001B6903F00203022B22D17B681B68DB68A6
:1029EC0003F00203022B1BD17B681B686FF0020201
:1029FC001A617B6801221A777B681B689B6903F05C
:102A0C000303002B03D0786800F0B1F905E0786877
:102A1C0000F0A4F9786800F0B3F97B6800221A770B
:102A2C007B681B681B6903F00403042B22D17B68B1
:102A3C001B68DB6803F00403042B1BD17B681B6849
:102A4C006FF004021A617B6802221A777B681B689C
:102A5C009B6903F44073002B03D0786800F087F96E
:102A6C0005E0786800F07AF9786800F089F97B68FD
:102A7C0000221A777B681B681B6903F00803082B7C
:102A8C0022D17B681B68DB6803F00803082B1BD181
:102A9C007B681B686FF008021A617B6804221A7746
:102AAC007B681B68DB6903F00303002B03D0786899
:102ABC0000F05DF905E0786800F050F9786800F0F6
:102ACC005FF97B6800221A777B681B681B6903F02F
:102ADC001003102B22D17B681B68DB6803F01003FA
:102AEC00102B1BD17B681B686FF010021A617B687E
:102AFC0008221A777B681B68DB6903F44073002B90
:102B0C0003D0786800F033F905E0786800F026F916
:102B1C00786800F035F97B6800221A777B681B68AF
:102B2C001B6903F00103012B0ED17B681B68DB686A
:102B3C0003F00103012B07D17B681B686FF00102C6
:102B4C001A617868FDF7C0FF7B681B681B6903F08E
:102B5C008003802B0ED17B681B68DB6803F080033D
:102B6C00802B07D17B681B686FF080021A61786834
:102B7C0000F067FA7B681B681B6903F04003402B6D
:102B8C000ED17B681B68DB6803F04003402B07D138
:102B9C007B681B686FF040021A61786800F0F9F8E6
:102BAC007B681B681B6903F02003202B0ED17B680C
:102BBC001B68DB6803F02003202B07D17B681B68A4
:102BCC006FF020021A61786800F032FA00BF083703
:102BDC00BD4680BD80B584B000AF786039607B683D
:102BEC0093F83C30012B01D10223B3E07B68012226
:102BFC0083F83C207B68022283F83D207B681B68AD
:102C0C009B68FB60FB6823F07703FB60FB6823F495
:102C1C007F43FB607B681B68FA689A603B681B68A3
:102C2C00B3F5005F3ED0B3F5005F00F28780B3F5DB
:102C3C00805F00F08580B3F5805F7FD8702B1AD051
:102C4C00702B7BD8602B50D0602B77D8502B3CD07E
:102C5C00502B73D8402B58D0402B6FD8302B64D0CE
:102C6C00302B6BD8202B60D0202B67D8002B5CD05E
:102C7C00102B5AD062E07B6818683B6899683B68F7
:102C8C005A683B68DB6800F05CF97B681B689B68E2
:102C9C00FB60FB6843F07703FB607B681B68FA689A
:102CAC009A604EE07B6818683B6899683B685A6884
:102CBC003B68DB6800F045F97B681B689A687B68A9
:102CCC001B6842F480429A603BE07B6818683B6862
:102CDC0059683B68DB681A4600F0BCF87B681B68D7
:102CEC005021184600F013F92BE07B6818683B68FC
:102CFC0059683B68DB681A4600F0DAF87B681B6899
:102D0C006021184600F003F91BE07B6818683B68EB
:102D1C0059683B68DB681A4600F09CF87B681B68B6
:102D2C004021184600F0F3F80BE07B681A683B680A
:102D3C001B681946104600F0EAF802E000BF00E0FC
:102D4C0000BF7B68012283F83D207B68002283F85A
:102D5C003C20002318461037BD4680BD80B483B09C
:102D6C0000AF786000BF0C37BD4680BC704780B4A4
:102D7C0083B000AF786000BF0C37BD4680BC704795
:102D8C0080B483B000AF786000BF0C37BD4680BC08
:102D9C00704780B483B000AF786000BF0C37BD467D
:102DAC0080BC704780B485B000AF786039607B68B8
:102DBC001B68FB607B68254A934207D07B68B3F1A4
:102DCC00804F03D07B68224A934208D1FB6823F0E2
:102DDC007003FB603B685B68FA681343FB607B68BD
:102DEC001A4A934207D07B68B3F1804F03D07B68BB
:102DFC00174A934208D1FB6823F44073FB603B688D
:102E0C00DB68FA681343FB60FB6823F080023B68C5
:102E1C005B691343FB607B68FA681A603B689A68CD
:102E2C007B68DA623B681A687B689A627B68074A3F
:102E3C00934203D13B681A697B681A637B68012251
:102E4C005A6100BF1437BD4680BC7047002C01404E
:102E5C000004004080B487B000AFF860B9607A60BD
:102E6C00FB681B6A7B61FB681B6A23F00102FB6831
:102E7C001A62FB689B693B613B6923F0F0033B6181
:102E8C007B681B013A6913433B617B6923F00A039E
:102E9C007B617A69BB6813437B61FB683A699A6111
:102EAC00FB687A691A6200BF1C37BD4680BC70474C
:102EBC0080B487B000AFF860B9607A60FB681B6AB9
:102ECC0023F01002FB681A62FB689B697B61FB684C
:102EDC001B6A3B617B6923F470437B617B681B033A
:102EEC007A6913437B613B6923F0A0033B61BB68A8
:102EFC001B013A6913433B61FB687A699A61FB6871
:102F0C003A691A6200BF1C37BD4680BC704780B45A
:102F1C0085B000AF786039607B689B68FB60FB68AC
:102F2C0023F07003FB603A68FB68134343F007031C
:102F3C00FB607B68FA689A6000BF1437BD4680BCA2
:102F4C00704780B487B000AFF860B9607A603B60BE
:102F5C00FB689B687B617B6923F47F437B613B68E7
:102F6C001A027B681A43BB6813437A6913437B616B
:102F7C00FB687A699A6000BF1C37BD4680BC7047FD
:102F8C0080B485B000AF786039607B6893F83C30D2
:102F9C00012B01D1022341E07B68012283F83C2004
:102FAC007B68022283F83D207B681B685B68FB60B2
:102FBC007B681B689B68BB60FB6823F07003FB603D
:102FCC003B681B68FA681343FB607B681B68FA68F4
:102FDC005A607B681B68144A934209D07B681B6853
:102FEC00B3F1804F04D07B681B68104A93420CD11C
:102FFC00BB6823F08003BB603B685B68BA68134313
:10300C00BB607B681B68BA689A607B68012283F896
:10301C003D207B68002283F83C200023184614379F
:10302C00BD4680BC704700BF002C0140000400402E
:10303C0080B483B000AF786000BF0C37BD4680BC55
:10304C00704780B483B000AF786000BF0C37BD46CA
:10305C0080BC7047012838BF012010B504462046BB
:10306C0000F044F830B900F007F808B900F00CF89B
:10307C008047F4E710BD0000024B1868BFF35B8F6C
:10308C00704700BF8C030020062008B500F00AF939
:10309C000120FDF750FF0000014B1868704700BF7E
:1030AC005000002070B500260C4D0D4C641BA41074
:1030BC00A64209D100F020F900260A4D0A4C641BE7
:1030CC00A410A64205D170BD55F8043B98470136B3
:1030DC00EEE755F8043B98470136F2E73C3300081D
:1030EC003C3300083C3300084C330008024B0146CB
:1030FC00186800F02BB800BF5000002003460244B3
:10310C00934200D1704703F8011BF9E770B50E4EDE
:10311C000C463168054611B900F08CF83060214638
:10312C00284600F087F8431C0AD0C41C24F0030482
:10313C00A04207D0211A284600F07CF8013001D1BA
:10314C004FF0FF34204670BD940300202DE9F04170
:10315C00CD1C25F0030508350C2D38BF0C25002D92
:10316C00074601DBA94205D90C2300263B603046FB
:10317C00BDE8F0812E4E00F0B1F833681C4634BB2C
:10318C0029463846FFF7C2FF431C04464DD134682C
:10319C002646002E40D123683146384604EB0308FE
:1031AC0000F048F880453AD1216803356D1A25F0B6
:1031BC00030508350C2D38BF0C2538462946FFF77A
:1031CC00A5FF01302BD023682B4423600EE022682E
:1031DC00521B1ED40B2A16D96119A342256018BFA5
:1031EC005960636808BF316062514B60384604F126
:1031FC000B0600F079F826F00706231DF21AB6D05C
:10320C009B1BA350B3E76268A3420CBF32605A60A9
:10321C00ECE723466468B2E734467668B9E70C23DA
:10322C0038463B6000F060F8A1E72560DEE700BFA0
:10323C009003002038B50023054D044608462B604A
:10324C00FDF784FE431C02D12B6803B1236038BD0B
:10325C00980300201F2938B504460D4604D91623BF
:10326C0003604FF0FF3038BD426C12B152F8213080
:10327C004BB9204600F030F82A4601462046BDE8FE
:10328C00384000F017B8012B0AD0591C03D1162373
:10329C0003600120E7E70024284642F825409847C0
:1032AC000020E0E7024B01461868FFF7D3BF00BFD0
:1032BC005000002038B50023064D04460846114640
:1032CC002B60FDF728FE431C02D12B6803B1236051
:1032DC0038BD00BF98030020FDF716BE014800F072
:1032EC0009B800BF9C030020014800F004B800BFDF
:1032FC009C03002070477047F8B500BFF8BC08BCB1
:10330C009E467047F8B500BFF8BC08BC9E46704797
:10331C0002030405060708090A0B0C0D0E0F10100A
:10332C000000000000000000010203040607080969
:10333C00310100086D0A00085D0D00087D180008B9
:04334C000D01000867
:103350002001002028010020300100203801002039
:1033600040010020480100205001002060010020A1
:1033700068010020700100207801002080010020F9
:103380008801002090010020B80B0000A00F000071
:10339000E80300000024F400100000000100000019
:1033A00054000020000000000000000000000000A9
:1033B000000000000000000000000000000000000D
:1033C00000000000000000000000000000000000FD
:1033D00000000000000000000000000000000000ED
:1033E00000000000000000000000000000000000DD
:1033F00000000000000000000000000000000000CD
:0434000000000000C8
:0400000508001A15C0
:00000001FF
